:100000000C945E000C9486000C9486000C94860080
:100010000C9486000C9486000C9486000C94860048
:100020000C9486000C9486000C9486000C94860038
:100030000C9486000C9486000C9486000C94860028
:100040000C9438030C9486000C94A8030C9482033F
:100050000C9486000C9486000C9486000C94860008
:100060000C9486000C9486000000000024002700F9
:100070002A0000000008000201000003040700003D
:10008000000000000000010204081020408001026E
:1000900004081020010204081020000000002500C0
:1000A00028002B00040404040404040402020202D5
:1000B0000202030303030303DA03C20511241FBE74
:1000C000CFEFD8E0DEBFCDBF11E0A0E0B1E0E4EAC1
:1000D000FEE002C005900D92A831B107D9F721E0EA
:1000E000A8E1B1E001C01D92A83DB207E1F710E020
:1000F000CDE5D0E004C02197FE010E941306CC3567
:10010000D107C9F70E947B040C9445070C940000AA
:1001100090E0FC01EE58FF4F2491FC01EA57FF4F9D
:100120003491FC01EC55FF4FE491EE23B9F022230A
:1001300039F02330F1F098F4213009F1223019F12F
:10014000F0E0EE0FFF1FE656FF4FA591B4918FB779
:10015000F894EC9130953E233C938FBF089527305F
:10016000A9F02830C9F0243059F7809180008F7DA4
:1001700003C0809180008F7780938000E1CF84B5A9
:100180008F7784BDDDCF84B58F7DFBCF8091B000AC
:100190008F778093B000D4CF8091B0008F7DF9CF5E
:1001A000CF93DF9390E0FC01EA57FF4F24918C55E9
:1001B0009F4FFC0184918823D1F090E0880F991F14
:1001C000FC01E859FF4FA591B491FC01E656FF4FA1
:1001D000C591D49161110EC09FB7F8948C91E22F14
:1001E000E0958E238C932881E223E8839FBFDF91E3
:1001F000CF9108958FB7F894EC91E22BEC938FBFD9
:10020000F6CF3FB7F89480911D0190911E01A09107
:100210001F01B091200126B5A89B05C02F3F19F002
:100220000196A11DB11D3FBFBA2FA92F982F882776
:10023000BC01CD01620F711D811D911D42E0660F51
:10024000771F881F991F4A95D1F708950F931F9321
:10025000CF93DF93CDB7DEB729970FB6F894DEBF03
:100260000FBECDBF8091C7019091C801892B09F4C1
:100270007CC00E9401010091CD011091CE0120911E
:10028000CF013091D001601771078207930740F4C6
:100290006093CD017093CE018093CF019093D001F4
:1002A0000091CD011091CE012091CF013091D0016C
:1002B000601B710B820B930B6C32714081059105B1
:1002C000C0F2F8948091C2019091C3019A8389830E
:1002D000E091C701F091C801DF0111968081898703
:1002E0009091BE01E091D101F091D2018091D301B2
:1002F000992309F445C09081982B98879081809527
:1003000089238F838F818C8388E08B8358856F81CD
:1003100049853B812C8189819A81508347FD252F16
:100320003A952083262F39F0441F00C000006083D7
:10033000000000C0F2CF38E04D91608300000197CB
:1003400061F7F093D201E093D10149873B832C837D
:100350009A83898378940E9401016093CD01709300
:10036000CE018093CF019093D00129960FB6F894D7
:10037000DEBF0FBECDBFDF91CF911F910F910895CA
:100380009081982B98879081809589238F838F8186
:100390008E8388E08D8358856F8149853D812E81CC
:1003A00089819A81508347FD252F00C000C020839A
:1003B00000C000C000C000C000C060830000262F45
:1003C0003A9541F0441F000000C000C000C000C0CA
:1003D00000C0E8CF38E04D9100C0608300C00197B5
:1003E00009F7F093D201E093D10149873D832E8331
:1003F000AFCF8F929F92AF92BF92CF92DF92EF9248
:10040000FF924B015C010E9401016B017C010E9483
:1004100001016C197D098E099F09683E73408105B1
:100420009105A8F321E0821A9108A108B10888EE8D
:10043000C80E83E0D81EE11CF11C81149104A104B4
:10044000B10429F7FF90EF90DF90CF90BF90AF906D
:100450009F908F900895AF92BF92CF92DF92EF92CC
:10046000FF920F931F93CF93DF936C017B018B015E
:10047000040F151FEB015E01AE18BF08C017D107AE
:1004800059F06991D601ED91FC910190F081E02D38
:10049000C6010995892B79F7C501DF91CF911F918D
:1004A0000F91FF90EF90DF90CF90BF90AF900895A5
:1004B000FC01538D448D252F30E0842F90E0821B6A
:1004C000930B541710F0CF96089501970895FC01EF
:1004D000918D828D981761F0A28DAE0FBF2FB11D47
:1004E0005D968C91928D9F5F9F73928F90E008959F
:1004F0008FEF9FEF0895FC01918D828D981731F059
:10050000828DE80FF11D858D90E008958FEF9FEFAC
:100510000895FC01918D228D892F90E0805C9F4F82
:10052000821B91098F739927089581E291E00E94BF
:10053000890221E0892B09F420E0822F089580E0D0
:1005400090E0892B29F00E94950281110C94000003
:100550000895FC01A48DA80FB92FB11DA35ABF4F58
:100560002C91848D90E001968F739927848FA689B2
:10057000B7892C93A089B1898C91837080648C9306
:10058000938D848D981306C00288F389E02D8081B5
:100590008F7D80830895EF92FF920F931F93CF93E7
:1005A000DF93EC0181E0888F9B8D8C8D98131AC0AE
:1005B000E889F989808185FF15C09FB7F894EE8995
:1005C000FF896083E889F9898081837080648083F2
:1005D0009FBF81E090E0DF91CF911F910F91FF903D
:1005E000EF900895F62E0B8D10E00F5F1F4F0F73E5
:1005F0001127E02E8C8D8E110CC00FB607FCFACFA0
:10060000E889F989808185FFF5CFCE010E94A90292
:10061000F1CFEB8DEC0FFD2FF11DE35AFF4FF08270
:100620009FB7F8940B8FEA89FB8980818062CFCFD6
:10063000CF93DF93EC01888D8823B9F0AA89BB8919
:10064000E889F9898C9185FD03C0808186FD0DC004
:100650000FB607FCF7CF8C9185FFF2CF808185FF25
:10066000EDCFCE010E94A902E9CFDF91CF9108958D
:100670001F920F920FB60F9211242F933F938F93D7
:100680009F93AF93BF938091190190911A01A0910C
:100690001B01B0911C013091180123E0230F2D376D
:1006A00058F50196A11DB11D2093180180931901E1
:1006B00090931A01A0931B01B0931C0180911D011E
:1006C00090911E01A0911F01B09120010196A11DE2
:1006D000B11D80931D0190931E01A0931F01B09343
:1006E0002001BF91AF919F918F913F912F910F90DA
:1006F0000FBE0F901F90189526E8230F0296A11D9C
:10070000B11DD2CF1F920F920FB60F9211242F93CB
:100710003F934F935F936F937F938F939F93AF9389
:10072000BF93EF93FF9381E291E00E94A902FF91B2
:10073000EF91BF91AF919F918F917F916F915F9159
:100740004F913F912F910F900FBE0F901F901895D2
:100750001F920F920FB60F9211242F938F939F9396
:10076000EF93FF93E0913101F09132018081E091AC
:100770003701F091380182FD1BC0908180913A01D0
:100780008F5F8F7320913B01821741F0E0913A0116
:10079000F0E0EF5DFE4F958F80933A01FF91EF916E
:1007A0009F918F912F910F900FBE0F901F901895D2
:1007B0008081F4CF109224011092230188EE93E0FF
:1007C000A0E0B0E08093250190932601A09327013B
:1007D000B09328018AE091E0909322018093210157
:1007E00085EC90E090932E0180932D0184EC90E0B5
:1007F0009093300180932F0180EC90E09093320130
:100800008093310181EC90E0909334018093330127
:1008100082EC90E0909336018093350186EC90E075
:10082000909338018093370110923A0110923B0166
:1008300010923C0110923D011092BF011092C6012E
:100840001092CD011092CE011092CF011092D001E2
:1008500081E08093CC018093C9011092CA0192E09B
:100860009093CB018093BE018CE090E09093C30104
:100870008093C2010E9419069093C8018093C7011A
:10088000009781F12CE0FC0111922A95E9F784E0B0
:1008900090E09093C1018093C00189E090E0909333
:1008A000C5018093C4018091BF01882339F061E0C4
:1008B00089E00E94D00089E00E948800EDEAF0E023
:1008C000E491F0E0EE0FFF1FE656FF4F8591949103
:1008D0009093D2018093D101EFE8F0E0E491E093AE
:1008E000D30108951092C3011092C2011092C10168
:1008F0001092C001D2CF789484B5826084BD84B553
:10090000816084BD85B5826085BD85B5816085BD0A
:1009100080916E00816080936E00109281008091C2
:10092000810082608093810080918100816080934A
:100930008100809180008160809380008091B1006F
:1009400084608093B1008091B00081608093B0009A
:1009500080917A00846080937A0080917A0082602E
:1009600080937A0080917A00816080937A008091F0
:100970007A00806880937A001092C100E091310182
:10098000F091320182E08083E0912D01F0912E01FF
:100990001082E0912F01F09130018FEC8083109252
:1009A0003901E0913501F091360186E08083E091D4
:1009B0003301F0913401808180618083E0913301C3
:1009C000F0913401808188608083E0913301F0915F
:1009D0003401808180688083E0913301F09134019B
:1009E00080818F7D80838091C4019091C50197FDA6
:1009F0003FC061E00E94D0008091C4010E94880045
:100A000081E08093BF014091C2015091C30170E029
:100A100060E08091C7019091C8010E943E070E944A
:100A200026012091C601222359F1C091C701D0911E
:100A3000C801215001F130E050E040E06FEF7FEF5E
:100A400080E090E00E94D205FE014091C2015091E9
:100A5000C301CF018C1B9D0B8417950778F440814F
:100A6000429FC001439F900D112490833196EDCF9A
:100A70001092BF01C8CF30E020E0E6CF1092C6014F
:100A80000E942601F8ECFF2EA6E9EA2EB4E6DB2E42
:100A900000E010E04091C2015091C30170E060E0BD
:100AA0008091C7019091C8010E943E070E942601D3
:100AB00068EE73E080E090E00E94F901D0E0C0E0D1
:100AC0008091C0019091C101C817D907B0F58091FC
:100AD000C60148EC56E964E6882361F08D9D9001DB
:100AE0001124632F8E9D90011124532F8F9DC001DF
:100AF0001124492FE091CC018091C7019091C80148
:100B00002091C901E21332C09E01220F331F2C0F26
:100B10003D1F820F931FE091C901E80FF92FF11DCE
:100B20006083E091CA01E80FF92FF11D50832091F5
:100B3000CB01820F911DFC0140830E94260164EFCE
:100B400071E080E090E00E94F9012196C430D10567
:100B500009F0B6CF0115110509F49CCF0E9495024A
:100B6000882309F497CF0E94000094CF9E01220FA2
:100B7000331F220F331F820F931FE80FF92FF11D30
:100B80001082C9CF8091C7019091C8010E94B5061B
:100B90008091C4019091C50197FD03C060E00C9461
:100BA000D0000895052E97FB1EF400940E94E905DD
:100BB00057FD07D00E94F10507FC03D04EF40C94BA
:100BC000E90550954095309521953F4F4F4F5F4F28
:100BD000089590958095709561957F4F8F4F9F4FA9
:100BE0000895A1E21A2EAA1BBB1BFD010DC0AA1F6E
:100BF000BB1FEE1FFF1FA217B307E407F50720F086
:100C0000A21BB30BE40BF50B661F771F881F991F00
:100C10001A9469F760957095809590959B01AC0149
:100C2000BD01CF010895EE0FFF1F0590F491E02D57
:100C300009940F931F93CF93DF938230910510F4A3
:100C400082E090E0E091D601F091D70130E020E021
:100C5000B0E0A0E0309799F42115310509F44AC0BD
:100C6000281B390B24303105D8F58A819B81611509
:100C7000710589F1FB0193838283FE0111C04081DC
:100C800051810281138148175907E0F0481759072D
:100C900099F4109761F012960C93129713961C9387
:100CA0003296CF01DF91CF911F910F91089500935C
:100CB000D6011093D701F4CF2115310551F0421719
:100CC000530738F0A901DB019A01BD01DF01F801EA
:100CD000C1CFEF01F9CF9093D7018093D601CDCF4B
:100CE000FE01E20FF31F8193919322503109398362
:100CF0002883D7CF2091D4013091D501232B41F403
:100D000020910201309103013093D5012093D40149
:100D100020910001309101012115310541F42DB7D9
:100D20003EB74091040150910501241B350BE09121
:100D3000D401F091D501E217F307A0F42E1B3F0B6D
:100D40002817390778F0AC014E5F5F4F241735073D
:100D500048F04E0F5F1F5093D5014093D40181930B
:100D600091939FCFF0E0E0E09CCFCF93DF9300978B
:100D7000E9F0FC01329713821282A091D601B09162
:100D8000D701ED0130E020E01097A1F420813181FE
:100D9000820F931F2091D4013091D5012817390774
:100DA00009F061C0F093D501E093D401DF91CF91B8
:100DB0000895EA01CE17DF07E8F54A815B819E01BD
:100DC00041155105B1F7E901FB83EA834991599136
:100DD000C40FD51FEC17FD0761F480819181029645
:100DE000840F951FE90199838883828193819B8376
:100DF0008A83F0E0E0E012968D919C911397009722
:100E0000B9F52D913C911197CD010296820F931F58
:100E10002091D4013091D5012817390739F6309740
:100E200051F51092D7011092D601B093D501A0933D
:100E3000D401BCCFD383C28340815181840F951FDD
:100E4000C817D90761F44E5F5F4F88819981480FB9
:100E5000591F518340838A819B819383828321150B
:100E6000310509F0B0CFF093D701E093D6019ECFC2
:100E7000FD01DC01C0CF13821282D7CFDC0101C09B
:100E80006D9341505040E0F7089510E0CDE5D0E07B
:100E900004C0FE010E9413062196CE35D107C9F782
:040EA000F894FFCFF4
:100EA4000000D801800000000000CB022B02580291
:080EB4001803890267027B02AA
:00000001FF
