:100000000C94CB000C94F3000C94F3000C94F300CC
:100010000C94F3000C94F3000C94F3000C94F30094
:100020000C9495050C94F3000C94F3000C94F300DD
:100030000C94F3000C94F3000C94F3000C94F30074
:100040000C94F3040C94F3000C9463050C943D059C
:100050000C94F3000C94F3000C94F3000C94F30054
:100060000C94F3000C94F30000000000240027001F
:100070002A0018002860095802B004580258025893
:1000800002102D00000006002628236810F4012C21
:1000900006F4012602806E001C04050026E0207094
:1000A000100E022A060E020E02004100000014008B
:1000B00026801180113002900630023002006E005E
:1000C00000001E002638081C040E022A060E020E2E
:1000D0000200320000001D0026220B220BEE0266F9
:1000E00008EE02EE02806E0000001A0026F603BC45
:1000F000050802BC050802D401004B0000001C00EA
:10010000261F015D033E023E021F015D03A06E003B
:10011000000004002604010C0304011C0704010C68
:1001200003006E0000000C0025800DC006B0011019
:1001300005B001B001008200000008002600238005
:10014000113002900630023002006E001C040000E4
:100150000000250028002B0000000008000201001C
:100160000003040700000000000000000404040471
:100170000404040402020202020203030303030351
:10018000010204081020408001020408102001022E
:1001900004081020850611241FBECFEFD8E0DEBF73
:1001A000CDBF23E0ACE7B1E001C01D92AD33B20793
:1001B000E1F711E0A0E0B1E0EAEBFFE102C0059059
:1001C0000D92AC37B107D9F710E0CBECD0E004C00A
:1001D0002197FE010E94D50FCA3CD107C9F70E94A2
:1001E000C0060C94DB0F0C94000020912E0330917C
:1001F0002F032817390728F480912C0381608093FE
:100200002C03089590E0FC01E85AFE4F2491FC0174
:10021000E058FE4F3491FC01E459FE4FE491EE2387
:10022000C9F0222339F0233001F1A8F4213019F16B
:10023000223029F1F0E0EE0FFF1FE25BFE4FA591A7
:10024000B4918FB7F894EC91611126C030953E239C
:100250003C938FBF08952730A9F02830C9F024308F
:1002600049F7809180008F7D03C0809180008F7757
:1002700080938000DFCF84B58F7784BDDBCF84B5DA
:100280008F7DFBCF8091B0008F778093B000D2CF6D
:100290008091B0008F7DF9CF3E2BDACF3FB7F89435
:1002A0008091810190918201A0918301B09184019C
:1002B00026B5A89B05C02F3F19F00196A11DB11DC1
:1002C0003FBFBA2FA92F982F8827BC01CD01620FFD
:1002D000711D811D911D42E0660F771F881F991FB8
:1002E0004A95D1F70895AF92BF92CF92DF92EF92E5
:1002F000FF920F931F93CF93DF936C017B018B01D0
:10030000040F151FEB015E01AE18BF08C017D1071F
:1003100059F06991D601ED91FC910190F081E02DA9
:10032000C6010995892B79F7C501DF91CF911F91FE
:100330000F91FF90EF90DF90CF90BF90AF90089516
:10034000FC01538D448D252F30E0842F90E0821BDB
:10035000930B541710F0CF96089501970895FC0160
:10036000918D828D981761F0A28DAE0FBF2FB11DB8
:100370005D968C91928D9F5F9F73928F90E0089510
:100380008FEF9FEF0895FC01918D828D981731F0CA
:10039000828DE80FF11D858D90E008958FEF9FEF1E
:1003A0000895FC01918D228D892F90E0805C9F4FF4
:1003B000821B91098F73992708958BE891E00E9421
:1003C000D10121E0892B09F420E0822F089580E0FB
:1003D00090E0892B29F00E94DD0181110C9400002E
:1003E0000895FC01A48DA80FB92FB11DA35ABF4FCA
:1003F0002C91848D90E001968F739927848FA68924
:10040000B7892C93A089B1898C91837080648C9377
:10041000938D848D981306C00288F389E02D808126
:100420008F7D80830895EF92FF920F931F93CF9358
:10043000DF93EC0181E0888F9B8D8C8D98131AC01F
:10044000E889F989808185FF15C09FB7F894EE8906
:10045000FF896083E889F989808183708064808363
:100460009FBF81E090E0DF91CF911F910F91FF90AE
:10047000EF900895F62E0B8D10E00F5F1F4F0F7356
:100480001127E02E8C8D8E110CC00FB607FCFACF11
:10049000E889F989808185FFF5CFCE010E94F101BD
:1004A000F1CFEB8DEC0FFD2FF11DE35AFF4FF082E2
:1004B0009FB7F8940B8FEA89FB8980818062CFCF48
:1004C000CF93DF93EC01888D8823B9F0AA89BB898B
:1004D000E889F9898C9185FD03C0808186FD0DC076
:1004E0000FB607FCF7CF8C9185FFF2CF808185FF97
:1004F000EDCFCE010E94F101E9CFDF91CF910895B8
:1005000022E3FC012E9FC0012F9F900D1124480F64
:10051000591F7695679576956795CB01880F991F3A
:10052000860F971F8417950750F485E0869F9001EA
:10053000879F300D112481E02417350708F480E0EF
:1005400008954CEE5FEF0C9480024F925F926F9291
:100550007F929F92AF92BF92CF92DF92EF92FF92E3
:100560000F931F93CF93DF93182F5A01922EC62F0C
:10057000D0E0C65CDD4F412C512C32014394C12C9C
:10058000D12C7601112301F19920B1F08881B501B8
:1005900090E00E94A102002379F1CC0CDD1CEE1C3E
:1005A000FF1C882311F06894C0F8440C551C661C8D
:1005B000771C11502296E6CF898144E150E0B501C5
:1005C00090E00E948002E7CFC0920A03D0920B0312
:1005D000E0920C03F0920D03DF91CF911F910F91E8
:1005E000FF90EF90DF90CF90BF90AF909F907F9063
:1005F0006F905F904F9008958823B9F2C428D52852
:10060000E628F728D2CFCF93DF93EC01FC01339695
:100610006591749180913B0290E00E94A102882331
:1006200069F0FE0135966591749180913C0244E138
:1006300050E090E0DF91CF910C94800280E0DF9158
:10064000CF91089522E3289FA001299F500D1124E6
:1006500076956795769567959B01220F331F260F38
:10066000371F4217530750F085E0869F9001879F00
:10067000300D112481E02417350708F480E0089537
:10068000BF92CF92DF92EF92FF920F931F93CF937F
:10069000DF9310918A0180912D03B12C1817A0F5DA
:1006A000812F8170B82E0091890101111EC0E12FA8
:1006B000F0E0E35DFD4FE584F12CCCEEDFEF882325
:1006C00011F0C4E1D0E0C0908701D0908801CC0D3A
:1006D000DD1DBE01C7010E942203882301F181E0D4
:1006E00090E090938601809385010F5F00938901CC
:1006F00080918501909186010817190628F01092C3
:1007000089011F5F10938A018B2DDF91CF911F917B
:100710000F91FF90EF90DF90CF90BF900895CC0D98
:10072000DD1DBE01C7010E942203882319F082E06B
:1007300090E0D7CFB6016C0F7D1FC7010E94220346
:10074000882319F083E090E0CCCFBB24BA94DCCFAF
:1007500080913B03811102C02D98089560E00C94B4
:100760000201882349F080913B03811102C02D9A38
:10077000089561E00C9402010C94A8038F929F925B
:10078000AF92BF92CF92DF92EF92FF921F93CF93DF
:10079000DF93EC010E944E016B017C014B015C0177
:1007A00088E0880E911CA11CB11C10E0F89461E057
:1007B000809128020E94020180912B0290912C02CC
:1007C0008230910538F0880F991F880F991F05977F
:1007D0000197F1F760E0809128020E94020178946D
:1007E000111103C081E00E94B10380912902909110
:1007F0002A02C80ED91EE11CF11CF8940E944E0179
:100800009B01281939092C173D0778F00E94A8038D
:100810007894DF91CF911F91FF90EF90DF90CF9070
:10082000BF90AF909F908F90089511E06C157D055B
:100830008E059F0518F3BACFCF92DF92EF92FF9209
:100840008AE190E090932A028093290285E090E06B
:1008500090932C0280932B028091280290E0FC015F
:10086000E058FE4F249184599E4FFC0184918823C7
:1008700099F090E0880F991FFC01E859FF4FA5916E
:10088000B491FC01E25BFE4F859194918FB7F8948F
:10089000EC91E22BEC938FBF80E093E20E94BE03C9
:1008A0000E944E016B017C01F4E0CF1AD108E108EF
:1008B000F1080E944E016C197D098E099F09603C68
:1008C000784081059105A8F380E392E0FF90EF90D6
:1008D000DF90CF900C94BE03FC0101900020E9F75B
:1008E0003197AF01481B590BBC018BE891E00C9488
:1008F00073018F929F92AF92BF920F931F93CF93EA
:10090000DF93CDB7DEB7A1970FB6F894DEBF0FBE69
:10091000CDBF19A2423008F44AE08E010F5D1F4F8F
:10092000842E912CB12CA12CA50194010E94850F3D
:10093000E62FB901CA01EA30F4F4E05DD801EE9384
:100940008D01232B242B252B79F790E080E0109745
:1009500019F0CD010E946C04A1960FB6F894DEBF89
:100960000FBECDBFDF91CF911F910F91BF90AF9080
:100970009F908F900895E95CE1CFFF920F931F93B2
:10098000CF93DF93CDB7DEB764970FB6F894DEBF91
:100990000FBECDBF162FF42E44E150E0BC01CE01B6
:1009A00001960E946C0F0889802F807148855985B7
:1009B00004FD02C04A855B85001F0027001F21E05F
:1009C000811101C020E06F2D812F0E94A502649645
:1009D0000FB6F894DEBF0FBECDBFDF91CF911F9150
:1009E0000F91FF9008951F920F920FB60F9211244E
:1009F0002F933F938F939F93AF93BF9380917D01EC
:100A000090917E01A0917F01B091800130917C0195
:100A100023E0230F2D3758F50196A11DB11D20931A
:100A20007C0180937D0190937E01A0937F01B09320
:100A300080018091810190918201A0918301B09108
:100A400084010196A11DB11D8093810190938201C3
:100A5000A0938301B0938401BF91AF919F918F9137
:100A60003F912F910F900FBE0F901F90189526E881
:100A7000230F0296A11DB11DD2CF1F920F920FB668
:100A80000F9211242F933F934F935F936F937F9314
:100A90008F939F93AF93BF93EF93FF938BE891E076
:100AA0000E94F101FF91EF91BF91AF919F918F91C2
:100AB0007F916F915F914F913F912F910F900FBE5A
:100AC0000F901F9018951F920F920FB60F9211243E
:100AD0002F938F939F93EF93FF93E0919B01F0915E
:100AE0009C018081E091A101F091A20182FD1BC0D7
:100AF00090818091A4018F5F8F732091A50182174F
:100B000041F0E091A401F0E0E557FE4F958F80930E
:100B1000A401FF91EF919F918F912F910F900FBEA4
:100B20000F901F9018958081F4CF1F920F920FB6EF
:100B30000F9211242F933F934F935F936F937F9363
:100B40008F939F93AF93BF93CF93EF93FF93E091D6
:100B50002F02F0913002C08180913102C823809130
:100B600032029091330220913202309133022F3FB2
:100B70003F4F29F0019690933302809332022091E7
:100B80002D02211115C0C1114BC0813A910558F0B9
:100B900010923602909339028093380281E080935C
:100BA000370280932D02109233021092320238C025
:100BB000213099F4CC23A1F1E09137022E0F20933C
:100BC0003702F0E0E35DFD4F8F3F910519F010F023
:100BD0008FEF90E0858782E0E4CF223009F047C0B4
:100BE000E0913702813A910510F4E73CA0F1E83C2E
:100BF00018F081E08093360280913802909139029A
:100C000090932F0380932E03E0932D0383E0809332
:100C10002D02E0913402F0913502309709F00995E8
:100C200080913C03882329F081E0C11180E00E947B
:100C3000B103FF91EF91CF91BF91AF919F918F91B0
:100C40007F916F915F914F913F912F910F900FBEC8
:100C50000F901F901895C111E3CF91E09E0F9093D4
:100C60003702F0E0E35DFD4F858781E09ACF2330C6
:100C7000B9F6C111D5CF97CFDF92EF92FF920F93C4
:100C80001F93CF93DF93EC01D62E8A017901F0E018
:100C900090E080E030E0E0E0DE01AE0FB11D2C918D
:100CA000FF5F222339F0320F2E9F800D911D1124FA
:100CB0001C92F0E03323B9F0DE1611F0F23098F018
:100CC000232F2695820F911D632F70E00E94C10F84
:100CD000DE01A60FB11D3C93D8013C9131110FC02C
:100CE0006C9390E080E0EF5FDE16B0F681E0DF917C
:100CF000CF911F910F91FF90EF90DF900895D70152
:100D00003C91332369F380E0F2CFEBE8F1E013820A
:100D1000128288EE93E0A0E0B0E084839583A683FE
:100D2000B78388E191E09183808385EC90E095879B
:100D3000848784EC90E09787868780EC90E0918BA5
:100D4000808B81EC90E0938B828B82EC90E0958B92
:100D5000848B86EC90E0978B868B118E128E138E8F
:100D6000148E10923B03EDE2F2E0118281E0848365
:100D700089E290E09383828350981092280208952C
:100D8000CF93DF93CDB7DEB7E9970FB6F894DEBF08
:100D90000FBECDBF789484B5826084BD84B5816078
:100DA00084BD85B5826085BD85B5816085BD809136
:100DB0006E00816080936E001092810080918100AE
:100DC00082608093810080918100816080938100A6
:100DD000809180008160809380008091B100846068
:100DE0008093B1008091B00081608093B0008091C9
:100DF0007A00846080937A0080917A008260809388
:100E00007A0080917A00816080937A0080917A00E4
:100E1000806880937A001092C100E0919B01F0916C
:100E20009C0182E08083E0919701F091980110820B
:100E3000E0919901F0919A019FEC90831092A301A7
:100E4000E0919F01F091A00196E09083E0919D01D7
:100E5000F0919E01908190619083E0919D01F091CD
:100E60009E01908198609083E0919D01F0919E0198
:100E7000908190689083E0919D01F0919E01908116
:100E80009F7D908398E090932E0291E090933102A1
:100E900023E230E03093300220932F02209810920A
:100EA0003C0310923B038093B0008093B10084E632
:100EB0008093B3008093B4001092B20080912D0211
:100EC000833011F410922D0284E0809370009E0113
:100ED0002F5F3F4F590190E2692E712C80912D02B6
:100EE000833009F000C280913602882309F465C07E
:100EF00080E480932C03109203031092020310925B
:100F00000703109206031092050310920403109237
:100F10000A0310920B0310920C0310920D0310920F
:100F20002B0310922A0380912C0386FDCAC11091D5
:100F30002D03812F8F7B843009F0BFC080913B024D
:100F400060E073E290E00E94A102882309F442C1AC
:100F500080913C0290E044E150E0143009F048C038
:100F600060EC78E00E948002882309F433C180910C
:100F70003D0260E372E090E00E94A102882309F440
:100F800029C181E080932C03809132039091330337
:100F9000909305038093040380913403909135036B
:100FA000909307038093060380913003909131035F
:100FB00090930303809302037DC110922C038091D0
:100FC0000203909103039093310380933003809147
:100FD0000603909107039093350380933403809127
:100FE000040390910503909333038093320383CFDE
:100FF00060E871E10E948002882309F4EBC043E0BD
:1010000060E28AE391E00E94BD0420910A0390917E
:101010000B0360910C0380910D03462F50E0509319
:10102000070340930603422F592F4E3E37E85307DC
:1010300009F523E030E0309303032093020390E0AE
:10104000909305038093040370922B0360922A030C
:101050008AE795E00E94F50080912C0380FF2AC169
:1010600029E030E0309303032093020380628093F1
:101070002C0320C19095291310C030E03093050354
:1010800020930403982F909569130CC088E090E09A
:101090009093030380930203D7CF509305034093AB
:1010A0000403F0CF2AE030E03093030320930203DF
:1010B0006093060380930703C7CF143609F08AC0F4
:1010C00086E291E00E940303882309F483C043E091
:1010D00060E186E291E00E94BD04D0900A030D2DEC
:1010E00010910B03BBE0EB2EF12C023040E2140711
:1010F000F9F0AEE0EA2EF12C0A3A8AE51807C1F0C1
:10110000FDE0EF2EF12C043592E3190789F0EFE0B2
:10111000EE2EF12C0330A1E01A0751F080E1E82E09
:10112000F12C0332BBEC1B0719F07CE0E72EF12C0D
:10113000D1268D2D82958F70D82643E260E286E21B
:1011400091E00E94BD0480910A0390910B03A0914D
:101150000C03B0910D039C0164E0369527956A95C8
:10116000E1F730930503209304032A2F30E03093F6
:10117000070320930603282F2A2729273D2D3F7098
:10118000482F4F70341719F034E030932C03ECE003
:10119000EE16F10449F430912C03306130932C03A6
:1011A00010930903009308032B1729F080912C0357
:1011B000846080932C0380E390E090932B038093D2
:1011C0002A03F0920303E09202038AE397E00E946D
:1011D000F50070C080912D03803209F094C041E089
:1011E0006FE082E191E00E94BD048091590264E0C9
:1011F00071E090E00E94A102882309F484C08091EC
:101200000A0390910B03A0910C03B0910D039C0174
:101210002F713327309305032093040355E0B695CF
:10122000A795979587955A95D1F7392F3370AC01CB
:101230005527509307034093060340912E03509186
:101240002F034536544008F05BC020912C032260E8
:1012500020932C0320913A032F5F20933A0320FF21
:1012600019C0213019F021E020932C033091340370
:1012700040913503282F2095231729F020912C0326
:10128000246020932C033093060340930703392FE7
:101290003095337087E190E0311102C084E090E036
:1012A00090930303809302038FE090E090932B03CD
:1012B00080932A038091020390910303892B09F004
:1012C000CFC586E291E00E946C0481E691E00E9425
:1012D0006C0480912D02833011F410922D0281E66E
:1012E00091E00E946C0480E090E0892B09F4F6CD37
:1012F0000E94DD01882309F4EECD0E940000EBCDB1
:1013000010923A03C7CF82E790E00E94030388233C
:1013100009F446C080912D038A3129F08A3219F0F0
:10132000803209F03DC090E0BC016150710977FD49
:10133000BC017595679543E082E790E00E94BD048B
:1013400080910A0390910B03A0910C03B0910D03BF
:101350009C012F773327309307032093060347E040
:10136000B695A795979587954A95D1F790930503DC
:101370008093040320912D0330E0C901019797FD6C
:10138000C9019595879590932B0380932A0388E153
:1013900090E0909303038093020380EE91E017CFD7
:1013A00081E080938A0129E733E03093880120931C
:1013B0008701109289010E944003813009F060C0CA
:1013C000C12CD12C760110E090912D0380918A01DF
:1013D0008917E0F40E944003082F0E944003011186
:1013E0000BC0813009F04CC0CC0CDD1CEE1CFF1C86
:1013F0006894C0F81F5FE8CF013009F041C0811147
:101400003FC0CC0CDD1CEE1CFF1CF4CF812F90E004
:1014100090932B0380932A03C0920A03D0920B036C
:10142000E0920C03F0920D038C2D8F7390E090935B
:101430000703809306039601B6E036952795BA9583
:10144000E1F72F71332730930503209304039601AE
:1014500022273071232B31F4805C9F4F9093070338
:101460008093060380E8D3FC88E880932C0381E115
:1014700090E090930303809302038FEC99E0A7CE52
:1014800080913B0268E67AE090E00E94A102882306
:1014900009F448C080913C0244E150E068E773E001
:1014A00090E00E9480028823E9F183E080938A0122
:1014B0008CEB91E0909388018093870110928901D1
:1014C0000E944003813071F50E94400381112AC0BF
:1014D000C12CD12C760110E090912D0380918A01CE
:1014E000891708F079C00E944003982E1330B1F09C
:1014F0000E944003082F133021F40E944003081378
:1015000011C031E093125EC001110CC0CC0CDD1C87
:10151000EE1CFF1C6894C0F81F5FDECF0E944003E2
:10152000981631F3F0902D034CE3F41619F084E093
:10153000F81215C000913B0210E068E273E2C801A6
:101540000E94A102811195C06CE175E2C8010E9460
:10155000A10268EB7BE007E010E081118EC0B2E2EF
:10156000FB1609F4F6C0E4E2FE1609F424C18091EA
:101570002D03982F9F7D943419F0863009F09EC179
:101580008EEA90E00E940303882309F497C18091BA
:101590002D03863009F038C181E280932C038091BD
:1015A0003203909133039093050380930403809159
:1015B000340390913503909307038093060385E1EC
:1015C00090E0F6CC9110AECF013009F0ABCFCC0C4F
:1015D000DD1CEE1CFF1CA0CF812F90E090932B030D
:1015E00080932A03C0920A03D0920B03E0920C036B
:1015F000F0920D032C2D30E08D2D90E0133200F58C
:1016000040E840932C033093070320930603909304
:10161000050380930403E0FE03C088E880932C0355
:10162000153128F080912C03806180932C0382E196
:1016300090E0909303038093020383E79AE0C7CD81
:1016400040E940932C0330930703209306039093C3
:10165000050380930403C7019F739093090380934C
:101660000803F7FE03C088E980932C0383E190E030
:10167000E0CF68E670E106E010E080913C0290E087
:10168000A4E044E150E0FA1213C060ED77E00E945C
:101690008002882309F46BCF80913D0264EF71E0F2
:1016A00090E00E94A102882309F461CF81E86ACC0E
:1016B0000E948002882309F452CF43E06CE186E85F
:1016C00090E00E94BD0480E880932C0340910A03BF
:1016D00050910B0360910C0370910D03DB01CA0163
:1016E00024E0B695A795979587952A95D1F79C0103
:1016F0009093070380930603DB01CA01E4E1B695EA
:10170000A79597958795EA95D1F7909305038093D0
:10171000040384E090E0E0E0F22FFF70EF0FF4E0CC
:1017200036952795FA95E1F70197B1F74E274F7057
:10173000552766277727452B462B472B19F084E83A
:1017400080932C0310930303009302038CE190E039
:10175000ADCD80912E0390912F038C3E9C4508F0D7
:10176000A9CD80913B026EE072E090E00E94A10260
:10177000882309F49FCD80915B026EE072E090E0D7
:101780000E94A102882309F495CD81E080932C0367
:101790008091320390913303909305038093040367
:1017A000809134039091350390930703809306034F
:1017B00085E090E0FDCB8AE990E00E940303882356
:1017C00009F4D5CE43E060E18AE990E00E94BD04CF
:1017D00080910A0390910B03A0910C03B0910D032B
:1017E000492F5A2F6B2F77275093070340930603F7
:1017F0009927909305038093040380E190E09093F0
:101800002B0380932A03D4CF43E060E28EEA90E07A
:101810000E94BD0490910A0380910B0310910C0368
:1018200020910D03909304038093050330912D03C1
:10183000022F0095343639F543E460E18EEA90E0FA
:101840000E94BD0480910A0390910B03101731F0A0
:101850009095981719F094E090932C03982F812F6E
:10186000909307038093060380E390E090932B030B
:1018700080932A0386E190E0909303038093020310
:101880008EEB9AE0A4CC101306C0412F50E0509389
:1018900007034093060389130CC090E0909305035F
:1018A0008093040370922B0360922A0384E190E0FA
:1018B000E3CF1093060320930703F4CF80912D0309
:1018C000843269F582EC90E00E940303882339F1A9
:1018D00043E060E182EC90E00E94BD0410910A03B5
:1018E00080910B038095181719F084E080932C03E6
:1018F0008DE692E00E94F500812F90E0909307031F
:1019000080930603109205031092040380E190E097
:1019100090932B0380932A038EE190E049CB809132
:101920002D038434B1F486ED90E00E9403038823F4
:1019300081F043E060E286ED90E00E94BD0480E823
:1019400080932C0370922B0360922A038DE190E028
:101950002FCB80913B028E3E08F06AC080913C0202
:1019600044E150E062E074E090E00E94800288234D
:1019700009F45EC080912D03843209F059C00091B2
:101980000F01802F8071409107015091080104FDE3
:1019900004C04091090150910A01001F0027001F57
:1019A00021E0811101C020E063E080E10E94A502F6
:1019B00080E880932C0390910A0380910B03292FD8
:1019C000382F482F42954F708F7054E036952795E9
:1019D0005A95E1F72F70392F3F709FE09427982791
:1019E0009227391719F094E890932C0360912E03F5
:1019F00070912F03683F714128F490912C039260FD
:101A000090932C03409304031092050340E1849FBC
:101A1000C0011124822B909307038093060380E179
:101A200090E090932B0380932A038BE190E0C0CA4F
:101A30008AEE90E00E940303882371F180912D03C8
:101A4000843251F543E060E18AEE90E00E94BD04EB
:101A500080915D0268E072E090E00E94A10288231C
:101A6000D9F080910A0390910B0398279F3FA1F42E
:101A700090E0909307038093060380E190E09093B9
:101A80002B0380932A038AE190E0909303038093D1
:101A9000020388ED94E09BCB80912D03803709F001
:101AA0004FC041E068E08EEF90E00E94BD0480915D
:101AB0000A0390910B03A0910C03B0910D03892BA5
:101AC0008A2B8B2BE9F541E16FE18EEF90E00E94CC
:101AD000BD04C0900A03D0900B03E0900C03F0907B
:101AE0000D034FE461E18EEF90E00E94BD04909100
:101AF0000B0380910C03892798278927909307036C
:101B000080930603C0920A03D0920B03E0920C0369
:101B1000F0920D03D0920503C0920403F0920903E2
:101B2000E09208038CE190E090930303809302031A
:101B300088E390E090932B0380932A0380E897CA70
:101B400080912D03823108F438C192E3D5011D92B2
:101B50009A95E9F743E060E08250990B242F30E03A
:101B60002817390794F4235D3D4FF9012585223369
:101B700008F023C1F501E20FF11D30813F5F308392
:101B8000621708F4622F4E5FE9CF1EAA1DAA9E01BC
:101B90002B5C3F4FAE014A5C5F4FC5010E943C0683
:101BA000882309F40AC182E3D5011D928A95E9F7D9
:101BB00020912D032250330B44E060E0842F90E00D
:101BC0008217930794F4835D9D4FFC0185858233D2
:101BD00008F0F3C0F501E80FF11D90819F5F90833D
:101BE000681708F4682F4E5FE9CF1CAA1BAA9E0154
:101BF0002D5C3F4FAE014C5C5F4FC5010E943C061F
:101C0000882309F4DAC080912D0386951FEF180F01
:101C1000EBA8EE2011F01EEF180F212F30E03093CB
:101C20002B0320932A03C901019797FD4F969C012E
:101C300045E0359527954A95E1F738AF2FAB3FA999
:101C400039AFCDA8C11003C0EE2009F4B6C04CA82E
:101C500082E3489E200111248EA8889E4001112411
:101C6000C89E60011124E89E7001112433E0232EE8
:101C7000312C812F113208F080E29BA9992309F4BD
:101C80007CC0A2E0B0E0B0930303A093020300E0A5
:101C900020E0A701622D0E94A50280910A03909185
:101CA0000B03A0910C03B0910D0324E0329EF001D0
:101CB0001124E65EFC4F80839183A283B38330E4DA
:101CC000230E1052339449AD431598F620912E03FC
:101CD00030912F03203D3740F0F4EFA9F8ADEE0F1F
:101CE000FF1FEE0FFF1FE65EFC4F00811181228176
:101CF00033814091360350913703609138037091DE
:101D00003903041715072607370729F420912C03F8
:101D1000216020932C038093360390933703A09384
:101D20003803B093390320913B0292E3299F90013D
:101D3000112430930F0320930E0380913C02899F5E
:101D4000C001112490931103809310039092170304
:101D5000809216035092190340921803C114D104C3
:101D600019F1E114F10499F4D0921303C092120313
:101D700050921503409214039DCAE1E0F0E0F09305
:101D80000303E093020300E021E0A60183CFF09279
:101D90001503E09214039092130380921203D092E1
:101DA0001703C092160386CA9092130380921203FF
:101DB000F0921503E09214037DCAE0912D03E63002
:101DC00008F478CA11E025EC3DE94CE151E8F0E077
:101DD0000AE0612F70E0CB0102968E179F077CF519
:101DE000835D9D4FDC011D968C91635D7D4FDB0112
:101DF0001D966C91809F7001112498E0699FD0011D
:101E00001124EA16FB06C8F0609FB0011124A8E077
:101E10008A9FC0011124FF24F3946817790710F4F6
:101E200082E0F82E63E971E080E091E00E94750F96
:101E30009B01AC012F251F5FCCCFF12CF3CF20935A
:101E40000A0330930B0340930C0350930D037092DD
:101E50002B0360922A0310920303109202032ACAF2
:101E600080912D02833011F410922D0284E691E0CE
:101E70000E946C04609104037091050390E080E07F
:101E800040E10E94790481E691E00E946C048DE6B5
:101E900091E00E946C04609106037091070390E04A
:101EA00080E040E10E94790481E691E00E946C04A8
:101EB00086E791E00E946C0460910A0370910B0325
:101EC00080910C0390910D0340E10E94790481E61A
:101ED00091E00E946C0403CAFB01DC0102C0059082
:101EE0000D9241505040D8F70895DB018F939F9396
:101EF0000E94A70FBF91AF91A29F800D911DA39F3C
:101F0000900DB29F900D11240895A1E21A2EAA1BE4
:101F1000BB1BFD010DC0AA1FBB1FEE1FFF1FA21799
:101F2000B307E407F50720F0A21BB30BE40BF50B96
:101F3000661F771F881F991F1A9469F7609570951F
:101F4000809590959B01AC01BD01CF0108950E9441
:101F5000B20FA59F900DB49F900DA49F800D911D71
:101F600011240895A29FB001B39FC001A39F700DDB
:101F7000811D1124911DB29F700D811D1124911D91
:101F80000895AA1BBB1B51E107C0AA1FBB1FA617C0
:101F9000B70710F0A61BB70B881F991F5A95A9F712
:101FA00080959095BC01CD010895EE0FFF1F05901F
:0A1FB000F491E02D0994F894FFCF9E
:101FBA001B00269E0002049E0029029E00070100C3
:101FCA006E0000000000000013027301A00160020D
:101FDA00D101AF01C3015265636569766564206EFC
:101FEA006F697365206F7220616E20756E6B6E6FFC
:101FFA00776E20286F72206E6F7420796574206561
:10200A006E61626C6564292070726F746F636F6CA5
:10201A00000D0A00416464726573732000436F6D9A
:0C202A006D616E642000526177200000A0
:00000001FF
