:100000000C9428010C9459010C9459010C94590139
:100010000C9459010C9459010C9459010C945901F8
:100020000C9459010C9459010C9459010C945901E8
:100030000C9459010C9459010C9459010C945901D8
:100040000C9459010C9412070C9459010C94590109
:100050000C9459010C9459010C9459010C943E06CE
:100060000C9459010C9408060C94DE050C9459016B
:100070000C9459010C9459010C9459010C94590198
:100080000C94E4060C9459010C9459010C945901F8
:100090000C9459010C9459010C9459010C94590178
:1000A0000C9459010C9459010C94B6060C94590106
:1000B0000C9459010C9459010C9459010C94880624
:1000C0000C9459010C9459010C9459010C94590148
:1000D0000C9459010C9459010C9459010C94590138
:1000E0000C9459010C94DE020C943E020C94B9015C
:1000F0000C945B070C940B030C94E5020C94110315
:100100000C94AB010C94C4020C9403030C94EB020A
:100110000C9415030C945B010C94F9020C94880167
:100120000C94E2020C94FD020C94F5020C949701DD
:100130000C94F1010C94DA020C94BF020C94D602D8
:100140000C9407030C94EF02000021002400270008
:100150002A002D00300033000101000004010701D6
:100160000A0100002200250028002B002E0031008B
:10017000340002010000050108010B010505050519
:10018000070508080808020202020A0A080804040F
:10019000040401010101010101010303030303033D
:1001A0000303040707070C0C0C0C0C0C0C0C0202CC
:1001B000020206060606060606060B0B0B0B0B0BC9
:1001C0000B0B010210202008081020401020408056
:1001D000020102010804020101020408102040800B
:1001E0008040201008040201800402018040201099
:1001F00008040201080402010102040810204080E2
:10020000010204081020408000000A0B02090C0DB6
:100210000E080703040100000000000000000000B9
:1002200000000000000000000000000000000000CE
:10023000000000001211100000000000000000008B
:1002400000000000000000000000000000005B074C
:1002500011241FBECFEFD1E2DEBFCDBF00E00CBF47
:1002600012E0A0E0B2E0EEECF2E100E00BBF02C071
:1002700007900D92A034B107D9F723E0A0E4B2E0D3
:1002800001C01D92A938B207E1F711E0C8E2D1E040
:1002900000E006C021970109802FFE010E945D0940
:1002A000C732D10780E00807A9F70E9497070C948E
:1002B00065090C940000AF92BF92CF92DF92EF924B
:1002C000FF920F931F93CF93DF936C017B018B0100
:1002D000040F151FEB015E01AE18BF08C017D10750
:1002E00059F06991D601ED91FC910190F081E02DDA
:1002F000C6011995892B79F7C501DF91CF911F911F
:100300000F91FF90EF90DF90CF90BF90AF90089546
:10031000FC01538D448D252F30E0842F90E0821B0B
:10032000930B541710F0CF96089501970895FC0190
:10033000918D828D981761F0A28DAE0FBF2FB11DE8
:100340005D968C91928D9F5F9F73928F90E0089540
:100350008FEF9FEF0895FC01918D828D981731F0FA
:10036000828DE80FF11D858D90E008958FEF9FEF4E
:100370000895FC01918D228D892F90E0805C9F4F24
:10038000821B91098F739927089580EE92E00E9455
:10039000B90121E0892B09F420E0822F0895FC01A6
:1003A000A48DA80FB92FB11DA35ABF4F2C91848DD6
:1003B00090E001968F739927848FA689B7892C9333
:1003C000A089B1898C91837080648C93938D848D86
:1003D000981306C00288F389E02D80818F7D808389
:1003E0000895EF92FF920F931F93CF93DF93EC0149
:1003F00081E0888F9B8D8C8D98131AC0E889F989CC
:10040000808185FF15C09FB7F894EE89FF896083CE
:10041000E889F98980818370806480839FBF81E04F
:1004200090E0DF91CF911F910F91FF90EF90089591
:10043000F62E0B8D10E00F5F1F4F0F731127E02E6C
:100440008C8D8E110CC00FB607FCFACFE889F989A4
:10045000808185FFF5CFCE010E94CF01F1CFEB8DDA
:10046000EC0FFD2FF11DE35AFF4FF0829FB7F89478
:100470000B8FEA89FB8980818062CFCFCF93DF9396
:10048000EC01888D8823B9F0AA89BB89E889F989AC
:100490008C9185FD03C0808186FD0DC00FB607FCE1
:1004A000F7CF8C9185FFF2CF808185FFEDCFCE0114
:1004B0000E94CF01E9CFDF91CF91089580E090E0D5
:1004C000892B29F00E94C50181110E94000080E063
:1004D00090E0892B49F080E090E0892B29F00E9480
:1004E000000081110E94000080E090E0892B49F01B
:1004F00080E090E0892B29F00E94000081110E9489
:10050000000080E090E0892B49F080E090E0892BAA
:1005100029F00E94000081110C9400000895282FFA
:1005200030E0F901E85FFD4F9491F901EE53FE4F81
:10053000449124583E4FF9012491222309F435C0F7
:10054000992311F191509231F8F4E92FF0E08827C6
:10055000E355FD4F8F4F0C945D09DE02E202BF02AE
:10056000D602DA02C402E502EB02EF02F502F9025A
:10057000FD0203030703C4020B031103150380915B
:1005800080008F7780938000E22FF0E0EE0FFF1F56
:10059000EE59FE4FA591B4918FB7F894EC9161118B
:1005A00048C040954E234C938FBF089580918000A2
:1005B0008F7DE8CF80918000877FE4CF84B58F77EF
:1005C00084BDE2CF84B58F7DFBCF8091B0008F7763
:1005D0008093B000D9CF8091B0008F7DF9CF80910A
:1005E00090008F7780939000CFCF809190008F7D87
:1005F000F9CF80919000877FF5CF8091A0008F7711
:100600008093A000C1CF8091A0008F7DF9CF809111
:10061000A000877FF5CF809120018F778093200104
:10062000B3CF809120018F7DF9CF80912001877F0A
:10063000F5CF4E2BB8CF3FB7F8948091DA02909166
:10064000DB02A091DC02B091DD0226B5A89B05C0BB
:100650002F3F19F00196A11DB11D3FBFBA2FA92F41
:10066000982F8827BC01CD01620F711D811D911D3E
:1006700042E0660F771F881F991F4A95D1F70895AA
:100680008F929F92AF92BF92CF92DF92EF92FF92A2
:100690004B015C010E941B036B017C010E941B0348
:1006A0006C197D098E099F09683E7340810591058B
:1006B000A8F321E0821A9108A108B10888EEC80EBB
:1006C00083E0D81EE11CF11C81149104A104B10443
:1006D00029F7FF90EF90DF90CF90BF90AF909F9061
:1006E0008F900895CF92DF92EF92FF92CF93DF9396
:1006F000EC01603282E07807CCF5653B710514F0BF
:1007000064EB70E0898128E830E0281B310987FD1F
:100710003395220F331F220F331F6901330FEE0869
:10072000FF088A8128E532E0281B310987FD3395CF
:10073000220F331F220F331F032E000C440B550BC7
:100740002C193D094E095F09DB0177FF02C0B0E0BB
:10075000A0E00E94180924EB30E040E050E00E9445
:10076000EE08C20ED31EE41EF51EB601E881E0338A
:1007700070F5298188E890E0821B910927FD939507
:10078000880F991F880F991F681779077CF02A81B5
:1007900088E592E0821B910927FD9395880F991FA8
:1007A000880F991F681779070CF4CB010297880FFF
:1007B000991F4FB7F8942E2F30E0F901EE0FFF1F6D
:1007C000E20FF31FEB5BFD4F928381834FBFDF91FD
:1007D000CF91FF90EF90DF90CF900895CF93DF936C
:1007E000DC018C91803308F06DC0CB01FB01EE532E
:1007F000FE4F249184589E4FFC018491882399F0E8
:1008000090E0880F991FFC01E85BFE4FC591D491E1
:10081000FC01EE59FE4F859194918FB7F894E881D1
:10082000E22BE8838FBF8C91282F30E0F901EE0F87
:10083000FF1FE20FF31FEB5BFD4F962F9F7360814D
:10084000607C692B608311961C92119712961C9202
:1008500012972CE0622F0E945109829FB00111244F
:1008600030E020E0AB01420F531FFA01EE0FFF1FF3
:10087000E40FF51FEB5BFD4F908196FD16C02F5FD7
:100880003F4F2C30310571F7813001F51092800017
:1008900082E0809381001092850010928400B19ACA
:1008A00080916F00826080936F00EC918E2F90E0BA
:1008B000FC01EE0FFF1FE80FF91FEB5BFD4F80817E
:1008C000806480838C91DF91CF910895823061F4B0
:1008D00010929000809391001092950010929400D5
:1008E00088BB80937100E1CF833069F41092A0003F
:1008F00082E08093A1001092A5001092A40089BB11
:1009000080937200D2CF8111D0CF1092200182E06B
:100910008093210110922501109224018ABB8093BB
:100920007300C3CFAF92BF92CF92DF92EF92FF924C
:100930000F931F93CF93DF936B017A01EC01C05C9F
:10094000DD4F28813CE0389F8001399F100D112434
:10095000A0904402B12C27FF1FC0FB01118210821E
:1009600088818F5F888388819801280F311D87FDDA
:100970003A95F6012A153B051CF488818C30C4F1A8
:1009800080819181049680349C4908F473C0F601FB
:1009900080819181049670C088819801280F311D53
:1009A00087FD3A952A153B05DCF68881A801480F9A
:1009B000511D87FD5A95FA01EE0FFF1FE40FF51F39
:1009C000EB5BFD4F808186FFCBCF8881F801E80F7C
:1009D000F11D87FDFA95CF01EE0FFF1FE80FF91FFC
:1009E000EB5BFD4F808160E08F730E948F02B8CF78
:1009F000808191812881A801420F511D27FD5A95C0
:100A00009A01FA01EE0FFF1FE20FF31FEB5BFD4FA0
:100A100021813281820F931FF70191838083888126
:100A20009801280F311D87FD3A95F901EE0FFF1F40
:100A3000E20FF31FEB5BFD4F808186FF22C08881B0
:100A4000080F111D87FD1A95F801EE0FFF1FE00F2B
:100A5000F11FEB5BFD4F808161E08F73DF91CF91E0
:100A60001F910F91FF90EF90DF90CF90BF90AF90CC
:100A70000C948F0280E49CE9F701918380838FEFCF
:100A80008883DF91CF911F910F91FF90EF90DF90BE
:100A9000CF90BF90AF900895FC0101900020E9F73E
:100AA0003197AF01481B590BBC0180EE92E00C94CA
:100AB0005B018F929F92AF92BF92CF92DF92EF92A3
:100AC000FF920F931F93CF93DF93CDB7DEB7A1971C
:100AD0000FB6F894DEBF0FBECDBF6C01990FEE08C4
:100AE000FF08F7FE47C06DE280EE92E00E94F10140
:100AF0008C0122273327A9012C193D094E095F09D2
:100B000019A2CE0181967C019AE0892E912CA12C0C
:100B1000B12CCA01B901A50194010E942009605DB0
:100B2000F70162937F01211531054105510589F7D0
:100B300090E080E0309719F0CF010E944C05080F3B
:100B4000191F82E192E00E944C05800F911FA1962F
:100B50000FB6F894DEBF0FBECDBFDF91CF911F91CE
:100B60000F91FF90EF90DF90CF90BF90AF909F904C
:100B70008F900895A701960119A28E010F5D1F4F56
:100B80008AE0C82ED12CE12CF12CCA01B901A701B1
:100B900096010E942009605DF80162938F01211582
:100BA00031054105510589F7309729F0CF010E94A1
:100BB0004C058C01C6CF10E000E0C3CF1F920F920E
:100BC0000FB60F9211240BB60F922F933F934F93B2
:100BD0005F936F937F938F939F93AF93BF93EF93A5
:100BE000FF9380EE92E00E94CF01FF91EF91BF91C1
:100BF000AF919F918F917F916F915F914F913F91B5
:100C00002F910F900BBE0F900FBE0F901F90189555
:100C10001F920F920FB60F9211240BB60F922F93C3
:100C20008F939F93EF93FF93E091F002F091F10285
:100C30008081E091F602F091F70282FD1DC0908163
:100C40008091F9028F5F8F732091FA02821741F031
:100C5000E091F902F0E0E052FD4F958F8093F902A8
:100C6000FF91EF919F918F912F910F900BBE0F905D
:100C70000FBE0F901F9018958081F2CF1F920F9298
:100C80000FB60F9211242F933F938F939F93AF939F
:100C9000BF938091D6029091D702A091D802B091D3
:100CA000D9023091D50223E0230F2D3758F5019654
:100CB000A11DB11D2093D5028093D6029093D70237
:100CC000A093D802B093D9028091DA029091DB020E
:100CD000A091DC02B091DD020196A11DB11D8093AF
:100CE000DA029093DB02A093DC02B093DD02BF91A5
:100CF000AF919F918F913F912F910F900FBE0F90C9
:100D00001F90189526E8230F0296A11DB11DD2CF82
:100D10001F920F920FB60F9211240BB60F922F93C2
:100D20003F934F935F936F937F938F939F93AF9373
:100D3000BF93EF93FF9348E251E064E271E090E0EB
:100D400080E00E949204FF91EF91BF91AF919F913B
:100D50008F917F916F915F914F913F912F910F9064
:100D60000BBE0F900FBE0F901F9018951F920F9201
:100D70000FB60F9211240BB60F922F933F934F9300
:100D80005F936F937F938F939F93AF93BF93EF93F3
:100D9000FF9348EA50E064EA70E083E090E00E944C
:100DA0009204FF91EF91BF91AF919F918F917F91AD
:100DB0006F915F914F913F912F910F900BBE0F90CC
:100DC0000FBE0F901F9018951F920F920FB60F92A3
:100DD00011240BB60F922F933F934F935F936F9312
:100DE0007F938F939F93AF93BF93EF93FF9348E9C4
:100DF00050E064E970E082E090E00E949204FF918C
:100E0000EF91BF91AF919F918F917F916F915F9182
:100E10004F913F912F910F900BBE0F900FBE0F90EF
:100E20001F9018951F920F920FB60F9211240BB6B8
:100E30000F922F933F934F935F936F937F938F9373
:100E40009F93AF93BF93EF93FF9348E850E064E81C
:100E500070E081E090E00E949204FF91EF91BF91D9
:100E6000AF919F918F917F916F915F914F913F9142
:100E70002F910F900BBE0F900FBE0F901F901895E3
:100E8000FC0190914402903398F481E0890F8093A3
:100E900044029083892F90E0FC01EE0FFF1FE80FC2
:100EA000F91FEB5BFD4F88EB9BE0928381830895F4
:100EB0008FEF80830895E0EEF2E01382128288EED5
:100EC00093E0A0E0B0E084839583A683B78384E0B9
:100ED00092E09183808385EC90E09587848784EC11
:100EE00090E09787868780EC90E0918B808B81ECF7
:100EF00090E0938B828B82EC90E0958B848B86ECD8
:100F000090E0978B868B118E128E138E148E86E84E
:100F100093E00E94400783E893E00E94400780E846
:100F200093E00E9440078DE793E00C94400778948B
:100F300084B5826084BD84B5816084BD85B58260DE
:100F400085BD85B5816085BD80916E00816080938F
:100F50006E001092810080918100826080938100F8
:100F60008091810081608093810080918000816008
:100F7000809380008091B10084608093B100809163
:100F8000B00081608093B000809191008260809376
:100F900091008091910081608093910080919000F8
:100FA0008160809390008091A10082608093A10075
:100FB0008091A10081608093A1008091A000816058
:100FC0008093A00080912101826080932101809113
:100FD00021018160809321018091200181608093B3
:100FE000200180917A00846080937A0080917A0059
:100FF000826080937A0080917A00816080937A0089
:1010000080917A00806880937A001092C100E0910C
:10101000F002F091F10282E08083E091EC02F09125
:10102000ED021082E091EE02F091EF0280E1808308
:101030001092F802E091F402F091F50286E08083CC
:10104000E091F202F091F302808180618083E0916F
:10105000F202F091F302808188608083E091F202D5
:10106000F091F302808180688083E091F202F09138
:10107000F30280818F7D808366E070E086E893E0F4
:101080000E94EE0367E070E083E893E00E94EE03C5
:1010900068E070E080E893E00E94EE0369E070E0B1
:1010A0008DE793E00E94EE0304EB10E085E192E00F
:1010B0000E944C0582E192E00E944C051092DF02F2
:1010C0001092DE02C091DE02D091DF02C53BD10555
:1010D00074F5BE0186E893E00E947203BE0183E8C6
:1010E00093E00E947203BE0180E893E00E947203C5
:1010F000BE018DE793E00E94720381E292E00E94BC
:101100004C058091DE029091DF020E9459056FE04C
:1011100070E080E090E00E9440038091DE029091B8
:10112000DF0201969093DF028093DE02CBCF82E153
:1011300092E00E944C0564EF71E080E090E00E9434
:10114000400383E392E00E944C0582E192E00E941A
:101150004C051093DF020093DE02C091DE02D091B5
:10116000DF02D7FD2EC0BE0186E893E00E94720325
:10117000BE0183E893E00E947203BE0180E893E021
:101180000E947203BE018DE793E00E94720381E228
:1011900092E00E944C058091DE029091DF020E9455
:1011A00059056FE070E080E090E00E94400380917C
:1011B000DE029091DF0201979093DF028093DE02BE
:1011C000CCCF82E192E00E944C0564EF71E080E0B8
:1011D00090E00E9440030E945E0268CF052E97FBBC
:1011E0001EF400940E94050957FD07D00E942009B3
:1011F00007FC03D04EF40C940509509540953095AA
:1012000021953F4F4F4F5F4F089590958095709572
:1012100061957F4F8F4F9F4F08950E944209A59F70
:10122000900DB49F900DA49F800D911D11240895E1
:10123000B7FF0C940D090E940D09821B930B0895B2
:10124000A1E21A2EAA1BBB1BFD010DC0AA1FBB1FCA
:10125000EE1FFF1FA217B307E407F50720F0A21B3C
:10126000B30BE40BF50B661F771F881F991F1A94A9
:1012700069F760957095809590959B01AC01BD01D3
:10128000CF010895A29FB001B39FC001A39F700D2D
:10129000811D1124911DB29F700D811D1124911D7E
:1012A0000895991B79E004C0991F961708F0961BC2
:1012B000881F7A95C9F780950895EE0FFF1F881F44
:0E12C0008BBF0790F691E02D1994F894FFCFA4
:1012CE0000000000F1015B0188013E02B9019701A7
:1012DE00AB010D0A00446972656374696F6E20314B
:1012EE000043757272656E7420506F736974696F06
:1012FE006E2000446972656374696F6E203200005F
:00000001FF
