:100000000C944A010C947B010C947B010C947B01B1
:100010000C947B010C947B010C947B010C947B0170
:100020000C947B010C947B010C947B010C947B0160
:100030000C947B010C947B010C947B010C947B0150
:100040000C947B010C947B010C947B010C947B0140
:100050000C947B010C947B010C947B010C94C404E4
:100060000C947B010C948E040C9464040C947B011E
:100070000C947B010C947B010C947B010C947B0110
:100080000C947B010C947B010C947B010C947B0100
:100090000C947B010C947B010C947B010C947B01F0
:1000A0000C947B010C947B010C947B010C947B01E0
:1000B0000C947B010C947B010C947B010C947B01D0
:1000C0000C947B010C947B010C947B010C947B01C0
:1000D0000C947B010C947B010C947B010C947B01B0
:1000E0000C947B010C944C030C94C9010C940003F8
:1000F0000C9448030C942D040C941B030C943E03A5
:100100000C94AA030C9419040C9417030C94560332
:100110000C947F020C94EC010C94B4030C949C019D
:100120000C94B3060C9432020C94C6030C942C036A
:100130000C9426030C94D8030C949B030C94050395
:100140000C941F030C94FB030C94EC030C943603E7
:100150000C9405040C94BE030C9493030C94230498
:100160000C94FA010C94E2030C9430030C944403B5
:100170000C94D8010C94A0030C943A030C940F0433
:100180000C9423030C94CE030C94520300000A0B2E
:1001900002090C0D0E080703040100000000000016
:1001A000000000000000000000000000000000004F
:1001B000000000000000000012111000000000000C
:1001C000000000000000000000000000000000002F
:1001D000000000002200250028002B002E00310026
:1001E000340002010000050108010B01000021009C
:1001F000240027002A002D003000330001010000F8
:10020000040107010A010505050507050808080896
:10021000020202020A0A080804040404010101019E
:100220000101010103030303030303030407070799
:100230000C0C0C0C0C0C0C0C02020202060606063E
:10024000060606060B0B0B0B0B0B0B0B010210200B
:1002500020080810204010204080020102010804FC
:100260000201010204081020408080402010080490
:1002700002018004020180402010080402010804E9
:10028000020101020408102040800102040810202D
:100290004080B30611241FBECFEFD1E2DEBFCDBF39
:1002A00000E00CBF12E0A0E0B2E0E8E1FEE000E018
:1002B0000BBF02C007900D92A233B107D9F722E01D
:1002C000A2E3B2E001C01D92A83DB207E1F711E040
:1002D000CAE4D1E000E006C021970109802FFE01A9
:1002E0000E940207C934D10780E00807A9F70E94DD
:1002F0000E050C940A070C94000090E0FC01E45BEE
:10030000FD4F24918A5F9D4FFC018491882399F0D1
:1003100090E0880F991FFC01E451FE4FA591B49124
:10032000FC01EE52FE4F859194918FB7F894EC91B9
:10033000E22BEC938FBF0895AF92BF92CF92DF92E2
:10034000EF92FF920F931F93CF93DF936C017B018A
:100350008B01040F151FEB015E01AE18BF08C0171B
:10036000D10759F06991D601ED91FC910190F0818E
:10037000E02DC6011995892B79F7C501DF91CF9141
:100380001F910F91FF90EF90DF90CF90BF90AF90B3
:100390000895FC01538D448D252F30E0842F90E08B
:1003A000821B930B541710F0CF9608950197089570
:1003B000FC01918D828D981761F0A28DAE0FBF2F39
:1003C000B11D5D968C91928D9F5F9F73928F90E08F
:1003D00008958FEF9FEF0895FC01918D828D9817FE
:1003E00031F0828DE80FF11D858D90E008958FEF3B
:1003F0009FEF0895FC01918D228D892F90E0805C04
:100400009F4F821B91098F73992708958BE392E088
:100410000E94FA0121E0892B09F420E0822F08953F
:10042000FC01A48DA80FB92FB11DA35ABF4F2C9169
:10043000848D90E001968F739927848FA689B78960
:100440002C93A089B1898C91837080648C93938D57
:10045000848D981306C00288F389E02D80818F7DFA
:1004600080830895EF92FF920F931F93CF93DF93B2
:10047000EC0181E0888F9B8D8C8D98131AC0E889E0
:10048000F989808185FF15C09FB7F894EE89FF89AF
:100490006083E889F98980818370806480839FBF4D
:1004A00081E090E0DF91CF911F910F91FF90EF904D
:1004B0000895F62E0B8D10E00F5F1F4F0F7311275D
:1004C000E02E8C8D8E110CC00FB607FCFACFE88998
:1004D000F989808185FFF5CFCE010E941002F1CF0E
:1004E000EB8DEC0FFD2FF11DE35AFF4FF0829FB70C
:1004F000F8940B8FEA89FB8980818062CFCFCF93FC
:10050000DF93EC01888D8823B9F0AA89BB89E8893B
:10051000F9898C9185FD03C0808186FD0DC00FB6E1
:1005200007FCF7CF8C9185FFF2CF808185FFEDCF5F
:10053000CE010E941002E9CFDF91CF91089580E0B3
:1005400090E0892B29F00E94060281110E94000090
:1005500080E090E0892B49F080E090E0892B29F041
:100560000E94000081110E94000080E090E0892B31
:1005700049F080E090E0892B29F00E940000811171
:100580000E94000080E090E0892B49F080E090E03C
:10059000892B29F00E94000081110C94000008951D
:1005A000282F30E0F901E457FE4F9491F901E45B04
:1005B000FD4F44912A5F3D4FF9012491222309F414
:1005C00035C0992311F191509231F8F4E92FF0E000
:1005D0008827E251FD4F8F4F0C9402071F0323031E
:1005E000000317031B03050326032C033003360304
:1005F0003A033E034403480305034C0352035603E6
:10060000809180008F7780938000E22FF0E0EE0FE2
:10061000FF1FEE52FE4FA591B4918FB7F894EC9165
:10062000611148C040954E234C938FBF089580912F
:1006300080008F7DE8CF80918000877FE4CF84B5F4
:100640008F7784BDE2CF84B58F7DFBCF8091B000E2
:100650008F778093B000D9CF8091B0008F7DF9CF94
:10066000809190008F7780939000CFCF8091900001
:100670008F7DF9CF80919000877FF5CF8091A0008A
:100680008F778093A000C1CF8091A0008F7DF9CF9C
:100690008091A000877FF5CF809120018F77809394
:1006A0002001B3CF809120018F7DF9CF809120016F
:1006B000877FF5CF4E2BB8CF1F93CF93DF93182FA3
:1006C000EB010E947D01209739F460E0812FDF91DA
:1006D000CF911F910C94D002CF3FD10511F461E06E
:1006E000F5CFE12FF0E0E457FE4FE491E150E23125
:1006F00008F0B3C0F0E08827EF57FC4F8F4F0C9401
:10070000020793039B03A003AA03B4032D04BE03B3
:10071000C603CE03D803E203EC03FB0305042D0458
:100720000F041904230484B5806884BDC7BDDF911C
:10073000CF911F91089584B5806284BDC8BDF7CF65
:1007400080918000806880938000D0938900C0935E
:100750008800EDCF80918000806280938000D093EC
:100760008B00C0938A00E3CF8091800088608093E3
:100770008000D0938D00C0938C00D9CF8091B000C1
:1007800080688093B000C093B300D1CF8091B00057
:1007900080628093B000C093B400C9CF8091900074
:1007A000806880939000D0939900C0939800BFCF49
:1007B00080919000806280939000D0939B00C093C2
:1007C0009A00B5CF80919000886080939000D0937C
:1007D0009D00C0939C00ABCF8091A0008068809367
:1007E000A0008091A0008F7B8093A000D093A900EF
:1007F000C093A8009CCF8091A00080628093A0004D
:10080000D093AB00C093AA0092CF8091A0008860E3
:100810008093A000D093AD00C093AC0088CF8091AE
:100820002001806880932001D0932901C093280182
:100830007ECF80912001806280932001D0932B0194
:10084000C0932A0174CF8091200188608093200199
:10085000D0932D01C0932C016ACFC038D1050CF084
:100860003ECF33CF3FB7F894809137029091380252
:10087000A0913902B0913A0226B5A89B05C02F3F3E
:1008800019F00196A11DB11D3FBFBA2FA92F982FB6
:100890008827BC01CD01620F711D811D911D42E0B1
:1008A000660F771F881F991F4A95D1F70895FC019D
:1008B00001900020E9F73197AF01481B590BBC01AB
:1008C0008BE392E00C949C011F920F920FB60F9253
:1008D00011240BB60F922F933F934F935F936F9317
:1008E0007F938F939F93AF93BF93EF93FF938BE38C
:1008F00092E00E941002FF91EF91BF91AF919F9102
:100900008F917F916F915F914F913F912F910F90B8
:100910000BBE0F900FBE0F901F9018951F920F9255
:100920000FB60F9211240BB60F922F938F939F93B4
:10093000EF93FF93E0914B02F0914C028081E091A4
:100940005102F091520282FD1DC0908180915402AB
:100950008F5F8F7320915502821741F0E09154020E
:10096000F0E0E55CFD4F958F80935402FF91EF918D
:100970009F918F912F910F900BBE0F900FBE0F90F4
:100980001F9018958081F2CF1F920F920FB60F9291
:1009900011242F933F938F939F93AF93BF93809195
:1009A000330290913402A0913502B0913602309119
:1009B000320223E0230F2D3758F50196A11DB11DFA
:1009C000209332028093330290933402A093350235
:1009D000B09336028091370290913802A09139028B
:1009E000B0913A020196A11DB11D809337029093F8
:1009F0003802A0933902B0933A02BF91AF919F9110
:100A00008F913F912F910F900FBE0F901F901895CF
:100A100026E8230F0296A11DB11DD2CFCF93DF93FD
:100A2000CDB7DEB7A1970FB6F894DEBF0FBECDBF2E
:100A3000789484B5826084BD84B5816084BD85B5B9
:100A4000826085BD85B5816085BD80916E008160C5
:100A500080936E001092810080918100826080936B
:100A6000810080918100816080938100809180006D
:100A70008160809380008091B10084608093B10098
:100A80008091B00081608093B0008091910082607D
:100A9000809391008091910081608093910080917A
:100AA00090008160809390008091A100826080938B
:100AB000A1008091A10081608093A1008091A0009D
:100AC00081608093A0008091210182608093210148
:100AD00080912101816080932101809120018160BA
:100AE0008093200180917A00846080937A008091C5
:100AF0007A00826080937A0080917A00816080938E
:100B00007A0080917A00806880937A001092C10008
:100B1000E0914B02F0914C0282E08083E091470229
:100B2000F09148021082E0914902F0914A0280E17E
:100B3000808310925302E0914F02F091500286E0C0
:100B40008083E0914D02F0914E028081806180832C
:100B5000E0914D02F0914E02808188608083E091A7
:100B60004D02F0914E02808180688083E0914D02B9
:100B7000F0914E0280818F7D808389E20E947D0109
:100B800088E20E947D0180E30E947D018FE20E9445
:100B90007D018BE20E947D018AE20E947D018FE04F
:100BA0000E947D018EE00E947D0181E10E947D0115
:100BB00080E10E947D018EE30E947D018FE30E940F
:100BC0007D0185E00E947D0182E00E947D0183E03D
:100BD0000E947D018BE00E947D018CE00E947D01DE
:100BE0008DE00E947D0170E060E085E00E945C0382
:100BF00070E060E082E00E945C0370E060E083E00F
:100C00000E945C0370E060E08BE00E945C0370E097
:100C100060E08CE00E945C0370E060E08DE00E9488
:100C20005C0382E192E00E94570482E292E00E941B
:100C3000570460E089E20E94D00261E088E20E94ED
:100C4000D00260E080E30E94D00261E08FE20E9467
:100C5000D00260E08BE20E94D00261E08AE20E9452
:100C6000D00260E08FE00E94D00261E08EE00E943E
:100C7000D00260E081E10E94D00261E080E10E9448
:100C8000D00260E08EE30E94D00261E08FE30E9418
:100C9000D002312C9AE0492E512C612C712C85E226
:100CA00092E00E945704232D30E050E040E019A26A
:100CB0008E010F5D1F4FCA01B901A30192010E946D
:100CC000E006605DF80162938F0121153105410551
:100CD000510589F7309719F0CF010E94570482E23D
:100CE00092E00E945704032D10E0B80185E00E94B5
:100CF0005C03B80182E00E945C03B80183E00E94BB
:100D00005C03B8018BE00E945C03B8018CE00E9498
:100D10005C03B8018DE00E945C030E9432046B0109
:100D20007C018AE0882E912CA12CB12C0E943204E7
:100D30006C197D098E099F09683E734081059105F4
:100D4000A8F3F1E08F1A9108A108B10828EEC20EAD
:100D500023E0D21EE11CF11C81149104A104B10412
:100D600029F733949CCFEBE3F2E01382128288EEF2
:100D700093E0A0E0B0E084839583A683B78384E00A
:100D800092E09183808385EC90E09587848784EC62
:100D900090E09787868780EC90E0918B808B81EC48
:100DA00090E0938B828B82EC90E0958B848B86EC29
:100DB00090E0978B868B118E128E138E148E089571
:100DC000A1E21A2EAA1BBB1BFD010DC0AA1FBB1F4F
:100DD000EE1FFF1FA217B307E407F50720F0A21BC1
:100DE000B30BE40BF50B661F771F881F991F1A942E
:100DF00069F760957095809590959B01AC01BD0158
:100E0000CF010895EE0FFF1F881F8BBF0790F6914B
:080E1000E02D1994F894FFCFC6
:100E18000000000032029C01C9017F02FA01D801DA
:100E2800EC014D6F746F7273204361736520312F2D
:100E380034000D0A0043757272656E742050574D68
:020E4800200088
:00000001FF
