:100000000C9428010C9459010C9459010C94590139
:100010000C9459010C9459010C9459010C945901F8
:100020000C9459010C9459010C9459010C945901E8
:100030000C9459010C9459010C9459010C945901D8
:100040000C9459010C9459010C9459010C945901C8
:100050000C9459010C9459010C9459010C943104DD
:100060000C9459010C94FB030C94D1030C9459018A
:100070000C9459010C9459010C9459010C94590198
:100080000C9459010C9459010C9459010C94590188
:100090000C9459010C9459010C9459010C94590178
:1000A0000C9459010C9459010C9459010C94590168
:1000B0000C9459010C9459010C9459010C94590158
:1000C0000C9459010C9459010C9459010C94590148
:1000D0000C9459010C9459010C9459010C94590138
:1000E0000C9459010C94EB020C940B030C94F10149
:1000F0000C9497010C9488010C94AB010C9415039B
:100100000C94F9020C94E5020C9411030C94DE0299
:100110000C94E2020C94C4020C94BF020C94CA0525
:100120000C945B010C94D6020C943E020C94F502E4
:100130000C94FD020C94EF020C9407030C9403033F
:100140000C94DA020C94B90100000A0B02090C0DA0
:100150000E0807030401000000000000000000007A
:10016000000000000000000000000000000000008F
:10017000000000001211100000000000000000004C
:10018000000000000000000000000000000000006F
:100190002200250028002B002E003100340002012F
:1001A0000000050108010B010000210024002700C8
:1001B0002A002D0030003300010100000401070176
:1001C0000A010505050507050808080802020202DC
:1001D0000A0A0808040404040101010101010101E3
:1001E0000303030303030303040707070C0C0C0CAE
:1001F0000C0C0C0C02020202060606060606060697
:100200000B0B0B0B0B0B0B0B010210202008081023
:100210002040102040800201020108040201010276
:10022000040810204080804020100804020180044F
:1002300002018040201008040201080402010102AA
:100240000408102040800102040810204080CA05E4
:1002500011241FBECFEFD1E2DEBFCDBF00E00CBF47
:1002600012E0A0E0B2E0E6E4FCE000E00BBF02C078
:1002700007900D92A634B107D9F722E0A6E4B2E0C8
:1002800001C01D92AC3EB207E1F711E0C8E2D1E037
:1002900000E006C021970109802FFE010E94190687
:1002A000C732D10780E00807A9F70E947B040C94AD
:1002B00021060C940000AF92BF92CF92DF92EF9292
:1002C000FF920F931F93CF93DF936C017B018B0100
:1002D000040F151FEB015E01AE18BF08C017D10750
:1002E00059F06991D601ED91FC910190F081E02DDA
:1002F000C6011995892B79F7C501DF91CF911F911F
:100300000F91FF90EF90DF90CF90BF90AF90089546
:10031000FC01538D448D252F30E0842F90E0821B0B
:10032000930B541710F0CF96089501970895FC0190
:10033000918D828D981761F0A28DAE0FBF2FB11DE8
:100340005D968C91928D9F5F9F73928F90E0089540
:100350008FEF9FEF0895FC01918D828D981731F0FA
:10036000828DE80FF11D858D90E008958FEF9FEF4E
:100370000895FC01918D228D892F90E0805C9F4F24
:10038000821B91098F73992708958FE492E00E9450
:10039000B90121E0892B09F420E0822F0895FC01A6
:1003A000A48DA80FB92FB11DA35ABF4F2C91848DD6
:1003B00090E001968F739927848FA689B7892C9333
:1003C000A089B1898C91837080648C93938D848D86
:1003D000981306C00288F389E02D80818F7D808389
:1003E0000895EF92FF920F931F93CF93DF93EC0149
:1003F00081E0888F9B8D8C8D98131AC0E889F989CC
:10040000808185FF15C09FB7F894EE89FF896083CE
:10041000E889F98980818370806480839FBF81E04F
:1004200090E0DF91CF911F910F91FF90EF90089591
:10043000F62E0B8D10E00F5F1F4F0F731127E02E6C
:100440008C8D8E110CC00FB607FCFACFE889F989A4
:10045000808185FFF5CFCE010E94CF01F1CFEB8DDA
:10046000EC0FFD2FF11DE35AFF4FF0829FB7F89478
:100470000B8FEA89FB8980818062CFCFCF93DF9396
:10048000EC01888D8823B9F0AA89BB89E889F989AC
:100490008C9185FD03C0808186FD0DC00FB607FCE1
:1004A000F7CF8C9185FFF2CF808185FFEDCFCE0114
:1004B0000E94CF01E9CFDF91CF91089580E090E0D5
:1004C000892B29F00E94C50181110E94000080E063
:1004D00090E0892B49F080E090E0892B29F00E9480
:1004E000000081110E94000080E090E0892B49F01B
:1004F00080E090E0892B29F00E94000081110E9489
:10050000000080E090E0892B49F080E090E0892BAA
:1005100029F00E94000081110C9400000895282FFA
:1005200030E0F901E85BFE4F9491F901E85FFD4F7F
:1005300044912E533E4FF9012491222309F435C0F2
:10054000992311F191509231F8F4E92FF0E08827C6
:10055000E355FD4F8F4F0C941906DE02E202BF02F5
:10056000D602DA02C402E502EB02EF02F502F9025A
:10057000FD0203030703C4020B031103150380915B
:1005800080008F7780938000E22FF0E0EE0FFF1F56
:10059000E257FE4FA591B4918FB7F894EC91611199
:1005A00048C040954E234C938FBF089580918000A2
:1005B0008F7DE8CF80918000877FE4CF84B58F77EF
:1005C00084BDE2CF84B58F7DFBCF8091B0008F7763
:1005D0008093B000D9CF8091B0008F7DF9CF80910A
:1005E00090008F7780939000CFCF809190008F7D87
:1005F000F9CF80919000877FF5CF8091A0008F7711
:100600008093A000C1CF8091A0008F7DF9CF809111
:10061000A000877FF5CF809120018F778093200104
:10062000B3CF809120018F7DF9CF80912001877F0A
:10063000F5CF4E2BB8CF3FB7F89480914B029091F5
:100640004C02A0914D02B0914E0226B5A89B05C068
:100650002F3F19F00196A11DB11D3FBFBA2FA92F41
:10066000982F8827BC01CD01620F711D811D911D3E
:1006700042E0660F771F881F991F4A95D1F70895AA
:100680008F929F92AF92BF92CF92DF92EF92FF92A2
:100690004B015C010E941B036B017C010E941B0348
:1006A0006C197D098E099F09683E7340810591058B
:1006B000A8F321E0821A9108A108B10888EEC80EBB
:1006C00083E0D81EE11CF11C81149104A104B10443
:1006D00029F7FF90EF90DF90CF90BF90AF909F9061
:1006E0008F900895FC0101900020E9F73197AF0148
:1006F000481B590BBC018FE492E00C945B018F9274
:100700009F92AF92BF920F931F93CF93DF93CDB77A
:10071000DEB7A1970FB6F894DEBF0FBECDBF19A20A
:10072000423008F44AE08E010F5D1F4F842E912C59
:10073000B12CA12CA50194010E94F705E62FB90167
:10074000CA01EA30F4F4E05DD801EE938D01232B69
:10075000242B252B79F790E080E0109719F0CD013C
:100760000E947203A1960FB6F894DEBF0FBECDBFF4
:10077000DF91CF911F910F91BF90AF909F908F907D
:100780000895E95CE1CFCF93DF930E947203EC01FF
:100790008AE192E00E9472038C0F9D1FDF91CF913E
:1007A00008951F920F920FB60F9211240BB60F925D
:1007B0002F933F934F935F936F937F938F939F9369
:1007C000AF93BF93EF93FF938FE492E00E94CF012A
:1007D000FF91EF91BF91AF919F918F917F916F9119
:1007E0005F914F913F912F910F900BBE0F900FBED5
:1007F0000F901F9018951F920F920FB60F92112411
:100800000BB60F922F938F939F93EF93FF93E091EB
:100810005F02F09160028081E0916502F0916602D2
:1008200082FD1DC09081809168028F5F8F7320913F
:100830006902821741F0E0916802F0E0E15BFD4F50
:10084000958F80936802FF91EF919F918F912F91E7
:100850000F900BBE0F900FBE0F901F9018958081C8
:10086000F2CF1F920F920FB60F9211242F933F9346
:100870008F939F93AF93BF938091470290914802CB
:10088000A0914902B0914A023091460223E0230F21
:100890002D3758F50196A11DB11D20934602809376
:1008A000470290934802A0934902B0934A02809174
:1008B0004B0290914C02A0914D02B0914E020196D4
:1008C000A11DB11D80934B0290934C02A0934D0249
:1008D000B0934E02BF91AF919F918F913F912F9115
:1008E0000F900FBE0F901F90189526E8230F0296C9
:1008F000A11DB11DD2CF789484B5826084BD84B52A
:10090000816084BD85B5826085BD85B5816085BD0A
:1009100080916E00816080936E00109281008091C2
:10092000810082608093810080918100816080934A
:100930008100809180008160809380008091B1006F
:1009400084608093B1008091B00081608093B0009A
:1009500080919100826080939100809191008160EC
:1009600080939100809190008160809390008091AD
:10097000A10082608093A1008091A100816080939A
:10098000A1008091A00081608093A000809121014E
:1009900082608093210180912101816080932101F7
:1009A0008091200181608093200180917A00846091
:1009B00080937A0080917A00826080937A0080919F
:1009C0007A00816080937A0080917A0080688093B9
:1009D0007A001092C100E0915F02F091600282E023
:1009E0008083E0915B02F0915C021082E0915D02F5
:1009F000F0915E0280E1808310926702E0916302D1
:100A0000F091640286E08083E0916102F0916202DD
:100A1000808180618083E0916102F0916202808137
:100A200088608083E0916102F09162028081806839
:100A30008083E0916102F091620280818F7D8083EA
:100A4000C2E1D2E0C12CD12C76018991282F30E06F
:100A5000F901E85FFD4F94912E533E4FF901249127
:100A6000222399F030E0220F331FF901E855FE4FA1
:100A7000A591B491F901E257FE4F259134912FB71A
:100A8000F894EC919E2B9C932FBF60E00E948F0204
:100A90008DE192E00E9472034AE0C701B6010E9414
:100AA0007F0382E292E00E94C303FFEFCF1ADF0AC6
:100AB000EF0AFF0A88E0C816D104E104F10409F046
:100AC000C4CF8AE192E00E947203C2E1D2E0C12C5D
:100AD000D12C760161E089910E948F028DE192E034
:100AE0000E9472034AE0C701B6010E947F038FE2B1
:100AF00092E00E94C30368EC70E080E090E00E9406
:100B00004003EFEFCE1ADE0AEE0AFE0AF8E0CF1637
:100B1000D104E104F104F1F68AE192E00E9472034B
:100B200068EE73E080E090E00E944003C2E1D2E012
:100B3000C12CD12C760160E089910E948F028DE159
:100B400092E00E9472034AE0C701B6010E947F034F
:100B50008BE392E00E94C30368EC70E080E090E0D9
:100B60000E9440038FEFC81AD80AE80AF80AE8E0A2
:100B7000CE16D104E104F104F1F68AE192E00E947C
:100B8000720368EE73E080E090E00E9440030E94F0
:100B90005E029BCFEFE4F2E01382128288EE93E0D4
:100BA000A0E0B0E084839583A683B78384E092E0DD
:100BB0009183808385EC90E09587848784EC90E036
:100BC0009787868780EC90E0918B808B81EC90E01A
:100BD000938B828B82EC90E0958B848B86EC90E0FB
:100BE000978B868B118E128E138E148E0895A1E230
:100BF0001A2EAA1BBB1BFD010DC0AA1FBB1FEE1F97
:100C0000FF1FA217B307E407F50720F0A21BB30BE1
:100C1000E40BF50B661F771F881F991F1A9469F75D
:100C200060957095809590959B01AC01BD01CF01B9
:100C30000895EE0FFF1F881F8BBF0790F691E02DE0
:060C40001994F894FFCFA7
:100C460000000000F1015B0188013E02B901970135
:100C5600AB01161718191A1B1C1D0D0A004C45442A
:100C66002000204D6F6465204F5554505554002088
:100C76005374617465204849474800205374617471
:060C860065204C4F5700F1
:00000001FF
