:100000000C9435010C9466010C9466010C94660105
:100010000C9466010C9466010C9466010C946601C4
:100020000C9466010C9466010C9466010C946601B4
:100030000C9466010C9466010C9466010C946601A4
:100040000C9466010C9466010C9466010C94660194
:100050000C9466010C9466010C9466010C94660481
:100060000C9466010C9430040C9406040C94660104
:100070000C9466010C9466010C9466010C94660164
:100080000C9466010C9466010C9466010C94660154
:100090000C9466010C9466010C9466010C94660144
:1000A0000C9466010C9466010C9466010C94660134
:1000B0000C9466010C9466010C9466010C94660124
:1000C0000C9466010C9466010C9466010C94660114
:1000D0000C9466010C9466010C9466010C94660104
:1000E0000C9466010C94C8050C94EE010C94CC01A0
:1000F0000C9418030C9426020C941E030C942C03ED
:100100000C94F4020C94E0010C9448030C94280322
:100110000C9473020C940D030C943E030C94220374
:100120000C943A030C9409030C9490010C94F9027A
:100130000C9436030C94BD010C9444030C941503E9
:100140000C9430030C9411030000200023002600BF
:1001500029002C002F0032000001000003010601DD
:10016000090100000A0B02090C0D0E080703040127
:10017000000000000000000000000000000000007F
:10018000000000000000000000000000000012114C
:10019000100000000000000000000000000000004F
:1001A00000000000000000000000220025002800E0
:1001B0002B002E003100340002010000050108016F
:1001C0000B0100002100240027002A002D00300030
:1001D000330001010000040107010A0105050505BE
:1001E000070508080808020202020A0A08080404AF
:1001F00004040101010101010101030303030303DD
:100200000303040707070C0C0C0C0C0C0C0C02026B
:10021000020206060606060606060B0B0B0B0B0B68
:100220000B0B0102102020080810204010204080F5
:1002300002010201080402010102040810204080AA
:100240008040201008040201800402018040201038
:100250000804020108040201010204081020408081
:100260000102040810204080C80511241FBECFEFF2
:10027000D1E2DEBFCDBF00E00CBF12E0A0E0B2E0F3
:10028000E2E4FCE000E00BBF02C007900D92A23850
:10029000B107D9F723E0A2E8B2E001C01D92A8326D
:1002A000B207E1F711E0C5E3D1E000E006C0219715
:1002B0000109802FFE010E941706C433D10780E098
:1002C0000807A9F70E94B0040C941F060C940000C4
:1002D000CF93DF9390E0FC01EE5DFD4F24918452BB
:1002E0009E4FFC0184918823C1F090E0880F991FF4
:1002F000FC01EE53FE4FC591D491FC01E855FE4F31
:10030000A591B4919FB7F8943881822F809583236B
:100310008883EC91E22BEC939FBFDF91CF910895FE
:10032000AF92BF92CF92DF92EF92FF920F931F9303
:10033000CF93DF936C017B018B01040F151FEB0141
:100340005E01AE18BF08C017D10759F06991D601F8
:10035000ED91FC910190F081E02DC6011995892B5A
:1003600079F7C501DF91CF911F910F91FF90EF9029
:10037000DF90CF90BF90AF900895FC01538D448DD6
:10038000252F30E0842F90E0821B930B541710F040
:10039000CF96089501970895FC01918D828D98174D
:1003A00061F0A28DAE0FBF2FB11D5D968C91928D25
:1003B0009F5F9F73928F90E008958FEF9FEF089556
:1003C000FC01918D828D981731F0828DE80FF11D1F
:1003D000858D90E008958FEF9FEF0895FC01918D3A
:1003E000228D892F90E0805C9F4F821B91098F7333
:1003F000992708958BE892E00E94EE0121E0892B75
:1004000009F420E0822F0895FC01A48DA80FB92FD4
:10041000B11DA35ABF4F2C91848D90E001968F732C
:100420009927848FA689B7892C93A089B1898C914B
:10043000837080648C93938D848D981306C002889A
:10044000F389E02D80818F7D80830895EF92FF9264
:100450000F931F93CF93DF93EC0181E0888F9B8DE7
:100460008C8D98131AC0E889F989808185FF15C0A1
:100470009FB7F894EE89FF896083E889F9898081C4
:100480008370806480839FBF81E090E0DF91CF9193
:100490001F910F91FF90EF900895F62E0B8D10E0B5
:1004A0000F5F1F4F0F731127E02E8C8D8E110CC024
:1004B0000FB607FCFACFE889F989808185FFF5CF6F
:1004C000CE010E940402F1CFEB8DEC0FFD2FF11D48
:1004D000E35AFF4FF0829FB7F8940B8FEA89FB89AC
:1004E00080818062CFCFCF93DF93EC01888D88230A
:1004F000B9F0AA89BB89E889F9898C9185FD03C087
:10050000808186FD0DC00FB607FCF7CF8C9185FF6B
:10051000F2CF808185FFEDCFCE010E940402E9CFAA
:10052000DF91CF91089580E090E0892B29F00E941F
:10053000FA0181110E94000080E090E0892B49F0CF
:1005400080E090E0892B29F00E94000081110E9438
:10055000000080E090E0892B49F080E090E0892B5A
:1005600029F00E94000081110E94000080E090E0CC
:10057000892B49F080E090E0892B29F00E9400004F
:1005800081110C9400000895282F30E0F901EE59F4
:10059000FE4F9491F901EE5DFD4F449124523E4F80
:1005A000F9012491222309F477C0992311F1915084
:1005B0009231F8F4E92FF0E08827EE51FD4F8F4F8C
:1005C0000C94170611031503F40209030D03F90235
:1005D00018031E03220328032C03300336033A03B7
:1005E000F9023E0344034803809180008F77809393
:1005F0008000E22FF0E0EE0FFF1FE85BFE4FA591B9
:10060000B491EC91E42381E090E009F047C080E0F0
:100610000895809180008F7DEACF80918000877F50
:10062000E6CF84B58F7784BDE4CF84B58F7DFBCFD3
:100630008091B0008F778093B000DBCF8091B000C5
:100640008F7DF9CF809190008F7780939000D1CFEC
:10065000809190008F7DF9CF80919000877FF5CFBA
:100660008091A0008F778093A000C3CF8091A000DD
:100670008F7DF9CF8091A000877FF5CF80912001F9
:100680008F7780932001B5CF809120018F7DF9CFA6
:1006900080912001877FF5CF80E090E008953FB7FB
:1006A000F8948091870290918802A0918902B0917C
:1006B0008A0226B5A89B05C02F3F19F00196A11DFF
:1006C000B11D3FBFBA2FA92F982F8827BC01CD019C
:1006D000620F711D811D911D42E0660F771F881FFB
:1006E000991F4A95D1F70895FC0101900020E9F780
:1006F0003197AF01481B590BBC018BE892E00C9479
:1007000090018F929F92AF92BF92CF92DF92EF9221
:10071000FF920F931F93CF93DF93CDB7DEB7A197CF
:100720000FB6F894DEBF0FBECDBF6C01990FEE0877
:10073000FF08F7FE47C06DE28BE892E00E942602B8
:100740008C0122273327A9012C193D094E095F0985
:1007500019A2CE0181967C019AE0892E912CA12CC0
:10076000B12CCA01B901A50194010E94F505605D93
:10077000F70162937F01211531054105510589F784
:1007800090E080E0309719F0CF010E947403080FC9
:10079000191F82E192E00E947403800F911FA196BD
:1007A0000FB6F894DEBF0FBECDBFDF91CF911F9182
:1007B0000F91FF90EF90DF90CF90BF90AF909F9000
:1007C0008F900895A701960119A28E010F5D1F4F0A
:1007D0008AE0C82ED12CE12CF12CCA01B901A70165
:1007E00096010E94F505605DF80162938F01211565
:1007F00031054105510589F7309729F0CF010E9455
:1008000074038C01C6CF10E000E0C3CF1F920F929B
:100810000FB60F9211240BB60F922F933F934F9365
:100820005F936F937F938F939F93AF93BF93EF9358
:10083000FF938BE892E00E940402FF91EF91BF9139
:10084000AF919F918F917F916F915F914F913F9168
:100850002F910F900BBE0F900FBE0F901F90189509
:100860001F920F920FB60F9211240BB60F922F9377
:100870008F939F93EF93FF93E0919B02F0919C02E3
:100880008081E091A102F091A20282FD1DC09081C1
:100890008091A4028F5F8F732091A502821741F08F
:1008A000E091A402F0E0E557FD4F958F8093A402FC
:1008B000FF91EF919F918F912F910F900BBE0F9011
:1008C0000FBE0F901F9018958081F2CF1F920F924C
:1008D0000FB60F9211242F933F938F939F93AF9353
:1008E000BF938091830290918402A0918502B09180
:1008F00086023091820223E0230F2D3758F50196AE
:10090000A11DB11D209382028093830290938402E3
:10091000A0938502B093860280918702909188020D
:10092000A0918902B0918A020196A11DB11D809308
:10093000870290938802A0938902B0938A02BF91A4
:10094000AF919F918F913F912F910F900FBE0F907C
:100950001F90189526E8230F0296A11DB11DD2CF36
:10096000789484B5826084BD84B5816084BD85B58A
:10097000826085BD85B5816085BD80916E00816096
:1009800080936E001092810080918100826080933C
:10099000810080918100816080938100809180003E
:1009A0008160809380008091B10084608093B10069
:1009B0008091B00081608093B0008091910082604E
:1009C000809391008091910081608093910080914B
:1009D00090008160809390008091A100826080935C
:1009E000A1008091A10081608093A1008091A0006E
:1009F00081608093A0008091210182608093210119
:100A0000809121018160809321018091200181608A
:100A10008093200180917A00846080937A00809195
:100A20007A00826080937A0080917A00816080935E
:100A30007A0080917A00806880937A001092C100D9
:100A4000E0919B02F0919C0282E08083E09197020A
:100A5000F09198021082E0919902F0919A0280E15F
:100A600080831092A302E0919F02F091A00286E0A1
:100A70008083E0919D02F0919E028081806180835D
:100A8000E0919D02F0919E02808188608083E091D8
:100A90009D02F0919E02808180688083E0919D029A
:100AA000F0919E0280818F7D808385E20E946801A3
:100AB00084E20E94680183E20E94680182E20E944F
:100AC000680181E20E94680180E20E94680185E17C
:100AD00092E00E94740385E20E94C4020E94810396
:100AE00087E292E00E94740384E20E94C4020E94A2
:100AF000810389E392E00E94740383E20E94C402AE
:100B00000E9481038BE492E00E94740382E20E94BF
:100B1000C4020E9481038DE592E00E94740381E289
:100B20000E94C4020E9481038FE692E00E94740337
:100B300080E20E94C4020E94810382E192E00E944E
:100B400074030E944F034B015C0182E3C82ED12C39
:100B5000E12CF12C0E944F03681979098A099B093D
:100B6000683E734081059105A8F321E0C21AD108BF
:100B7000E108F10888EE880E83E0981EA11CB11CE4
:100B8000C114D104E104F10429F70E9493029FCF1C
:100B9000EBE8F2E01382128288EE93E0A0E0B0E08E
:100BA00084839583A683B78384E092E091838083D6
:100BB00085EC90E09587848784EC90E09787868722
:100BC00080EC90E0918B808B81EC90E0938B828B1A
:100BD00082EC90E0958B848B86EC90E0978B868BF3
:100BE000118E128E138E148E0895A1E21A2EAA1B56
:100BF000BB1BFD010DC0AA1FBB1FEE1FFF1FA217CD
:100C0000B307E407F50720F0A21BB30BE40BF50BC9
:100C1000661F771F881F991F1A9469F76095709552
:100C2000809590959B01AC01BD01CF010895EE0F19
:100C3000FF1F881F8BBF0790F691E02D1994F89441
:020C4000FFCFE4
:100C42000000000026029001BD017302EE01CC01FA
:100C5200E0010D0A00427574746F6E2030205374E7
:100C6200617465203D2000427574746F6E203120DE
:100C72005374617465203D2000427574746F6E2058
:100C820032205374617465203D2000427574746F84
:100C92006E2033205374617465203D2000427574C8
:100CA200746F6E2034205374617465203D200042BD
:100CB2007574746F6E2035205374617465203D2005
:020CC200000030
:00000001FF
