:100000000C945E000C9486000C9486000C94860080
:100010000C9486000C9486000C9486000C94A2022A
:100020000C9486000C9486000C9486000C94860038
:100030000C9486000C9486000C9486000C94860028
:100040000C9456030C9486000C9424030C94FE022A
:100050000C9486000C9486000C9486000C94860008
:100060000C9486000C948600000000080002010039
:100070000003040700000000000000000000000072
:10008000240027002A0001020408102040800102F9
:1000900004081020010204081020000000002500C0
:1000A00028002B00040404040404040402020202D5
:1000B00002020303030303030200D10611241FBE3F
:1000C000CFEFD8E0DEBFCDBF11E0A0E0B1E0ECE6BD
:1000D000F1E102C005900D92AC34B107D9F722E0EE
:1000E000ACE4B1E001C01D92A330B207E1F710E02B
:1000F000CEE5D0E004C02197FE010E949F08CD35D7
:10010000D107C9F70E94A0030C94B4080C94000016
:100110009091000189130DC0E8EBF0E0E4919FEFAE
:1001200090930001E13009F431C068F1E23009F444
:1001300033C090E0FC01E859FF4F2491FC01EA57DD
:10014000FF4F3491FC01EC55FF4FE491EE23D1F0C9
:10015000222351F0233009F43AC078F5213009F414
:100160003CC0223009F43DC0F0E0EE0FFF1FE65620
:10017000FF4FA591B4918FB7F894EC9130953E2341
:100180003C938FBF089510926E00D3CF90916F0073
:100190009D7F90936F00CDCF909170009D7F909345
:1001A000700091E09093B0009091B100987F9460BE
:1001B0009093B1001092B300BCCF2730A9F0283043
:1001C000C9F0243089F6809180008F7D03C0809132
:1001D00080008F7780938000C7CF84B58F7784BDF0
:1001E000C3CF84B58F7DFBCF8091B0008F77809394
:1001F000B000BACF8091B0008F7DF9CFAF92BF929F
:10020000CF92DF92EF92FF920F931F93CF93DF93E2
:100210006C017B018B01040F151FEB015E01AE1811
:10022000BF08C017D10759F06991D601ED91FC9133
:100230000190F081E02DC6010995892B79F7C50160
:10024000DF91CF911F910F91FF90EF90DF90CF90B2
:10025000BF90AF900895FC01538D448D252F30E061
:10026000842F90E0821B930B541710F0CF960895C3
:1002700001970895FC01918D828D981761F0A28DF0
:10028000AE0FBF2FB11D5D968C91928D9F5F9F73B6
:10029000928F90E008958FEF9FEF0895FC01918D6C
:1002A000828D981731F0828DE80FF11D858D90E0D9
:1002B00008958FEF9FEF0895FC01918D228D892F76
:1002C00090E0805C9F4F821B91098F73992708955E
:1002D00086E691E00E945C0121E0892B09F420E090
:1002E000822F089580E090E0892B29F00E94680118
:1002F00081110C9400000895FC01A48DA80FB92F62
:10030000B11DA35ABF4F2C91848D90E001968F733D
:100310009927848FA689B7892C93A089B1898C915C
:10032000837080648C93938D848D981306C00288AB
:10033000F389E02D80818F7D80830895EF92FF9275
:100340000F931F93CF93DF93EC0181E0888F9B8DF8
:100350008C8D98131AC0E889F989808185FF15C0B2
:100360009FB7F894EE89FF896083E889F9898081D5
:100370008370806480839FBF81E090E0DF91CF91A4
:100380001F910F91FF90EF900895F62E0B8D10E0C6
:100390000F5F1F4F0F731127E02E8C8D8E110CC035
:1003A0000FB607FCFACFE889F989808185FFF5CF80
:1003B000CE010E947C01F1CFEB8DEC0FFD2FF11DE2
:1003C000E35AFF4FF0829FB7F8940B8FEA89FB89BD
:1003D00080818062CFCFCF93DF93EC01888D88231B
:1003E000B9F0AA89BB89E889F9898C9185FD03C098
:1003F000808186FD0DC00FB607FCF7CF8C9185FF7D
:10040000F2CF808185FFEDCFCE010E947C01E9CF44
:10041000DF91CF9108953FB7F89480915101909169
:100420005201A0915301B091540126B5A89B05C07B
:100430002F3F19F00196A11DB11D3FBFBA2FA92F63
:10044000982F8827BC01CD01620F711D811D911D60
:1004500042E0660F771F881F991F4A95D1F70895CC
:10046000FC0101900020E9F73197AF01481B590BBF
:10047000BC0186E691E00C94FE008F929F92AF92B1
:10048000BF920F931F93CF93DF93CDB7DEB7A197A2
:100490000FB6F894DEBF0FBECDBF19A2423008F4EC
:1004A0004AE08E010F5D1F4F842E912CB12CA12CA0
:1004B000A50194010E944308E62FB901CA01EA3060
:1004C000F4F4E05DD801EE938D01232B242B252B32
:1004D00079F790E080E0109719F0CD010E9430028A
:1004E000A1960FB6F894DEBF0FBECDBFDF91CF91BE
:1004F0001F910F91BF90AF909F908F900895E95CEE
:10050000E1CFCF92DF92EF92FF92CF93DF936B0117
:100510007C016DE286E691E00E949E01EC01662777
:100520007727CB016C197D098E099F094AE00E944B
:100530003D028C0F9D1FDF91CF91FF90EF90DF90D8
:10054000CF9008951F920F920FB60F9211242F9300
:100550003F934F935F936F937F938F939F93AF934B
:10056000BF93EF93FF9380915A0190915B01A0910B
:100570005C01B0915D01892B8A2B8B2BD1F190917D
:100580005501E0915601F0915701808189278083C0
:1005900080915A0190915B01A0915C01B0915D0145
:1005A000181619061A061B069CF480915A019091A0
:1005B0005B01A0915C01B0915D010197A109B109B6
:1005C00080935A0190935B01A0935C01B0935D010D
:1005D000FF91EF91BF91AF919F918F917F916F911B
:1005E0005F914F913F912F910F900FBE0F901F90F1
:1005F0001895809100010E948800EACF1F920F9207
:100600000FB60F9211242F933F934F935F936F93E5
:100610007F938F939F93AF93BF93EF93FF9386E660
:1006200091E00E947C01FF91EF91BF91AF919F916A
:100630008F917F916F915F914F913F912F910F908B
:100640000FBE0F901F9018951F920F920FB60F922A
:1006500011242F938F939F93EF93FF93E091760153
:10066000F09177018081E0917C01F0917D0182FD24
:100670001BC0908180917F018F5F8F7320918001DB
:10068000821741F0E0917F01F0E0EA59FE4F958F2B
:1006900080937F01FF91EF919F918F912F910F9008
:1006A0000FBE0F901F9018958081F4CF1F920F926C
:1006B0000FB60F9211242F933F938F939F93AF9375
:1006C000BF9380914D0190914E01A0914F01B09147
:1006D000500130914C0123E0230F2D3758F501963E
:1006E000A11DB11D20934C0180934D0190934E01AB
:1006F000A0934F01B093500180915101909152010C
:10070000A0915301B09154010196A11DB11D809398
:10071000510190935201A0935301B0935401BF91A2
:10072000AF919F918F913F912F910F900FBE0F909E
:100730001F90189526E8230F0296A11DB11DD2CF58
:10074000CF93DF93CDB7DEB729970FB6F894DEBF0E
:100750000FBECDBF789484B5826084BD84B58160BE
:1007600084BD85B5826085BD85B5816085BD80917C
:100770006E00816080936E001092810080918100F4
:1007800082608093810080918100816080938100EC
:10079000809180008160809380008091B1008460AE
:1007A0008093B1008091B00081608093B00080910F
:1007B0007A00846080937A0080917A0082608093CE
:1007C0007A0080917A00816080937A0080917A002B
:1007D000806880937A001092C100E0917601F091D8
:1007E000770182E08083E0917201F09173011082C1
:1007F000E0917401F09175018FEC808310927E017D
:10080000E0917A01F0917B0186E08083E0917801AC
:10081000F0917901808180618083E0917801F0918D
:100820007901808188608083E0917801F09179017D
:10083000808180688083E0917801F09179018081E6
:100840008F7D808323E231E03C832B8383E191E041
:100850009A838983EB81FC8161917191FC83EB83A5
:1008600088EE93E00E942F088B012B01770F66081A
:100870007708E981FA8121903190FA83E9838091A8
:1008800000018E3009F05FC0E8EBF0E0F491F987E9
:10089000F985F7FFA8C083E391E00E943002E98167
:1008A000FA81329760817181072E000C880B990BB9
:1008B00097FF55C20E9481028CE391E00E943002B2
:1008C0008FE391E00E94300217FF4DC2C301B201D5
:1008D0000E9481028CE391E00E9430028CE391E05F
:1008E0000E943002C301B2010E94360726E636E6B6
:1008F00046EA5FE30E949A070E94FE066B01770FAB
:10090000EE08FF080E940B024B015C01C114D104E8
:10091000E104F10409F42DC20E940B02681979095F
:100920008A099B09683E73408105910578F321E0AF
:10093000C21AD108E108F10838EE830E33E0931EA5
:10094000A11CB11CE3CF8F3F09F0A5CF2EE020936F
:100950000001E8EBF0E0F491F987FF3F09F49BCF49
:10096000F13009F40FC130F1F23009F091CF10925B
:10097000B0001092B1008091B00082608093B0000E
:100980008091B10081608093B100E2EBF0E084914E
:10099000E82FF0E0EE0FFF1FE656FF4F8591949190
:1009A0009093570180935601E4E9F0E0849180939D
:1009B000550119C014BC15BC84B5826084BD85B5D1
:1009C000816085BDE2EBF0E08491E82FF0E0EE0F6E
:1009D000FF1FE656FF4F85919491E4E9F0E0849182
:1009E000809359011986E4E9F0E04491E2EBF0E0EC
:1009F0008491882399F090E0880F991FFC01E458B6
:100A0000FF4FA591B491FC01E656FF4F259134911B
:100A10008FB7F8949C91492B4C938FBF4101B12C17
:100A2000A12C60E072E18AE790E0A50191010E94AB
:100A300065082D833E834F83588769017A01F1E071
:100A4000CF1AD108E108F10889858D7F09F030C1FE
:100A50002FEFC216D104E104F10409F00CF4FDC03B
:100A600060E472E48FE090E0A50191010E946508C6
:100A700069017A0181E0C81AD108E108F108998575
:100A8000923009F09EC082E0EFEFCE16D104E1046F
:100A9000F10409F00CF46FC060E970ED83E090E0C0
:100AA000A50191010E94650869017A01F1E0CF1A60
:100AB000D108E108F10883E02FEFC216D104E10468
:100AC000F10409F00CF457C068E478EE81E090E09E
:100AD000A50191010E94650869017A01F1E0CF1A30
:100AE000D108E108F10884E02FEFC216D104E10437
:100AF000F10409F00CF43FC064E274EF80E090E090
:100B0000A50194010E94650869017A01E1E0CE1A0D
:100B1000D108E108F10885E0FFEFCF16D104E10428
:100B2000F10449F140F162E17AE780E090E0A5014B
:100B300094010E94650869017A0181E0C81AD10810
:100B4000E108F10886E09FEFC916D104E104F10441
:100B500091F088F0CD80DE80EF80F8848AE0F59413
:100B6000E794D794C7948A95D1F7E1E0CE1AD108DB
:100B7000E108F10887E09091B100987F892B80937C
:100B8000B10073C0109280001092810080918100AA
:100B900088608093810080918100816080938100D2
:100BA000E2EBF0E08491E82FF0E0EE0FFF1FE65655
:100BB000FF4F85919491E4E9F0E08491809358018E
:100BC00012CF3FEFC316D104E104F10409F00CF495
:100BD0006DC068E478EE81E090E0A50191010E948B
:100BE000650869017A0181E0C81AD108E108F108B5
:100BF000998584E0911190CF83E0EFEFCE16D10478
:100C0000E104F10471F16CF162E17AE780E090E0D7
:100C1000A50194010E94650869017A01F1E0CF1AEB
:100C2000D108E108F10884E02FEFC216D104E104F5
:100C3000F104B9F0B0F0CD80DE80EF80F8849AE066
:100C4000F594E794D794C7949A95D1F791E0C91A8F
:100C5000D108E108F10885E004C081E0398531114F
:100C60008ACF95B5987F892B85BD2FEF3FEFA901DE
:100C7000411451046104710409F042C0F985F13056
:100C800009F44BC0F23009F45AC0F11104CEC7BCCC
:100C90002093620130936301409364015093650196
:100CA00080916E00826080936E00F5CD82E0D6CF99
:100CB00091E0C114D10481E0E806F10484F068E415
:100CC00078EE81E090E0A50191010E94650869013C
:100CD0007A0191E0C91AD108E108F10893E0E985A9
:100CE000E13019F680918100887F892B8093810003
:100CF0002FEF3FEFA901411451046104710469F021
:100D00009101220F331FD8010E94840828EE33E09E
:100D100040E050E00E944308B1CFD0928900C092D9
:100D2000880020935E0130935F01409360015093EF
:100D3000610180916F00826080936F00ACCDC092A2
:100D4000B30020935A0130935B0140935C015093B0
:100D50005D01809170008260809370009CCD4AE0BC
:100D60000E943D02A9CD4AE0C301B2010E943D02AA
:100D7000B1CD8EE00E94880023E331E08B819C811D
:100D80002817390709F066CD80E090E0892B09F437
:100D900059CD0E946801882309F454CD0E940000B7
:100DA00051CDE6E6F1E01382128288EE93E0A0E0F6
:100DB000B0E084839583A683B78385E091E0918337
:100DC000808385EC90E09587848784EC90E097871A
:100DD000868780EC90E0918B808B81EC90E0938B08
:100DE000828B82EC90E0958B848B86EC90E0978BE5
:100DF000868B118E128E138E148E08950E94050715
:100E00006894B1110C94940708950E94790788F0B2
:100E10009F5798F0B92F9927B751B0F0E1F0660FBE
:100E2000771F881F991F1AF0BA95C9F714C0B130FF
:100E300091F00E949307B1E008950C949307672FF7
:100E4000782F8827B85F39F0B93FCCF3869577952E
:100E50006795B395D9F73EF4909580957095619517
:100E60007F4F8F4F9F4F0895E89409C097FB3EF442
:100E700090958095709561957F4F8F4F9F4F9923E7
:100E8000A9F0F92F96E9BB279395F6958795779565
:100E90006795B795F111F8CFFAF4BB0F11F460FF25
:100EA0001BC06F5F7F4F8F4F9F4F16C0882311F07D
:100EB00096E911C0772321F09EE8872F762F05C091
:100EC000662371F096E8862F70E060E02AF09A952C
:100ED000660F771F881FDAF7880F9695879597F921
:100EE000089557FD9058440F551F59F05F3F71F01A
:100EF0004795880F97FB991F61F09F3F79F0879581
:100F00000895121613061406551FF2CF4695F1DF09
:100F100008C0161617061806991FF1CF8695710599
:100F2000610508940895E894BB2766277727CB01CD
:100F300097F908950E94AD070C941E080E941008AE
:100F400038F00E94170820F0952311F00C94070840
:100F50000C940D0811240C9494070E94710770F3EF
:100F6000959FC1F3950F50E0551F629FF001729F4E
:100F7000BB27F00DB11D639FAA27F00DB11DAA1F5D
:100F8000649F6627B00DA11D661F829F2227B00DAA
:100F9000A11D621F739FB00DA11D621F839FA00D35
:100FA000611D221F749F3327A00D611D231F849F85
:100FB000600D211D822F762F6A2F11249F575040DC
:100FC0009AF0F1F088234AF0EE0FFF1FBB1F661F57
:100FD000771F881F91505040A9F79E3F510580F020
:100FE0000C9407080C9494075F3FE4F3983ED4F305
:100FF000869577956795B795F795E7959F5FC1F7C4
:10100000FE2B880F911D9695879597F9089597F96E
:101010009F6780E870E060E008959FEF80EC08959E
:1010200000240A94161617061806090608950024C7
:101030000A9412161306140605060895092E039441
:10104000000C11F4882352F0BB0F40F4BF2B11F4B5
:1010500060FF04C06F5F7F4F8F4F9F4F089597FBD6
:10106000072E16F4009407D077FD09D00E948B0854
:1010700007FC05D03EF4909581959F4F089570959B
:1010800061957F4F0895A1E21A2EAA1BBB1BFD019B
:101090000DC0AA1FBB1FEE1FFF1FA217B307E40757
:1010A000F50720F0A21BB30BE40BF50B661F771FAF
:1010B000881F991F1A9469F760957095809590958F
:1010C0009B01AC01BD01CF010895052E97FB1EF4D5
:1010D00000940E947C0857FD07D00E94430807FC3B
:1010E00003D04EF40C947C08509540953095219592
:1010F0003F4F4F4F5F4F0895909580957095619544
:101100007F4F8F4F9F4F08950E94A508B7FF089506
:10111000821B930B0895AA1BBB1B51E107C0AA1F9A
:10112000BB1FA617B70710F0A61BB70B881F991F88
:101130005A95A9F780959095BC01CD010895EE0FC1
:10114000FF1F0590F491E02D0994A29FB001B39F79
:10115000C001A39F700D811D1124911DB29F700DC0
:0C116000811D1124911D0895F894FFCF0B
:10116C00FF000000009E01FE002B01EB015C013A28
:10117C00014E010601C400C400DC00C4000000F7ED
:10118C000006010400080008000400040004000428
:10119C000004004E6F746520487A20000D0A00444C
:0C11AC0075726174696F6E206D73200015
:00000001FF
