:100000000C9462000C948A000C948A000C948A0070
:100010000C948A000C948A000C948A000C948A0038
:100020000C948A000C948A000C948A000C948A0028
:100030000C948A000C948A000C948A000C948A0018
:100040000C948B030C948A000C9459030C94330386
:100050000C948A000C948A000C948A000C948A00F8
:100060000C948A000C948A000000000024002700F1
:100070002A000000000023002600290000000000E4
:10008000250028002B0004040404040404040202D4
:100090000202020203030303030301020408102007
:1000A0004080010204081020010204081020000012
:1000B0000008000201000003040700000000000027
:1000C00000009D0511241FBECFEFD8E0DEBFCDBFDD
:1000D00011E0A0E0B1E0EEE6F0E102C005900D9283
:1000E000AC33B107D9F721E0ACE3B1E001C01D9218
:1000F000A63EB207E1F710E0C2E6D0E004C02197C7
:10010000FE010E942F08C136D107C9F70E941A04C8
:100110000C9435080C940000EAEBF0E02491E6EA38
:10012000F0E09491E2E9F0E0E491EE23C9F02223BB
:1001300039F0233001F1A8F4213019F1223029F1EE
:10014000F0E0EE0FFF1FE458FF4FA591B4912FB7D9
:10015000F894EC91811126C090959E239C932FBF1B
:1001600008952730A9F02830C9F0243049F72091AC
:1001700080002F7D03C0209180002F772093800086
:10018000DFCF24B52F7724BDDBCF24B52F7DFBCF68
:100190002091B0002F772093B000D2CF2091B000F3
:1001A0002F7DF9CF9E2BDACFAF92BF92CF92DF9205
:1001B000EF92FF920F931F93CF93DF936C017B011C
:1001C0008B01040F151FEB015E01AE18BF08C017AD
:1001D000D10759F06991D601ED91FC910190F08120
:1001E000E02DC6010995892B79F7C501DF91CF91E3
:1001F0001F910F91FF90EF90DF90CF90BF90AF9045
:100200000895FC01538D448D252F30E0842F90E01C
:10021000821B930B541710F0CF9608950197089501
:10022000FC01918D828D981761F0A28DAE0FBF2FCA
:10023000B11D5D968C91928D9F5F9F73928F90E020
:1002400008958FEF9FEF0895FC01918D828D98178F
:1002500031F0828DE80FF11D858D90E008958FEFCC
:100260009FEF0895FC01918D228D892F90E0805C95
:100270009F4F821B91098F739927089589E491E01C
:100280000E94320121E0892B09F420E0822F089599
:1002900080E090E0892B29F00E943E0181110C94AE
:1002A00000000895FC01A48DA80FB92FB11DA35A19
:1002B000BF4F2C91848D90E001968F739927848F86
:1002C000A689B7892C93A089B1898C9183708064A9
:1002D0008C93938D848D981306C00288F389E02D4A
:1002E00080818F7D80830895EF92FF920F931F93FB
:1002F000CF93DF93EC0181E0888F9B8D8C8D9813D9
:100300001AC0E889F989808185FF15C09FB7F894E4
:10031000EE89FF896083E889F98980818370806430
:1003200080839FBF81E090E0DF91CF911F910F917B
:10033000FF90EF900895F62E0B8D10E00F5F1F4F8A
:100340000F731127E02E8C8D8E110CC00FB607FC99
:10035000FACFE889F989808185FFF5CFCE010E9427
:100360005201F1CFEB8DEC0FFD2FF11DE35AFF4F42
:10037000F0829FB7F8940B8FEA89FB8980818062B5
:10038000CFCFCF93DF93EC01888D8823B9F0AA8972
:10039000BB89E889F9898C9185FD03C0808186FD40
:1003A0000DC00FB607FCF7CF8C9185FFF2CF80818F
:1003B00085FFEDCFCE010E945201E9CFDF91CF91B1
:1003C00008953FB7F8948091410190914201A09126
:1003D0004301B091440126B5A89B05C02F3F19F0F9
:1003E0000196A11DB11D3FBFBA2FA92F982F8827B5
:1003F000BC01CD01620F711D811D911D42E0660F90
:10040000771F881F991F4A95D1F70895FC01019025
:100410000020E9F73197AF01481B590BBC0189E473
:1004200091E00C94D4008F929F92AF92BF920F9361
:100430001F93CF93DF93CDB7DEB7A1970FB6F89494
:10044000DEBF0FBECDBF19A2423008F44AE08E01D4
:100450000F5D1F4F842E912CB12CA12CA50194016E
:100460000E940D08E62FB901CA01EA30F4F4E05DFC
:10047000D801EE938D01232B242B252B79F790E0C7
:1004800080E0109719F0CD010E940602A1960FB6E8
:10049000F894DEBF0FBECDBFDF91CF911F910F91BA
:1004A000BF90AF909F908F900895E95CE1CF4F92FD
:1004B0005F926F927F928F929F92AF92BF92CF92F4
:1004C000DF92EF92FF920F931F93CF936B017C010A
:1004D000742EAC019B010E940808882399F082E1E8
:1004E00091E0CF911F910F91FF90EF90DF90CF900F
:1004F000BF90AF909F908F907F906F905F904F9044
:100500000C94060246015701E894B7F82FEF3FEF2D
:100510004FE75FE7C501B4010E94080881110DC0D3
:100520002FEF3FEF4FE75FE7C501B4010E943706A9
:1005300018161CF486E191E0D4CF2FEF3FEF4FE780
:100540005FE4C701B6010E94960718161CF48AE101
:1005500091E0C7CF2FEF3FEF4FE75FECC701B60148
:100560000E94370687FDF3CF20E030E0A901C701E4
:10057000B6010E94370610E000E087FF0AC06DE276
:1005800089E491E00E9474018C01F7FAF094F7F885
:10059000F094C0E060E070E080E09FE37C1641F002
:1005A00020E030E040E251E40E943C06CF5FF6CF0D
:1005B000A70196010E94CB052B013C010E94B506C4
:1005C0004B015C014AE00E9413027C01E00EF11E27
:1005D000CC23C1F1C501B4010E94E4069B01AC012A
:1005E000C301B2010E94CA054B015C016EE289E4BD
:1005F00091E00E947401E80EF91EC15018F120E04C
:1006000030E040E251E4C501B4010E949B072B0198
:100610003C010E94B5064B01B12CA12C4AE0C5015A
:10062000B4010E941302E80EF91EC501B4010E9434
:10063000E4069B01AC01C301B2010E94CA054B0153
:100640005C01DBCFC701CF911F910F91FF90EF901D
:10065000DF90CF90BF90AF909F908F907F906F90E2
:100660005F904F9008951F920F920FB60F92112432
:100670002F933F934F935F936F937F938F939F93AA
:10068000AF93BF93EF93FF9389E491E00E945201EF
:10069000FF91EF91BF91AF919F918F917F916F915A
:1006A0005F914F913F912F910F900FBE0F901F9030
:1006B00018951F920F920FB60F9211242F938F93BC
:1006C0009F93EF93FF93E0915901F0915A0180813C
:1006D000E0915F01F091600182FD1BC090818091EB
:1006E00062018F5F8F7320916301821741F0E09167
:1006F0006201F0E0E75BFE4F958F80936201FF910E
:10070000EF919F918F912F910F900FBE0F901F909F
:1007100018958081F4CF1F920F920FB60F9211247B
:100720002F933F938F939F93AF93BF9380913D01FE
:1007300090913E01A0913F01B091400130913C0168
:1007400023E0230F2D3758F50196A11DB11D2093ED
:100750003C0180933D0190933E01A0933F01B093F3
:1007600040018091410190914201A0914301B091DB
:1007700044010196A11DB11D809341019093420156
:10078000A0934301B0934401BF91AF919F918F918A
:100790003F912F910F900FBE0F901F90189526E854
:1007A000230F0296A11DB11DD2CFCF92DF92EF92FF
:1007B000FF920F931F93E82FF92F05C001501109E5
:1007C0002109310961F1908196239417B9F305C08D
:1007D000015011092109310911F1908196239413D7
:1007E000F7CFC12CD12CE12CF12C0AC08FEFC81A05
:1007F000D80AE80AF80A0C151D052E053F0579F000
:1008000080818623841791F36C2D7D2D8E2D9F2D55
:100810001F910F91FF90EF90DF90CF90089560E0CF
:1008200070E080E090E01F910F91FF90EF90DF90DB
:10083000CF900895789484B5826084BD84B581603A
:1008400084BD85B5826085BD85B5816085BD80919B
:100850006E00816080936E00109281008091810013
:10086000826080938100809181008160809381000B
:10087000809180008160809380008091B1008460CD
:100880008093B1008091B00081608093B00080912E
:100890007A00846080937A0080917A0082608093ED
:1008A0007A0080917A00816080937A0080917A004A
:1008B000806880937A001092C100E0915901F09114
:1008C0005A0182E08083E0915501F0915601108237
:1008D000E0915701F09158018FEC808310926101F3
:1008E000E0915D01F0915E0186E08083E0915B0123
:1008F000F0915C01808180618083E0915B01F091E7
:100900005C01808188608083E0915B01F0915C01F3
:10091000808180688083E0915B01F0915C0180813F
:100920008F7D8083E6EAF0E02491E2E9F0E08491B3
:10093000882399F090E0880F991FFC01E859FF4F38
:10094000A591B491FC01E458FF4F859194918FB724
:10095000F894EC91E22BEC938FBFE7EAF0E024915E
:10096000E3E9F0E084918823C1F090E0880F991FBB
:10097000FC01E859FF4FA591B491FC01E458FF4FE9
:10098000C591D4913FB7F8949C91822F809598237C
:100990009C939881892388833FBF23E2222E312CA8
:1009A000C0E0D0E080E00E948C00C1010197F1F727
:1009B00081E00E948C00E7EAF0E06491E3E9F0E076
:1009C0008491E82FF0E0EE0FFF1FEE58FF4F859166
:1009D000949100E412E42FE030E0462F0E94D5030A
:1009E000611571058105910529F06F5F7F4F8F4F6C
:1009F0009F4F9F70C0904501D0904601E090470105
:100A0000F09048010E94E606A70196010E94CA05DF
:100A10002DEC3CEC4CE45EE30E949B07A7019601A1
:100A20000E94CB0560934501709346018093470176
:100A30009093480120E030E040E05FE30E949B0794
:100A40002CE53FE84AE350E40E943C060E94AE06D3
:100A50006B017C010E94E60620E030E040E251E4B8
:100A60000E943C064B015C0120E030E048EC52E47F
:100A70000E943C062B013C018EE191E00E9406029F
:100A80004AE0C701B601F7FE0DC06DE289E491E0CE
:100A90000E94740166277727CB016C197D098E09A6
:100AA0009F094AE00E94130289E291E00E94060237
:100AB00042E0C501B4010E9457028FE291E00E941A
:100AC000060242E0C301B2010E94570285E391E0B1
:100AD0000E94060288E391E00E9406020E94E10162
:100AE0004B015C0184E6C82ED12CE12CF12C0E9434
:100AF000E101681979098A099B09683E73408105FB
:100B00009105A8F3F1E0CF1AD108E108F10828EE29
:100B1000820E23E0921EA11CB11CC114D104E10479
:100B2000F10429F7209709F43DCF0E943E01882364
:100B300009F438CF0E94000035CFE9E4F1E01382D8
:100B4000128288EE93E0A0E0B0E084839583A683D0
:100B5000B78384E091E09183808385EC90E0958772
:100B6000848784EC90E09787868780EC90E0918B77
:100B7000808B81EC90E0938B828B82EC90E0958B64
:100B8000848B86EC90E0978B868B118E128E138E61
:100B9000148E08955058BB27AA270E94E2050C9492
:100BA0005C070E944E0738F00E94550720F039F488
:100BB0009F3F19F426F40C944B070EF4E095E7FBE5
:100BC0000C944507E92F0E946D0758F3BA17620786
:100BD00073078407950720F079F4A6F50C948F0726
:100BE0000EF4E0950B2EBA2FA02D0B01B901900148
:100BF0000C01CA01A0011124FF27591B99F0593F8C
:100C000050F4503E68F11A16F040A22F232F342FD3
:100C10004427585FF3CF469537952795A795F04021
:100C20005395C9F77EF41F16BA0B620B730B840B36
:100C3000BAF09150A1F0FF0FBB1F661F771F881FEE
:100C4000C2F70EC0BA0F621F731F841F48F4879546
:100C500077956795B795F7959E3F08F0B0CF939538
:100C6000880F08F09927EE0F9795879508950E94B1
:100C7000210708F481E008950E9450060C945C0757
:100C80000E94550758F00E944E0740F029F45F3F3C
:100C900029F00C94450751110C9490070C944B07C4
:100CA0000E946D0768F39923B1F3552391F3951BC7
:100CB000550BBB27AA2762177307840738F09F5F7D
:100CC0005F4F220F331F441FAA1FA9F335D00E2EEA
:100CD0003AF0E0E832D091505040E695001CCAF757
:100CE0002BD0FE2F29D0660F771F881FBB1F26171A
:100CF00037074807AB07B0E809F0BB0B802DBF01F1
:100D0000FF2793585F4F3AF09E3F510578F00C94BF
:100D100045070C9490075F3FE4F3983ED4F3869523
:100D200077956795B795F7959F5FC9F7880F911DE0
:100D30009695879597F90895E1E0660F771F881FCC
:100D4000BB1F621773078407BA0720F0621B730B7F
:100D5000840BBA0BEE1F88F7E09508950E94B50644
:100D60006894B1110C94900708950E94750788F05B
:100D70009F5798F0B92F9927B751B0F0E1F0660F5F
:100D8000771F881F991F1AF0BA95C9F714C0B130A0
:100D900091F00E948F07B1E008950C948F07672FA0
:100DA000782F8827B85F39F0B93FCCF386957795CF
:100DB0006795B395D9F73EF49095809570956195B8
:100DC0007F4F8F4F9F4F0895E89409C097FB3EF4E3
:100DD00090958095709561957F4F8F4F9F4F992388
:100DE000A9F0F92F96E9BB279395F6958795779506
:100DF0006795B795F111F8CFFAF4BB0F11F460FFC6
:100E00001BC06F5F7F4F8F4F9F4F16C0882311F01D
:100E100096E911C0772321F09EE8872F762F05C031
:100E2000662371F096E8862F70E060E02AF09A95CC
:100E3000660F771F881FDAF7880F9695879597F9C1
:100E40000895990F0008550FAA0BE0E8FEEF16165B
:100E50001706E807F907C0F012161306E407F507AE
:100E600098F0621B730B840B950B39F40A2661F022
:100E7000232B242B252B21F408950A2609F4A140C5
:100E8000A6958FEF811D811D089597F99F6780E8D2
:100E900070E060E008959FEF80EC089500240A94CC
:100EA0001616170618060906089500240A94121645
:100EB0001306140605060895092E0394000C11F478
:100EC000882352F0BB0F40F4BF2B11F460FF04C025
:100ED0006F5F7F4F8F4F9F4F089557FD9058440F7E
:100EE000551F59F05F3F71F04795880F97FB991F89
:100EF00061F09F3F79F08795089512161306140646
:100F0000551FF2CF4695F1DF08C0161617061806D2
:100F1000991FF1CF86957105610508940895E894AD
:100F2000BB2766277727CB0197F908950E942107F1
:100F300008F48FEF08950E94AE070C945C070E949E
:100F40004E0738F00E94550720F0952311F00C94BD
:100F500045070C944B0711240C9490070E946D07D1
:100F600070F3959FC1F3950F50E0551F629FF001FC
:100F7000729FBB27F00DB11D639FAA27F00DB11D15
:100F8000AA1F649F6627B00DA11D661F829F22279E
:100F9000B00DA11D621F739FB00DA11D621F839F25
:100FA000A00D611D221F749F3327A00D611D231FFB
:100FB000849F600D211D822F762F6A2F11249F5749
:100FC00050409AF0F1F088234AF0EE0FFF1FBB1F4C
:100FD000661F771F881F91505040A9F79E3F51050B
:100FE00080F00C9445070C9490075F3FE4F3983E23
:100FF000D4F3869577956795B795F795E7959F5FB5
:10100000C1F7FE2B880F911D9695879597F9089546
:101010000E942107880B990B0895A1E21A2EAA1BA2
:10102000BB1BFD010DC0AA1FBB1FEE1FFF1FA21798
:10103000B307E407F50720F0A21BB30BE40BF50B95
:10104000661F771F881F991F1A9469F7609570951E
:10105000809590959B01AC01BD01CF010895EE0FE5
:0E106000FF1F0590F491E02D0994F894FFCF46
:10106E00000000007401D4000101C1013201100121
:10107E0024016E616E00696E66006F7666004469CB
:10108E007374616E63653A2000206D6D2C20002014
:0C109E00636D2C2000206D000D0A000086
:00000001FF
