:100000000C945D000C9485000C9485000C94850084
:100010000C9485000C9485000C9485000C9485004C
:100020000C9485000C9485000C9485000C9485003C
:100030000C9485000C9485000C9485000C9485002C
:100040000C9417030C9485000C9487030C946103A3
:100050000C9485000C9485000C9485000C9485000C
:100060000C9485000C94850000000008000201003B
:100070000003040700000000000000000000000072
:10008000250028002B0000000000240027002A0083
:10009000040404040404040402020202020203032E
:1000A0000303030301020408102040800102040836
:1000B0001020010204081020030511241FBECFEFF9
:1000C000D8E0DEBFCDBF11E0A0E0B1E0E4EBFAE0A4
:1000D00002C005900D92A236B107D9F722E0A2E640
:1000E000B1E001C01D92A830B207E1F710E0CDE504
:1000F000D0E004C02197FE010E945205CC35D10703
:10010000C9F70E94B9030C9458050C94000090E0C4
:10011000FC01EC55FF4F249180579F4FFC018491C7
:10012000882399F090E0880F991FFC01EA57FF4F50
:10013000A591B491FC01E458FF4F859194918FB73C
:10014000F894EC91E22BEC938FBF089590E0FC01C2
:10015000E859FF4F2491FC01EC55FF4F3491FC010D
:10016000E057FF4FE491EE23C9F0222339F023300A
:1001700001F1A8F4213019F1223029F1F0E0EE0F5D
:10018000FF1FE458FF4FA591B4918FB7F894EC91FD
:10019000611126C030953E233C938FBF08952730D0
:1001A000A9F02830C9F0243049F7809180008F7D74
:1001B00003C0809180008F7780938000DFCF84B56B
:1001C0008F7784BDDBCF84B58F7DFBCF8091B0006E
:1001D0008F778093B000D2CF8091B0008F7DF9CF20
:1001E0003E2BDACF1F93CF93DF93182FEB010E94A2
:1001F0008700209739F460E0812FDF91CF911F9124
:100200000C94A600CF3FD10511F461E0F5CFE12FAA
:10021000F0E0E859FF4FE491E33031F140F4E13090
:10022000B1F0E230E1F0C038D1057CF7E4CFE7303F
:1002300029F1E83059F1E430B1F780918000806213
:1002400080938000D0938B00C0938A0004C084B553
:10025000806884BDC7BDDF91CF911F91089584B59B
:10026000806284BDC8BDF7CF809180008068809394
:100270008000D0938900C0938800EDCF8091B000BA
:1002800080688093B000C093B300E5CF8091B00048
:1002900080628093B000C093B400DDCF3FB7F89484
:1002A0008091670190916801A0916901B0916A0104
:1002B00026B5A89B05C02F3F19F00196A11DB11DC1
:1002C0003FBFBA2FA92F982F8827BC01CD01620FFD
:1002D000711D811D911D42E0660F771F881F991FB8
:1002E0004A95D1F708958F929F92AF92BF92CF9285
:1002F000DF92EF92FF924B015C010E944E016B0175
:100300007C010E944E016C197D098E099F09683E8F
:10031000734081059105A8F321E0821A9108A10894
:10032000B10888EEC80E83E0D81EE11CF11C8114D0
:100330009104A104B10429F7FF90EF90DF90CF90D2
:10034000BF90AF909F908F900895AF92BF92CF9241
:10035000DF92EF92FF920F931F93CF93DF936C0185
:100360007B018B01040F151FEB015E01AE18BF0866
:10037000C017D10759F06991D601ED91FC91019018
:10038000F081E02DC6010995892B79F7C501DF9130
:10039000CF911F910F91FF90EF90DF90CF90BF9082
:1003A000AF900895FC01538D448D252F30E0842FAC
:1003B00090E0821B930B541710F0CF96089501978D
:1003C0000895FC01918D828D981761F0A28DAE0F7A
:1003D000BF2FB11D5D968C91928D9F5F9F73928F01
:1003E00090E008958FEF9FEF0895FC01918D828D2D
:1003F000981731F0828DE80FF11D858D90E00895FA
:100400008FEF9FEF0895FC01918D228D892F90E051
:10041000805C9F4F821B91098F73992708958BE60B
:1004200091E00E94030221E0892B09F420E0822F51
:10043000089580E090E0892B29F00E940F0281113D
:100440000C9400000895FC01A48DA80FB92FB11DD4
:10045000A35ABF4F2C91848D90E001968F739927FA
:10046000848FA689B7892C93A089B1898C918370D8
:1004700080648C93938D848D981306C00288F389D1
:10048000E02D80818F7D80830895EF92FF920F93FE
:100490001F93CF93DF93EC0181E0888F9B8D8C8D30
:1004A00098131AC0E889F989808185FF15C09FB724
:1004B000F894EE89FF896083E889F98980818370E7
:1004C000806480839FBF81E090E0DF91CF911F9196
:1004D0000F91FF90EF900895F62E0B8D10E00F5FB7
:1004E0001F4F0F731127E02E8C8D8E110CC00FB68D
:1004F00007FCFACFE889F989808185FFF5CFCE0125
:100500000E942302F1CFEB8DEC0FFD2FF11DE35A7A
:10051000FF4FF0829FB7F8940B8FEA89FB898081A7
:100520008062CFCFCF93DF93EC01888D8823B9F021
:10053000AA89BB89E889F9898C9185FD03C08081EE
:1005400086FD0DC00FB607FCF7CF8C9185FFF2CF6B
:10055000808185FFEDCFCE010E942302E9CFDF919C
:10056000CF910895FC0101900020E9F73197AF0188
:10057000481B590BBC018BE691E00C94A501CF936D
:10058000DF930E94B202EC0182E191E00E94B2028C
:100590008C0F9D1FDF91CF910895CF92DF92EF9244
:1005A000FF920F931F93CF93DF93CDB7DEB7A19741
:1005B0000FB6F894DEBF0FBECDBF282F30E050E05D
:1005C00040E019A28E010F5D1F4F8AE0C82ED12C8A
:1005D000E12CF12CCA01B901A70196010E94300556
:1005E000605DF80162938F012115310541055105C8
:1005F00089F73097C9F0CF010E94B2028C0182E1E5
:1006000091E00E94B202800F911FA1960FB6F8945C
:10061000DEBF0FBECDBFDF91CF911F910F91FF9035
:10062000EF90DF90CF90089510E000E0E8CF1F92A8
:100630000F920FB60F9211242F933F938F939F9396
:10064000AF93BF938091630190916401A091650184
:10065000B09166013091620123E0230F2D3758F5E8
:100660000196A11DB11D20936201809363019093B7
:100670006401A0936501B093660180916701909138
:100680006801A0916901B0916A010196A11DB11D97
:100690008093670190936801A0936901B0936A0108
:1006A000BF91AF919F918F913F912F910F900FBE6E
:1006B0000F901F90189526E8230F0296A11DB11DDB
:1006C000D2CF1F920F920FB60F9211242F933F9308
:1006D0004F935F936F937F938F939F93AF93BF934A
:1006E000EF93FF938BE691E00E942302FF91EF913D
:1006F000BF91AF919F918F917F916F915F914F913A
:100700003F912F910F900FBE0F901F9018951F9241
:100710000F920FB60F9211242F938F939F93EF9305
:10072000FF93E0917B01F0917C018081E091810158
:10073000F091820182FD1BC09081809184018F5FC6
:100740008F7320918501821741F0E0918401F0E0E0
:10075000E559FE4F958F80938401FF91EF919F9112
:100760008F912F910F900FBE0F901F901895808141
:10077000F4CF789484B5826084BD84B5816084BDF3
:1007800085B5826085BD85B5816085BD80916E002F
:10079000816080936E001092810080918100826060
:1007A000809381008091810081608093810080919D
:1007B00080008160809380008091B100846080938C
:1007C000B1008091B00081608093B00080917A0088
:1007D000846080937A0080917A00826080937A00AE
:1007E00080917A00816080937A0080917A0080689D
:1007F00080937A001092C100E0917B01F0917C011E
:1008000082E08083E0917701F09178011082E0919D
:100810007901F0917A018FEC808310928301E0914D
:100820007F01F091800186E08083E0917D01F0916D
:100830007E01808180618083E0917D01F0917E0165
:10084000808188608083E0917D01F0917E018081CC
:1008500080688083E0917D01F0917E0180818F7DB1
:10086000808387E00E94870084E00E94870086E002
:100870000E94870085E00E94870070E060E086E0CB
:100880000E94F20070E060E085E00E94F20000E06B
:1008900010E085E191E00E94BF0260E087E00E94E5
:1008A000A60061E084E00E94A600D0E0C0E085E2FE
:1008B00091E00E94B2028C2F0E94CD02BE0186E020
:1008C0000E94F200BE0185E00E94F2006AE070E042
:1008D00080E090E00E9473012196CF3FD10539F767
:1008E0006CE271E080E090E00E94730182E391E0AD
:1008F0000E94BF0285E291E00E94B2028C2F0E940A
:10090000CD02BE0186E00E94F200BE0185E00E9499
:10091000F2006AE070E080E090E00E9473012197AD
:1009200049F768EE73E080E090E00E94730170E0A8
:1009300060E086E00E94F20070E060E085E00E94E6
:10094000F20082E491E00E94BF0261E087E00E9431
:10095000A60060E084E00E94A60085E291E00E948B
:10096000B2028C2F0E94CD02BE0186E00E94F200EE
:10097000BE0185E00E94F2006AE070E080E090E055
:100980000E9473012196CF3FD10539F76CE271E0E7
:1009900080E090E00E94730182E591E00E94BF0236
:1009A00085E291E00E94B2028C2F0E94CD02BE012E
:1009B00086E00E94F200BE0185E00E94F2006AE03B
:1009C00070E080E090E00E947301219749F768EEA3
:1009D00073E080E090E00E94730170E060E086E0E8
:1009E0000E94F20070E060E085E00E94F2000115D4
:1009F000110509F44ECF0E940F02882309F449CF54
:100A00000E94000046CFEBE6F1E01382128288EEEE
:100A100093E0A0E0B0E084839583A683B78384E06D
:100A200091E09183808385EC90E09587848784ECC6
:100A300090E09787868780EC90E0918B808B81ECAB
:100A400090E0938B828B82EC90E0958B848B86EC8C
:100A500090E0978B868B118E128E138E148E0895D4
:100A6000A1E21A2EAA1BBB1BFD010DC0AA1FBB1FB2
:100A7000EE1FFF1FA217B307E407F50720F0A21B24
:100A8000B30BE40BF50B661F771F881F991F1A9491
:100A900069F760957095809590959B01AC01BD01BB
:100AA000CF010895EE0FFF1F0590F491E02D0994FA
:040AB000F894FFCFE8
:100AB400000000004502A501D20192020302E101F7
:100AC400F5010D0A004D6F746F72732043617365F5
:100AD40020312F340043757272656E742050574D67
:100AE40020004D6F746F7273204361736520322F41
:100AF40034004D6F746F7273204361736520332F1C
:100B040034004D6F746F7273204361736520342F0A
:020B14003400AB
:00000001FF
