:100000000C9462000C948A000C948A000C948A0070
:100010000C948A000C948A000C948A000C948A0038
:100020000C948A000C948A000C948A000C948A0028
:100030000C948A000C948A000C948A000C948A0018
:100040000C944B030C948A000C9419030C94F30247
:100050000C948A000C948A000C948A000C948A00F8
:100060000C948A000C948A000000000024002700F1
:100070002A0000000000250028002B0000000008D6
:10008000000201000003040700000000000000005F
:1000900000000000230026002900040404040404D6
:1000A0000404020202020202030303030303010227
:1000B00004081020408001020408102001020408F6
:1000C0001020FB0511241FBECFEFD8E0DEBFCDBF4F
:1000D00011E0A0E0B1E0ECE1F1E102C005900D9289
:1000E000AE35B107D9F722E0AEE5B1E001C01D920F
:1000F000A430B207E1F710E0C2E6D0E004C02197D7
:10010000FE010E948608C136D107C9F70E94DA03B2
:100110000C948C080C940000AF92BF92CF92DF92A7
:10012000EF92FF920F931F93CF93DF936C017B01AC
:100130008B01040F151FEB015E01AE18BF08C0173D
:10014000D10759F06991D601ED91FC910190F081B0
:10015000E02DC6010995892B79F7C501DF91CF9173
:100160001F910F91FF90EF90DF90CF90BF90AF90D5
:100170000895FC01538D448D252F30E0842F90E0AD
:10018000821B930B541710F0CF9608950197089592
:10019000FC01918D828D981761F0A28DAE0FBF2F5B
:1001A000B11D5D968C91928D9F5F9F73928F90E0B1
:1001B00008958FEF9FEF0895FC01918D828D981720
:1001C00031F0828DE80FF11D858D90E008958FEF5D
:1001D0009FEF0895FC01918D228D892F90E0805C26
:1001E0009F4F821B91098F739927089587E691E0AD
:1001F0000E94EA0021E0892B09F420E0822F089573
:1002000080E090E0892B29F00E94F60081110C9487
:1002100000000895FC01A48DA80FB92FB11DA35AA9
:10022000BF4F2C91848D90E001968F739927848F16
:10023000A689B7892C93A089B1898C918370806439
:100240008C93938D848D981306C00288F389E02DDA
:1002500080818F7D80830895EF92FF920F931F938B
:10026000CF93DF93EC0181E0888F9B8D8C8D981369
:100270001AC0E889F989808185FF15C09FB7F89475
:10028000EE89FF896083E889F989808183708064C1
:1002900080839FBF81E090E0DF91CF911F910F910C
:1002A000FF90EF900895F62E0B8D10E00F5F1F4F1B
:1002B0000F731127E02E8C8D8E110CC00FB607FC2A
:1002C000FACFE889F989808185FFF5CFCE010E94B8
:1002D0000A01F1CFEB8DEC0FFD2FF11DE35AFF4F1B
:1002E000F0829FB7F8940B8FEA89FB898081806246
:1002F000CFCFCF93DF93EC01888D8823B9F0AA8903
:10030000BB89E889F9898C9185FD03C0808186FDD0
:100310000DC00FB607FCF7CF8C9185FFF2CF80811F
:1003200085FFEDCFCE010E940A01E9CFDF91CF9189
:10033000089590E0FC01E458FF4F2491FC01E25540
:10034000FF4F3491FC01E656FF4FE491EE23C9F0D4
:10035000222339F0233001F1A8F4213019F12230A1
:1003600029F1F0E0EE0FFF1FEE58FF4FA591B49179
:100370008FB7F894EC91611126C030953E233C93E1
:100380008FBF08952730A9F02830C9F0243049F7ED
:10039000809180008F7D03C0809180008F77809353
:1003A0008000DFCF84B58F7784BDDBCF84B58F7DB0
:1003B000FBCF8091B0008F778093B000D2CF809137
:1003C000B0008F7DF9CF3E2BDACFCF93DF9390E053
:1003D000FC01E255FF4F249186569F4FFC0184910A
:1003E0008823D1F090E0880F991FFC01E859FF4F56
:1003F000A591B491FC01EE58FF4FC591D4916111C4
:100400000EC09FB7F8948C91E22FE0958E238C93C9
:100410002881E223E8839FBFDF91CF9108958FB7B2
:10042000F894EC91E22BEC938FBFF6CF1F93CF9310
:10043000DF93182FEB0161E00E94E501209739F46A
:1004400060E0812FDF91CF911F910C949901E12FF2
:10045000F0E0E458FF4FE491E33039F148F4E13043
:10046000B9F0E230E9F0C038D10554F361E0E9CFEA
:10047000E73029F1E83059F1E430A9F780918000A4
:10048000806280938000D0938B00C0938A0004C068
:1004900084B5806884BDC7BDDF91CF911F91089559
:1004A00084B5806284BDC8BDF7CF8091800080682C
:1004B00080938000D0938900C0938800EDCF809115
:1004C000B00080688093B000C093B300E5CF809106
:1004D000B00080628093B000C093B400DDCF3FB71E
:1004E000F8948091630190916401A0916501B091AD
:1004F000660126B5A89B05C02F3F19F00196A11DE6
:10050000B11D3FBFBA2FA92F982F8827BC01CD015D
:10051000620F711D811D911D42E0660F771F881FBC
:10052000991F4A95D1F70895FC0101900020E9F741
:100530003197AF01481B590BBC0187E691E00C9441
:100540008C008F929F92AF92BF920F931F93CF9385
:10055000DF93CDB7DEB7A1970FB6F894DEBF0FBE1D
:10056000CDBF19A2423008F44AE08E010F5D1F4F43
:10057000842E912CB12CA12CA50194010E94640819
:10058000E62FB901CA01EA30F4F4E05DD801EE9338
:100590008D01232B242B252B79F790E080E01097F9
:1005A00019F0CD010E949402A1960FB6F894DEBF17
:1005B0000FBECDBFDF91CF911F910F91BF90AF9034
:1005C0009F908F900895E95CE1CFCF93DF930E94D5
:1005D0009402EC0183E191E00E9494028C0F9D1F34
:1005E000DF91CF9108951F920F920FB60F921124B1
:1005F0002F933F934F935F936F937F938F939F932B
:10060000AF93BF93EF93FF9387E691E00E940A01B7
:10061000FF91EF91BF91AF919F918F917F916F91DA
:100620005F914F913F912F910F900FBE0F901F90B0
:1006300018951F920F920FB60F9211242F938F933C
:100640009F93EF93FF93E0917701F0917801808180
:10065000E0917D01F0917E0182FD1BC0908180912F
:1006600080018F5F8F7320918101821741F0E091AB
:100670008001F0E0E959FE4F958F80938001FF9152
:10068000EF919F918F912F910F900FBE0F901F9020
:1006900018958081F4CF1F920F920FB60F921124FC
:1006A0002F933F938F939F93AF93BF9380915F015D
:1006B00090916001A0916101B091620130915E0161
:1006C00023E0230F2D3758F50196A11DB11D20936E
:1006D0005E0180935F0190936001A0936101B093EC
:1006E00062018091630190916401A0916501B091D4
:1006F00066010196A11DB11D809363019093640171
:10070000A0936501B0936601BF91AF919F918F91C6
:100710003F912F910F900FBE0F901F90189526E8D4
:10072000230F0296A11DB11DD2CFCF92DF92EF927F
:10073000FF920F931F93E82FF92F05C00150110965
:100740002109310961F1908196239417B9F305C00D
:10075000015011092109310911F190819623941357
:10076000F7CFC12CD12CE12CF12C0AC08FEFC81A85
:10077000D80AE80AF80A0C151D052E053F0579F080
:1007800080818623841791F36C2D7D2D8E2D9F2DD6
:100790001F910F91FF90EF90DF90CF90089560E050
:1007A00070E080E090E01F910F91FF90EF90DF905C
:1007B000CF900895789484B5826084BD84B58160BB
:1007C00084BD85B5826085BD85B5816085BD80911C
:1007D0006E00816080936E00109281008091810094
:1007E000826080938100809181008160809381008C
:1007F000809180008160809380008091B10084604E
:100800008093B1008091B00081608093B0008091AE
:100810007A00846080937A0080917A00826080936D
:100820007A0080917A00816080937A0080917A00CA
:10083000806880937A001092C100E0917701F09176
:10084000780182E08083E0917301F091740110825D
:10085000E0917501F09176018FEC808310927F0119
:10086000E0917B01F0917C0186E08083E091790149
:10087000F0917A01808180618083E0917901F0912B
:100880007A01808188608083E0917901F0917A011A
:10089000808180688083E0917901F0917A01808184
:1008A0008F7D808361E08CE00E94E50160E08BE059
:1008B0000E94E50161E087E00E94E50161E084E0DB
:1008C0000E94E50161E086E00E94E50161E085E0CB
:1008D0000E94E50160E085E10E94E50170E060E0D2
:1008E00086E00E94160270E060E085E00E94160239
:1008F000C3E2D0E040E0242E40E0342E27E42093F1
:100900007C0080917A00806480937A0080917A00E4
:1009100086FDFCCF8091780090917900892B29F495
:1009200080910001811110920001809100018111DC
:1009300098C060E08CE00E949901CE010197F1F728
:1009400061E08CE00E949901E9EBF0E06491E5EA56
:10095000F0E08491E82FF0E0EE0FFF1FE057FF4F2B
:100960008591949100E412E42FE030E0462F0E943C
:100970009503611571058105910529F06F5F7F4F22
:100980008F4F9F4F9F7095958795779567950E949C
:100990003D072CE53FE84AE350E40E949A0620E038
:1009A00030E040E251E40E949A066B017C0186E14E
:1009B00091E00E949402A7019601C701B6010E942E
:1009C0005F08882309F459C081E291E00E949402F3
:1009D0008DE291E00E94E50220E030E040E451E445
:1009E000C701B6010E94ED0718160CF0D8C060E0F0
:1009F00087E00E94990160E084E00E94990166E925
:100A000070E086E00E94160266E970E085E00E94D0
:100A1000160281E391E00E94E5020E946F024B0101
:100A20005C0182E3C82ED12CE12CF12C0E946F02D4
:100A3000681979098A099B09683E73408105910507
:100A4000A8F3F1E0CF1AD108E108F10828EE820EF0
:100A500023E0921EA11CB11CC114D104E104F104D5
:100A600029F72114310409F449CF0E94F6008823A4
:100A700009F444CF0E94000041CF46015701E89499
:100A8000B7F82FEF3FEF4FE75FE7C501B4010E94D2
:100A90005F0881110DC02FEF3FEF4FE75FE7C50102
:100AA000B4010E94950618161CF485E291E08ECFE1
:100AB0002FEF3FEF4FE75FE4C701B6010E94ED075C
:100AC00018161CF489E291E081CF2FEF3FEF4FE73A
:100AD0005FECC701B6010E94950687FDF3CF20E0C9
:100AE00030E0A901C701B6010E94950687FF54C0F6
:100AF0006DE287E691E00E942C01C701B601905893
:100B00002AE037ED43EA5BE30E9429062B013C0112
:100B10000E940C074B015C010E943B079B01AC014A
:100B2000C301B2010E9428062B013C014AE0C50125
:100B3000B4010E94A1026EE287E691E00E942C01BE
:100B400020E030E040E251E4C301B2010E94F2072C
:100B50002B013C010E940C074B01B12CA12C4AE057
:100B6000C501B4010E94A102C501B4010E943B0766
:100B70009B01AC01C301B2010E94280620E030E0D5
:100B800040E251E40E94F2070E940C0790E080E0EE
:100B90004AE00E94A1021CCFC701B601B1CF20E0FC
:100BA00030E040E051E4C701B6010E94950687FF9E
:100BB00015C061E087E00E94990161E084E00E9435
:100BC000990166E970E086E00E94160266E970E02D
:100BD00085E00E94160280E491E01DCF70E060E0A5
:100BE00086E00E94160270E060E085E00E94160236
:100BF00081E591E010CFE7E6F1E01382128288EE02
:100C000093E0A0E0B0E084839583A683B78385E07A
:100C100091E09183808385EC90E09587848784ECD4
:100C200090E09787868780EC90E0918B808B81ECB9
:100C300090E0938B828B82EC90E0958B848B86EC9A
:100C400090E0978B868B118E128E138E148E0895E2
:100C50005058BB27AA270E9440060C94B3070E9455
:100C6000A50738F00E94AC0720F039F49F3F19F433
:100C700026F40C94A2070EF4E095E7FB0C949C0775
:100C8000E92F0E94C40758F3BA1762077307840755
:100C9000950720F079F4A6F50C94E6070EF4E0959C
:100CA0000B2EBA2FA02D0B01B90190010C01CA0126
:100CB000A0011124FF27591B99F0593F50F4503ED1
:100CC00068F11A16F040A22F232F342F4427585FC3
:100CD000F3CF469537952795A795F0405395C9F7DB
:100CE0007EF41F16BA0B620B730B840BBAF0915093
:100CF000A1F0FF0FBB1F661F771F881FC2F70EC032
:100D0000BA0F621F731F841F48F487957795679504
:100D1000B795F7959E3F08F0B0CF9395880F08F0F0
:100D20009927EE0F9795879508950E94780708F404
:100D300081E008950E94AE060C94B3070E94AC07B0
:100D400058F00E94A50740F029F45F3F29F00C9469
:100D50009C0751110C94E7070C94A2070E94C4074A
:100D600068F39923B1F3552391F3951B550BBB27DA
:100D7000AA2762177307840738F09F5F5F4F220F1F
:100D8000331F441FAA1FA9F335D00E2E3AF0E0E816
:100D900032D091505040E695001CCAF72BD0FE2F60
:100DA00029D0660F771F881FBB1F261737074807F4
:100DB000AB07B0E809F0BB0B802DBF01FF279358AC
:100DC0005F4F3AF09E3F510578F00C949C070C94CD
:100DD000E7075F3FE4F3983ED4F3869577956795F0
:100DE000B795F7959F5FC9F7880F911D96958795E1
:100DF00097F90895E1E0660F771F881FBB1F621700
:100E000073078407BA0720F0621B730B840BBA0BBD
:100E1000EE1F88F7E09508950E94CC0788F09F5751
:100E200098F0B92F9927B751B0F0E1F0660F771F0E
:100E3000881F991F1AF0BA95C9F714C0B13091F004
:100E40000E94E607B1E008950C94E607672F782F1B
:100E50008827B85F39F0B93FCCF3869577956795C9
:100E6000B395D9F73EF490958095709561957F4F35
:100E70008F4F9F4F0895E89409C097FB3EF49095DB
:100E80008095709561957F4F8F4F9F4F9923A9F063
:100E9000F92F96E9BB279395F695879577956795F2
:100EA000B795F111F8CFFAF4BB0F11F460FF1BC036
:100EB0006F5F7F4F8F4F9F4F16C0882311F096E9C9
:100EC00011C0772321F09EE8872F762F05C0662377
:100ED00071F096E8862F70E060E02AF09A95660F30
:100EE000771F881FDAF7880F9695879597F90895E9
:100EF000990F0008550FAA0BE0E8FEEF161617062B
:100F0000E807F907C0F012161306E407F50798F092
:100F1000621B730B840B950B39F40A2661F0232BAB
:100F2000242B252B21F408950A2609F4A140A69527
:100F30008FEF811D811D089597F99F6780E870E00C
:100F400060E008959FEF80EC089500240A9416163F
:100F5000170618060906089500240A9412161306A7
:100F6000140605060895092E0394000C11F4882335
:100F700052F0BB0F40F4BF2B11F460FF04C06F5F51
:100F80007F4F8F4F9F4F089557FD9058440F551F27
:100F900059F05F3F71F04795880F97FB991F61F0FB
:100FA0009F3F79F087950895121613061406551F72
:100FB000F2CF4695F1DF08C0161617061806991FDE
:100FC000F1CF86957105610508940895E894BB27D3
:100FD00066277727CB0197F908950E94780708F4D0
:100FE0008FEF08950E9405080C94B3070E94A5078F
:100FF00038F00E94AC0720F0952311F00C949C0768
:101000000C94A20711240C94E7070E94C40770F304
:10101000959FC1F3950F50E0551F629FF001729F9D
:10102000BB27F00DB11D639FAA27F00DB11DAA1FAC
:10103000649F6627B00DA11D661F829F2227B00DF9
:10104000A11D621F739FB00DA11D621F839FA00D84
:10105000611D221F749F3327A00D611D231F849FD4
:10106000600D211D822F762F6A2F11249F5750402B
:101070009AF0F1F088234AF0EE0FFF1FBB1F661FA6
:10108000771F881F91505040A9F79E3F510580F06F
:101090000C949C070C94E7075F3FE4F3983ED4F36D
:1010A000869577956795B795F795E7959F5FC1F713
:1010B000FE2B880F911D9695879597F908950E94AC
:1010C0007807880B990B0895A1E21A2EAA1BBB1B67
:1010D000FD010DC0AA1FBB1FEE1FFF1FA217B30704
:1010E000E407F50720F0A21BB30BE40BF50B661F1A
:1010F000771F881F991F1A9469F7609570958095DE
:1011000090959B01AC01BD01CF010895EE0FFF1F2B
:0C1110000590F491E02D0994F894FFCFB5
:10111C0001000000002C018C00B9007901EA00C824
:10112C0000DC000D0A0044697374616E63653A203B
:10113C00006E616E00696E66006F76660020636DEE
:10114C00004D6F76696E6720466F7277617264002E
:10115C004D6F76696E67204261636B776172647361
:0E116C00004D6F76696E672053746F7000003F
:00000001FF
