:100000000C9462000C948A000C948A000C948A0070
:100010000C948A000C948A000C948A000C948A0038
:100020000C948A000C948A000C948A000C948A0028
:100030000C948A000C948A000C948A000C948A0018
:100040000C94D8040C948A000C94A6040C9480049C
:100050000C948A000C948A000C948A000C948A00F8
:100060000C948A000C948A000000000024002700F1
:100070002A0000000008000201000003040700003D
:1000800000000000000000000000230026002900FE
:1000900000000000250028002B00040404040404D0
:1000A0000404020202020202030303030303010227
:1000B00004081020408001020408102001020408F6
:1000C0001020FD0711241FBECFEFD8E0DEBFCDBF4B
:1000D00012E0A0E0B1E0E4EBF3E102C005900D9284
:1000E000A03DB107D9F723E0A0EDB2E001C01D9219
:1000F000A53AB207E1F710E0C2E6D0E004C02197CC
:10010000FE010E94D209C136D107C9F70E9422051B
:100110000C94D8090C9400009FB7F894AAEDB2E0B3
:100120009196ED91FC919297808190962C91822BE3
:1001300080839FBF08959FB7F894AAEDB2E05E96C2
:10014000ED91FC915F9780815D962C91822B80834D
:100150009FBF08959FB7F894AAEDB2E05B96ED912A
:10016000FC915C9780815A962C91822B80839FBF53
:100170000895DF92EF92FF920F931F93CF93DF9337
:100180001092EF02D12CC82F880FDD0B0BE010E08E
:10019000EE24E394F12C8091EF02883008F042C005
:1001A0009E0102C0359527958A95E2F720FF2CC065
:1001B0000E949B008FB7F894E091F502F091F6024F
:1001C00020819091F4029095922390838FBFC80173
:1001D0000197F1F7E091FE02F091FF02808190918A
:1001E000FD02892349F08091EF02970102C0220F9E
:1001F000331F8A95E2F7D22A0E94AA008091EF026B
:100200008F5F8093EF02C7CF8FB7F894E091F80229
:10021000F091F90220819091F702909592239083BA
:100220008FBFC8CF0E949B008BE090E00197F1F751
:100230008D2DDF91CF911F910F91FF90EF90DF9067
:1002400008959FB7F894AAEDB2E09196ED91FC91D4
:100250009297208190968C918095822380839FBF76
:100260000895AF92BF92CF92DF92EF92FF920F93D9
:100270001F93CF93DF936C017B018B01040F151F3C
:10028000EB015E01AE18BF08C017D10759F06991A4
:10029000D601ED91FC910190F081E02DC601099508
:1002A000892B79F7C501DF91CF911F910F91FF90B5
:1002B000EF90DF90CF90BF90AF900895FC01538DE9
:1002C000448D252F30E0842F90E0821B930B541730
:1002D00010F0CF96089501970895FC01918D828DBD
:1002E000981761F0A28DAE0FBF2FB11D5D968C9156
:1002F000928D9F5F9F73928F90E008958FEF9FEF95
:100300000895FC01918D828D981731F0828DE80F50
:10031000F11D858D90E008958FEF9FEF0895FC010A
:10032000918D228D892F90E0805C9F4F821B9109D7
:100330008F739927089588E093E00E948F0121E050
:10034000892B09F420E0822F089580E090E0892B2A
:1003500029F00E949B0181110C9400000895FC017A
:10036000A48DA80FB92FB11DA35ABF4F2C91848D16
:1003700090E001968F739927848FA689B7892C9373
:10038000A089B1898C91837080648C93938D848DC6
:10039000981306C00288F389E02D80818F7D8083C9
:1003A0000895EF92FF920F931F93CF93DF93EC0189
:1003B00081E0888F9B8D8C8D98131AC0E889F9890C
:1003C000808185FF15C09FB7F894EE89FF8960830F
:1003D000E889F98980818370806480839FBF81E090
:1003E00090E0DF91CF911F910F91FF90EF900895D2
:1003F000F62E0B8D10E00F5F1F4F0F731127E02EAD
:100400008C8D8E110CC00FB607FCFACFE889F989E4
:10041000808185FFF5CFCE010E94AF01F1CFEB8D3A
:10042000EC0FFD2FF11DE35AFF4FF0829FB7F894B8
:100430000B8FEA89FB8980818062CFCFCF93DF93D6
:10044000EC01888D8823B9F0AA89BB89E889F989EC
:100450008C9185FD03C0808186FD0DC00FB607FC21
:10046000F7CF8C9185FFF2CF808185FFEDCFCE0154
:100470000E94AF01E9CFDF91CF910895CF93DF9331
:1004800090E0FC01E255FF4F249186569F4FFC01FE
:1004900084918823D1F090E0880F991FFC01E859DE
:1004A000FF4FA591B491FC01E057FF4FC591D49146
:1004B00061110EC09FB7F8948C91E22FE0958E23C6
:1004C0008C932881E223E8839FBFDF91CF91089529
:1004D0008FB7F894EC91E22BEC938FBFF6CF3FB738
:1004E000F8948091D1029091D202A091D302B09160
:1004F000D40226B5A89B05C02F3F19F00196A11D77
:10050000B11D3FBFBA2FA92F982F8827BC01CD015D
:10051000620F711D811D911D42E0660F771F881FBC
:10052000991F4A95D1F708958F929F92AF92BF92EB
:10053000CF92DF92EF92FF926B017C010E946F02DB
:100540004B015C01C114D104E104F104B9F00E9433
:100550006F02681979098A099B09683E7340810511
:10056000910580F321E0C21AD108E108F10888EE74
:10057000880E83E0981EA11CB11CE4CFFF90EF9081
:10058000DF90CF90BF90AF909F908F900895EF92A3
:10059000FF920F931F93CF93DF937C01062F0E944E
:1005A0002101E70110E0CE018E199F098017910704
:1005B00024F489910E94B900F6CF0E948C006091CA
:1005C000040370E090E080E0DF91CF911F910F91E4
:1005D000FF90EF900C94940265E080E291E00E941D
:1005E000C70269E087E191E00E94C702809106039B
:1005F000882329F065E082E191E00E94C7028091A2
:100600000703882329F069E089E091E00E94C7028E
:1006100069E080E091E00C94C7028F929F92AF92C4
:10062000BF92CF92DF92EF92FF921F93CF93DF930F
:10063000CDB7DEB729970FB6F894DEBF0FBECDBF9A
:10064000182F2FB7F8946091D6027091D70280913D
:10065000D8029091D9022FBFC0900003D09001031F
:10066000E0900203F09003036C197D098E099F0945
:100670000E941B096B017C0120E030E84BEB54E445
:100680000E94CD09181614F40E94EC026091040334
:1006900070E090E080E00E941D094B015C01AC011C
:1006A0009B01C701B6010E94E70887FF0AC0A701A6
:1006B0009601C501B4010E947A080E94EC080E94CC
:1006C0009402112371F0212F30E0AFEBB0E00E94D3
:1006D0006B082FEF30E040E050E00E942A0810E461
:1006E000120FFE01339687E0DF011D928A95E9F72C
:1006F00081E0898382E48A831D8315E02BE0C22E8A
:10070000D12C7E01BAE0EB0EF11C0E949B000E94EE
:10071000AA000E942101C6010197F1F7FE0131965E
:100720005F019AED892E92E0992ED5018D915D01A0
:100730000E94B900F40181934F01AE14BF04A9F7E0
:100740008091DB02893779F483EEA82E82E0B82EFF
:1007500080E00E94B900D5018D935D01BFEEAB161C
:10076000B2E0BB06A9F70E948C008091DB02807F7B
:10077000803761F00E94EC026091040370E090E029
:1007800080E00E949402115009F0BFCF8091DB02FB
:10079000807F803739F0809104038A3018F48F5FAE
:1007A000809304038091F2029091F3029093F102FE
:1007B0008093F0028091DD029091DE029093F3022B
:1007C0008093F2022FB7F8948091D6029091D702CD
:1007D000A091D802B091D9022FBF809300039093CB
:1007E0000103A0930203B09303039091DB02907F77
:1007F00081E0903709F080E029960FB6F894DEBFCB
:100800000FBECDBFDF91CF911F91FF90EF90DF9092
:10081000CF90BF90AF909F908F900895FC01019072
:100820000020E9F73197AF01481B590BBC0188E064
:1008300093E00C9431018F929F92AF92BF920F93ED
:100840001F93CF93DF93CDB7DEB7A1970FB6F89480
:10085000DEBF0FBECDBF19A2423008F44AE08E01C0
:100860000F5D1F4F842E912CB12CA12CA50194015A
:100870000E944908E62FB901CA01EA30F4F4E05DAC
:10088000D801EE938D01232B242B252B79F790E0B3
:1008900080E0109719F0CD010E940E04A1960FB6CA
:1008A000F894DEBF0FBECDBFDF91CF911F910F91A6
:1008B000BF90AF909F908F900895E95CE1CFCF9368
:1008C000DF930E940E04EC0180E491E00E940E048C
:1008D0008C0F9D1FDF91CF910895CF93DF93682FE9
:1008E00070E090E080E04AE00E941B04EC0180E4AC
:1008F00091E00E940E048C0F9D1FDF91CF9108950F
:100900001F920F920FB60F9211242F933F934F9384
:100910005F936F937F938F939F93AF93BF93EF9367
:10092000FF9388E093E00E94AF01FF91EF91BF91A8
:10093000AF919F918F917F916F915F914F913F9177
:100940002F910F900FBE0F901F9018951F920F922E
:100950000FB60F9211242F938F939F93EF93FF93D2
:10096000E0911803F09119038081E0911E03F0914A
:100970001F0382FD1BC09081809121038F5F8F73C5
:1009800020912203821741F0E0912103F0E0E85F1B
:10099000FC4F958F80932103FF91EF919F918F9151
:1009A0002F910F900FBE0F901F9018958081F4CF5C
:1009B0001F920F920FB60F9211242F933F938F9394
:1009C0009F93AF93BF938091D6029091D702A0914D
:1009D000D802B091D9023091D00223E0230F2D37F5
:1009E00058F50196A11DB11D2093D0028093D60227
:1009F0009093D702A093D802B093D9028091D102EC
:100A00009091D202A091D302B091D4020196A11D7F
:100A1000B11D8093D1029093D202A093D302B093E0
:100A2000D402BF91AF919F918F913F912F910F90E1
:100A30000FBE0F901F90189526E8230F0296A11D58
:100A4000B11DD2CFCF93DF93CDB7DEB729970FB6C5
:100A5000F894DEBF0FBECDBF789484B5826084BDAC
:100A600084B5816084BD85B5826085BD85B58160B2
:100A700085BD80916E00816080936E001092810030
:100A800080918100826080938100809181008160EB
:100A900080938100809180008160809380008091AC
:100AA000B10084608093B1008091B0008160809338
:100AB000B00080917A00846080937A0080917A00FF
:100AC000826080937A0080917A00816080937A00BE
:100AD00080917A00806880937A001092C100E09142
:100AE0001803F091190382E08083E0911403F091E0
:100AF00015031082E0911603F09117038FEC8083A9
:100B000010922003E0911C03F0911D0386E0808386
:100B1000E0911A03F0911B03808180618083E09152
:100B20001A03F0911B03808188608083E0911A038F
:100B3000F0911B03808180688083E0911A03F0911B
:100B40001B0380818F7D8083EBEBF0E0E491E093E9
:100B5000F402E7EAF0E0E491F0E0EE0FFF1FE05767
:100B6000FF4F859194919093F6028093F502E9EB03
:100B7000F0E0E491E093F702E5EAF0E0E491F0E0E0
:100B8000EE0FFF1FE057FF4F859194919093F9026C
:100B90008093F802E8EBF0E0E491E093FA02E4EAF3
:100BA000F0E0E491F0E0EE0FFF1FE057FF4F85917A
:100BB00094919093FC028093FB027AEBE72E70E015
:100BC000F72EF70184918093FD0206EA10E0F80108
:100BD0008491E82FF0E0EE0FFF1FEA57FF4F859159
:100BE00094919093FF028093FE0261E08DE00E9459
:100BF0003E0261E08AE00E943E0261E08BE00E94DA
:100C00003E0260E08CE00E943E02EEE7F0E084915C
:100C1000F701E490F80104910023D9F0882359F0FA
:100C2000833009F495C008F088C0813009F496C07B
:100C3000823009F497C0E02FF0E0EE0FFF1FE0577D
:100C4000FF4FA591B4918FB7F8949C91E92AEC924B
:100C50008FBF0E949B000E94AA0080E00E940D03AB
:100C600080E00E940D038091DB02813429F08337FC
:100C700019F0893709F0B9C181E0809304030BE0D2
:100C800010E09BE0C92ED12C20E4A22E21E0B22E50
:100C90007724739465E080E291E00E94C702C60168
:100CA0000197F1F70E949B000E94AA000E94210177
:100CB000C6010197F1F787E3E82E81E0F82ECE0117
:100CC00001964C01F70181917F010E94B900F40166
:100CD00081934F01AE14BF04A9F70E948C008C8150
:100CE0008093050369E087E191E00E94C70265E017
:100CF00082E191E00E94C7027092060369E089E0F8
:100D000091E00E94C7027092070369E080E091E0E1
:100D10000E94C70280E00E940D038091DB028937A8
:100D200071F1833761F10150110909F45EC18091BD
:100D300004038F5F80930403ADCF8730B1F0883018
:100D4000D1F0843009F077CF809180008F7D03C08F
:100D5000809180008F77809380006DCF84B58F77EE
:100D600084BD69CF84B58F7DFBCF8091B0008F7734
:100D70008093B00060CF8091B0008F7DF9CF83E485
:100D800091E00E945F0480910503833009F030C137
:100D900089E991E00E945F0400E010E08091D502B3
:100DA0000E940D038091F2029091F302809590953C
:100DB00083FF04C089EC91E00E945F048091F202FD
:100DC0009091F3028095909580FF04C08DED91E0A5
:100DD0000E945F048091F2029091F30280959095B9
:100DE00084FF08C082EF91E00E940E048091E5022A
:100DF0000E946D048091F2029091F302809590958B
:100E000085FF08C086E092E00E940E048091E30214
:100E10000E946D048091F2029091F302809590956A
:100E200087FF08C08DE192E00E940E048091E402E9
:100E30000E946D048091F2029091F302809590954A
:100E400086FF08C083E392E00E940E048091E602D0
:100E50000E946D048091E9028093D5028091F20294
:100E60009091F3022091F0023091F1022817390796
:100E7000C1F18095909581FF04C089E492E00E94C1
:100E80005F048091F2029091F3028095909582FF29
:100E900004C084E592E00E945F048091F202909188
:100EA000F3028095909590FF04C08FE592E00E9438
:100EB0005F048091F2029091F3028095909591FFEA
:100EC00004C08AE692E00E945F048091F202909151
:100ED000F3028095909594FF04C085E792E00E940C
:100EE0005F048091F2029091F3022091F002309120
:100EF000F102392735FB222720F9222359F080956A
:100F0000909595FB882780F9882321F086E892E068
:100F10000E945F048091F0029091F1022091F20210
:100F20003091F302392737FF08C08095909597FFDD
:100F300004C08AE992E00E945F048091F0029091DF
:100F4000F1022091F2023091F3028227932796FF5B
:100F500004C08FEA92E00E945F048091F2029091B7
:100F6000F3028095909588279C70892B61F18EEB18
:100F700092E00E940E046091E20270E090E080E056
:100F80004AE00E941B048DEC92E00E940E046091E6
:100F9000E10270E090E080E04AE00E941B048DECEA
:100FA00092E00E940E046091E00270E090E080E028
:100FB0004AE00E941B048DEC92E00E940E04809196
:100FC000DF020E946D0462E370E080E090E00E9426
:100FD00094020115110509F4E1CE0E949B018823BA
:100FE00009F4DCCE0E940000D9CE8BE691E0C9CE98
:100FF00086EB91E00E945F04FFCFE8E0F3E013820C
:10100000128288EE93E0A0E0B0E084839583A6830B
:10101000B78389E291E09183808385EC90E09587A6
:10102000848784EC90E09787868780EC90E0918BB2
:10103000808B81EC90E0938B828B82EC90E0958B9F
:10104000848B86EC90E0978B868B118E128E138E9C
:10105000148E0895052E97FB1EF400940E944108FB
:1010600057FD07D00E94490807FC03D04EF40C94AA
:10107000410850954095309521953F4F4F4F5F4F18
:10108000089590958095709561957F4F8F4F9F4FF4
:101090000895A1E21A2EAA1BBB1BFD010DC0AA1FB9
:1010A000BB1FEE1FFF1FA217B307E407F50720F0D1
:1010B000A21BB30BE40BF50B661F771F881F991F4C
:1010C0001A9469F760957095809590959B01AC0195
:1010D000BD01CF010895A29FB001B39FC001A39F9E
:1010E000700D811D1124911DB29F700D811D112461
:1010F000911D08955058BB27AA270E9492080C946E
:1011000093090E94850938F00E948C0920F039F477
:101110009F3F19F426F40C9482090EF4E095E7FB46
:101120000C947C09E92F0E94A40958F3BA176207AE
:1011300073078407950720F079F4A6F50C94C60987
:101140000EF4E0950B2EBA2FA02D0B01B9019001E2
:101150000C01CA01A0011124FF27591B99F0593F26
:1011600050F4503E68F11A16F040A22F232F342F6E
:101170004427585FF3CF469537952795A795F040BC
:101180005395C9F77EF41F16BA0B620B730B840BD1
:10119000BAF09150A1F0FF0FBB1F661F771F881F89
:1011A000C2F70EC0BA0F621F731F841F48F48795E1
:1011B00077956795B795F7959E3F08F0B0CF9395D3
:1011C000880F08F09927EE0F9795879508950E944C
:1011D000580908F481E008950E94AC0988F09F57EF
:1011E00098F0B92F9927B751B0F0E1F0660F771F4B
:1011F000881F991F1AF0BA95C9F714C0B13091F041
:101200000E94C609B1E008950C94C609672F782F93
:101210008827B85F39F0B93FCCF386957795679505
:10122000B395D9F73EF490958095709561957F4F71
:101230008F4F9F4F0895E89409C097FB3EF4909517
:101240008095709561957F4F8F4F9F4F9923A9F09F
:10125000F92F96E9BB279395F6958795779567952E
:10126000B795F111F8CFFAF4BB0F11F460FF1BC072
:101270006F5F7F4F8F4F9F4F16C0882311F096E905
:1012800011C0772321F09EE8872F762F05C06623B3
:1012900071F096E8862F70E060E02AF09A95660F6C
:1012A000771F881FDAF7880F9695879597F9089525
:1012B000990F0008550FAA0BE0E8FEEF1616170667
:1012C000E807F907C0F012161306E407F50798F0CF
:1012D000621B730B840B950B39F40A2661F0232BE8
:1012E000242B252B21F408950A2609F4A140A69564
:1012F0008FEF811D811D089597F99F6780E870E049
:1013000060E008959FEF80EC089500240A9416167B
:10131000170618060906089500240A9412161306E3
:10132000140605060895092E0394000C11F4882371
:1013300052F0BB0F40F4BF2B11F460FF04C06F5F8D
:101340007F4F8F4F9F4F089557FD9058440F551F63
:1013500059F05F3F71F04795880F97FB991F61F037
:101360009F3F79F087950895121613061406551FAE
:10137000F2CF4695F1DF08C0161617061806991F1A
:10138000F1CF86957105610508940895E894BB270F
:1013900066277727CB0197F908950E94580908F42A
:1013A0008FEF0895EE0FFF1F0590F491E02D099443
:0413B000F894FFCFDF
:1013B400014300005A5A5A5A5A014F00FFFF0300D2
:1013C4000000014D00000101440001030000000081
:1013D400014300010000000000D10131015E011E43
:1013E400028F016D0181010145005A5A5A5A5A5A15
:1013F4000D0A00466F756E6420636F6E74726F6CB5
:101404006C65722C20636F6E666967757265642003
:101414007375636365737366756C004E6F20636FD9
:101424006E74726F6C6C657220666F756E64206F7B
:1014340072206E6F7420616363657074696E6720D7
:10144400636F6D6D616E647300436F6E74726F6C65
:101454006C65722074797065206973204475616CC1
:1014640053686F636B00416E6F7468657220636FBD
:101474006E74726F6C6C65720053544152542069DF
:1014840073206265696E672068656C640053454C1F
:10149400454354206973206265696E672068656CF2
:1014A400640055502068656C642074686973206812
:1014B4006172643A200052494748542068656C645C
:1014C400207468697320686172643A20004C454650
:1014D400542068656C642074686973206861726460
:1014E4003A2000444F574E2068656C642074686944
:1014F4007320686172643A20004C33207072657303
:101504007365640052332070726573736564004CB4
:101514003220707265737365640052322070726594
:101524007373656400545249414E474C45207072B0
:10153400657373656400434952434C45206A75736F
:10154400742070726573736564005351554152453C
:10155400206A7573742072656C65617365640058E4
:10156400206A757374206368616E676564005374E0
:1015740069636B2056616C7565733A20002C2000FA
:00000001FF
