:100000000C944D010C947E010C947E010C947E01A5
:100010000C947E010C947E010C947E010C947E0164
:100020000C947E010C947E010C947E010C947E0154
:100030000C947E010C947E010C947E010C947E0144
:100040000C947E010C947E010C947E010C947E0134
:100050000C947E010C947E010C947E010C943D0462
:100060000C947E010C9407040C94DD030C947E0127
:100070000C947E010C947E010C947E010C947E0104
:100080000C947E010C947E010C947E010C947E01F4
:100090000C947E010C947E010C947E010C947E01E4
:1000A0000C947E010C947E010C947E010C947E01D4
:1000B0000C947E010C947E010C947E010C947E01C4
:1000C0000C947E010C947E010C947E010C947E01B4
:1000D0000C947E010C947E010C947E010C947E01A4
:1000E0000C947E010C9406020C94E4010C943003F1
:1000F0000C943E020C9436030C9444030C940C03B1
:100100000C94F8010C9460030C9440030C948B0243
:100110000C9425030C9456030C943A030C9452034C
:100120000C9421030C94A8010C9411030C944E031D
:100130000C94D5010C94A3050C945C030C942D0332
:100140000C9448030C94290300002000230026008F
:1001500029002C002F0032000001000003010601DD
:10016000090100000A0B02090C0D0E080703040127
:10017000000000000000000000000000000000007F
:10018000000000000000000000000000000012114C
:10019000100000000000000000000000000000004F
:1001A000000000000000000000000000000000004F
:1001B00000000000000000000000220025002800D0
:1001C0002B002E003100340002010000050108015F
:1001D0000B0100002100240027002A002D00300020
:1001E000330001010000040107010A0105050505AE
:1001F000070508080808020202020A0A080804049F
:1002000004040101010101010101030303030303CC
:100210000303040707070C0C0C0C0C0C0C0C02025B
:10022000020206060606060606060B0B0B0B0B0B58
:100230000B0B0A0A0A0A0A0A08080707050505043B
:1002400004040102102020080810204010204080E3
:10025000020102010804020101020408102040808A
:100260008040201008040201800402018040201018
:100270000804020108040201010204081020408061
:1002800001020408102040800408102040800480EF
:100290000810044080102040A30511241FBECFEF9A
:1002A000D1E2DEBFCDBF00E00CBF12E0A0E0B2E0C3
:1002B000E8EFFBE000E00BBF02C007900D92AC330B
:1002C000B107D9F722E0ACE3B2E001C01D92A23E33
:1002D000B207E1F711E0CDE4D1E000E006C02197DC
:1002E0000109802FFE010E94F205CC34D10780E085
:1002F0000807A9F70E9487040C94FA050C940000E3
:10030000CF93DF9390E0FC01EE5BFD4F249184518D
:100310009E4FFC0184918823C1F090E0880F991FC3
:10032000FC01EE52FE4FC591D491FC01E854FE4F02
:10033000A591B4919FB7F8943881822F809583233B
:100340008883EC91E22BEC939FBFDF91CF910895CE
:10035000AF92BF92CF92DF92EF92FF920F931F93D3
:10036000CF93DF936C017B018B01040F151FEB0111
:100370005E01AE18BF08C017D10759F06991D601C8
:10038000ED91FC910190F081E02DC6011995892B2A
:1003900079F7C501DF91CF911F910F91FF90EF90F9
:1003A000DF90CF90BF90AF900895FC01538D448DA6
:1003B000252F30E0842F90E0821B930B541710F010
:1003C000CF96089501970895FC01918D828D98171D
:1003D00061F0A28DAE0FBF2FB11D5D968C91928DF5
:1003E0009F5F9F73928F90E008958FEF9FEF089526
:1003F000FC01918D828D981731F0828DE80FF11DEF
:10040000858D90E008958FEF9FEF0895FC01918D09
:10041000228D892F90E0805C9F4F821B91098F7302
:100420009927089585E492E00E94060221E0892B35
:1004300009F420E0822F0895FC01A48DA80FB92FA4
:10044000B11DA35ABF4F2C91848D90E001968F73FC
:100450009927848FA689B7892C93A089B1898C911B
:10046000837080648C93938D848D981306C002886A
:10047000F389E02D80818F7D80830895EF92FF9234
:100480000F931F93CF93DF93EC0181E0888F9B8DB7
:100490008C8D98131AC0E889F989808185FF15C071
:1004A0009FB7F894EE89FF896083E889F989808194
:1004B0008370806480839FBF81E090E0DF91CF9163
:1004C0001F910F91FF90EF900895F62E0B8D10E085
:1004D0000F5F1F4F0F731127E02E8C8D8E110CC0F4
:1004E0000FB607FCFACFE889F989808185FFF5CF3F
:1004F000CE010E941C02F1CFEB8DEC0FFD2FF11D00
:10050000E35AFF4FF0829FB7F8940B8FEA89FB897B
:1005100080818062CFCFCF93DF93EC01888D8823D9
:10052000B9F0AA89BB89E889F9898C9185FD03C056
:10053000808186FD0DC00FB607FCF7CF8C9185FF3B
:10054000F2CF808185FFEDCFCE010E941C02E9CF62
:10055000DF91CF91089580E090E0892B29F00E94EF
:10056000120281110E94000080E090E0892B49F086
:1005700080E090E0892B29F00E94000081110E9408
:10058000000080E090E0892B49F080E090E0892B2A
:1005900029F00E94000081110E94000080E090E09C
:1005A000892B49F080E090E0892B29F00E9400001F
:1005B00081110C9400000895282F30E0F901EE59C4
:1005C000FE4F9491F901EE5BFD4F449124513E4F53
:1005D000F9012491222309F477C0992311F1915054
:1005E0009231F8F4E92FF0E08827E650FD4F8F4F65
:1005F0000C94F20529032D030C0321032503110399
:10060000300336033A034003440348034E035203C6
:10061000110356035C036003809180008F77809301
:100620008000E22FF0E0EE0FFF1FE85BFE4FA59188
:10063000B491EC91E42381E090E009F047C080E0C0
:100640000895809180008F7DEACF80918000877F20
:10065000E6CF84B58F7784BDE4CF84B58F7DFBCFA3
:100660008091B0008F778093B000DBCF8091B00095
:100670008F7DF9CF809190008F7780939000D1CFBC
:10068000809190008F7DF9CF80919000877FF5CF8A
:100690008091A0008F778093A000C3CF8091A000AD
:1006A0008F7DF9CF8091A000877FF5CF80912001C9
:1006B0008F7780932001B5CF809120018F7DF9CF76
:1006C00080912001877FF5CF80E090E008953FB7CB
:1006D000F8948091410290914202A0914302B0911E
:1006E000440226B5A89B05C02F3F19F00196A11D15
:1006F000B11D3FBFBA2FA92F982F8827BC01CD016C
:10070000620F711D811D911D42E0660F771F881FCA
:10071000991F4A95D1F70895FC0101900020E9F74F
:100720003197AF01481B590BBC0185E492E00C9452
:10073000A8018F929F92AF92BF920F931F93CF9376
:10074000DF93CDB7DEB7A1970FB6F894DEBF0FBE2B
:10075000CDBF19A2423008F44AE08E010F5D1F4F51
:10076000842E912CB12CA12CA50194010E94D005BE
:10077000E62FB901CA01EA30F4F4E05DD801EE9346
:100780008D01232B242B252B79F790E080E0109707
:1007900019F0CD010E948C03A1960FB6F894DEBF2C
:1007A0000FBECDBFDF91CF911F910F91BF90AF9042
:1007B0009F908F900895E95CE1CF1F920F920FB642
:1007C0000F9211240BB60F922F933F934F935F9389
:1007D0006F937F938F939F93AF93BF93EF93FF9309
:1007E00085E492E00E941C02FF91EF91BF91AF91CE
:1007F0009F918F917F916F915F914F913F912F9139
:100800000F900BBE0F900FBE0F901F9018951F9268
:100810000F920FB60F9211240BB60F922F938F9356
:100820009F93EF93FF93E0915502F09156028081E0
:10083000E0915B02F0915C0282FD1DC0908180918D
:100840005E028F5F8F7320915F02821741F0E0910B
:100850005E02F0E0EB5BFD4F958F80935E02FF91AF
:10086000EF919F918F912F910F900BBE0F900FBE24
:100870000F901F9018958081F2CF1F920F920FB6A4
:100880000F9211242F933F938F939F93AF93BF9316
:1008900080913D0290913E02A0913F02B0914002B2
:1008A00030913C0223E0230F2D3758F50196A11D0E
:1008B000B11D20933C0280933D0290933E02A09391
:1008C0003F02B09340028091410290914202A09178
:1008D0004302B09144020196A11DB11D80934102D3
:1008E00090934202A0934302B0934402BF91AF9110
:1008F0009F918F913F912F910F900FBE0F901F905E
:10090000189526E8230F0296A11DB11DD2CF789429
:1009100084B5826084BD84B5816084BD85B5826004
:1009200085BD85B5816085BD80916E0081608093B5
:100930006E0010928100809181008260809381001E
:10094000809181008160809381008091800081602E
:10095000809380008091B10084608093B100809189
:10096000B00081608093B00080919100826080939C
:10097000910080919100816080939100809190001E
:100980008160809390008091A10082608093A1009B
:100990008091A10081608093A1008091A00081607E
:1009A0008093A00080912101826080932101809139
:1009B00021018160809321018091200181608093D9
:1009C000200180917A00846080937A0080917A007F
:1009D000826080937A0080917A00816080937A00AF
:1009E00080917A00806880937A001092C100E09133
:1009F0005502F091560282E08083E0915102F0911D
:100A000052021082E0915302F091540280E18083FF
:100A100010925D02E0915902F0915A0286E08083C3
:100A2000E0915702F0915802808180618083E091CB
:100A30005702F0915802808188608083E0915702CC
:100A4000F0915802808180688083E0915702F09194
:100A5000580280818F7D808384E20E94800185E23C
:100A60000E94800182E192E00E948C0384E20E9455
:100A7000DC026C01990FEE08FF084AE0C701B601DD
:100A8000F7FE0DC06DE285E492E00E943E0266270B
:100A90007727CB016C197D098E099F094AE00E94D6
:100AA000990385E292E00E948C0388E292E00E9422
:100AB0008C0385E20E94DC026C01990FEE08FF08AE
:100AC0004AE0C701B601F7FE0DC06DE285E492E091
:100AD0000E943E0266277727CB016C197D098E099B
:100AE0009F094AE00E94990385E292E00E948C03EC
:100AF00085E292E00E948C030E9467034B015C0137
:100B000082E3C82ED12CE12CF12C0E9467036819D6
:100B100079098A099B09683E734081059105A8F30C
:100B200021E0C21AD108E108F10888EE880E83E0BE
:100B3000981EA11CB11CC114D104E104F10429F7D1
:100B40000E94AB028FCFE5E4F2E01382128288EEBE
:100B500093E0A0E0B0E084839583A683B78384E02C
:100B600092E09183808385EC90E09587848784EC84
:100B700090E09787868780EC90E0918B808B81EC6A
:100B800090E0938B828B82EC90E0958B848B86EC4B
:100B900090E0978B868B118E128E138E148E089593
:100BA000A1E21A2EAA1BBB1BFD010DC0AA1FBB1F71
:100BB000EE1FFF1FA217B307E407F50720F0A21BE3
:100BC000B30BE40BF50B661F771F881F991F1A9450
:100BD00069F760957095809590959B01AC01BD017A
:100BE000CF010895EE0FFF1F881F8BBF0790F6916E
:080BF000E02D1994F894FFCFE9
:100BF800000000003E02A801D5018B020602E401B4
:100C0800F801427574746F6E203336205374617422
:100C180065203D20000D0A00427574746F6E203304
:0C0C280037205374617465203D200000EB
:00000001FF
