:100000000C9431040C9462040C9462040C94620409
:100010000C9462040C9462040C9462040C946204C8
:100020000C9462040C9462040C9462040C946204B8
:100030000C9462040C9462040C9462040C946204A8
:100040000C9462040C9462040C9462040C94620498
:100050000C9462040C9462040C9462040C94FC15DD
:100060000C9462040C94C6150C949C150C946204B8
:100070000C9462040C9462040C9462040C94620468
:100080000C9462040C9462040C9462040C94620458
:100090000C9462040C9462040C9462040C94461652
:1000A0000C9462040C9462040C9462040C94620438
:1000B0000C9462040C9462040C9462040C94620428
:1000C0000C9462040C9462040C9462040C94620418
:1000D0000C9462040C9462040C9462040C94620408
:1000E0000C9462040C94C0050C94DF050C94C805B4
:1000F0000C9447050C940A120C9418140C94C5081F
:100100000C9464040C94FA040C9491040C94A004D0
:100110000C94DD090C94C2040C94B9130C940D13C7
:100120000C94F1050C94CB050C94670C0C94661799
:100130000C944E0A0C94CC0B0C94B6050C94E90567
:100140000C94ED050C94B4040C941B0E0C94BA138F
:100150000C94F6050C94BC050C9492110C948C0B29
:100160000C9463080C94E3050C94C4050C94350CB2
:100170000C94D1050C94F7050C9433110C94BF0A20
:100180000C94FB050C944B0B0C9461100C94D5054E
:100190000C94E2080C94800D0C94DB050000000028
:1001A000003E5B4F5B3E3E6B4F6B3E1C3E7C3E1CFD
:1001B000183C7E3C181C577D571C1C5E7F5E1C0043
:1001C000183C1800FFE7C3E7FF0018241800FFE7FA
:1001D000DBE7FF30483A060E2629792926407F05BD
:1001E0000507407F05253F5A3CE73C5A7F3E1C1CD3
:1001F00008081C1C3E7F14227F22145F5F005F5F93
:1002000006097F017F006689956A6060606060947E
:10021000A2FFA29408047E040810207E2010080883
:100220002A1C08081C2A08081E101010100C1E0C8E
:100230001E0C30383E3830060E3E0E060000000020
:100240000000005F00000007000700147F147F1407
:10025000242A7F2A1223130864623649562050004C
:1002600008070300001C2241000041221C002A1C38
:100270007F1C2A08083E0808008070300008080823
:100280000808000060600020100804023E51494543
:100290003E00427F400072494949462141494D3361
:1002A0001814127F1027454545393C4A49493141C8
:1002B000211109073649494936464949291E000096
:1002C00014000000403400000008142241141414EB
:1002D0001414004122140802015909063E415D59D7
:1002E0004E7C1211127C7F494949363E41414122E0
:1002F0007F4141413E7F494949417F090909013E0A
:10030000414151737F0808087F00417F4100204030
:10031000413F017F081422417F404040407F021C42
:10032000027F7F0408107F3E4141413E7F09090959
:10033000063E4151215E7F09192946264949493225
:1003400003017F01033F4040403F1F2040201F3FEB
:100350004038403F63140814630304780403615970
:10036000494D43007F4141410204081020004141B2
:10037000417F04020102044040404040000307085E
:100380000020545478407F2844443838444444285A
:10039000384444287F385454541800087E09021801
:1003A000A4A49C787F0804047800447D4000204089
:1003B000403D007F1028440000417F40007C0478CD
:1003C00004787C080404783844444438FC18242415
:1003D0001818242418FC7C08040408485454542495
:1003E00004043F44243C4040207C1C2040201C3C12
:1003F0004030403C44281028444C9090907C446409
:10040000544C44000836410000007700000041369B
:10041000080002010204023C2623263C1EA1A16121
:10042000123A4040207A3854545559215555794153
:100430002254547842215554784020545579400C28
:100440001E5272123955555559395454545939550B
:100450005454580000457C410002457D420001454E
:100460007C407D1211127DF0282528F07C545545E2
:10047000002054547C547C0A097F4932494949324E
:100480003A4444443A324A4848303A4141217A3A5F
:1004900042402078009DA0A07D3D4242423D3D402B
:1004A00040403D3C24FF2424487E4943662B2FFCDA
:1004B0002F2BFF0929F620C0887E09032054547988
:1004C000410000447D413048484A32384040227A59
:1004D000007A0A0A727D0D19317D2629292F2826D6
:1004E0002929292630484D402038080808080808DE
:1004F0000808382F10C8ACBA2F102834FA00007B37
:10050000000008142A142222142A14085500550049
:1005100055AA55AA55AAFF55FF55FF000000FF0038
:10052000101010FF00141414FF001010FF00FF1033
:1005300010F010F0141414FC001414F700FF000065
:10054000FF00FF1414F404FC141417101F10101FE4
:10055000101F1414141F00101010F0000000001FD2
:10056000101010101F10101010F010000000FF10DD
:100570001010101010101010FF10000000FF1400D9
:1005800000FF00FF00001F10170000FC04F414140B
:100590001710171414F404F40000FF00F7141414D7
:1005A00014141414F700F7141414171410101F1057
:1005B0001F141414F4141010F010F000001F101F7A
:1005C0000000001F14000000FC140000F010F010E8
:1005D00010FF10FF141414FF141010101F0000005F
:1005E00000F010FFFFFFFFFFF0F0F0F0F0FFFFFF63
:1005F0000000000000FFFF0F0F0F0F0F38444438BA
:1006000044FC4A4A4A347E02020606027E027E0208
:1006100063554941633844443C04407E201E200613
:10062000027E020299A5E7A5991C2A492A1C4C7250
:1006300001724C304A4D4D303048784830BC625AD7
:10064000463D3E494949007E0101017E2A2A2A2A67
:100650002A44445F444440514A444040444A514043
:100660000000FF0103E080FF000008086B6B083604
:1006700012362436060F090F060000181800000075
:100680001010003040FF0101001F01011E00191D64
:100690001712003C3C3C3C00000000000000210020
:1006A000240027002A002D00300033000101000043
:1006B000040107010A010000200023002600290090
:1006C0002C002F0032000001000003010601090187
:1006D00000000A0B02090C0D0E08070304010000BC
:1006E000000000000000000000000000000000000A
:1006F00000000000000000000000000012111000C7
:1007000000000000000000000000000000000000E9
:1007100000000000000000000000000000000000D9
:1007200000000000000004E010021C07123732290C
:100730002D29252B3900010310E110031D07062E7A
:100740002C292D2E2E373F0000021013800A2980FD
:1007500064022A040000007F2B040000009F0F01A8
:1007600080961180FFB103012C2DB203012C2DB313
:1007700006012C2D012C2DB40107C003A20284C157
:1007800001C5C2020A00C3028A2AC4028AEEC50158
:100790000E20003601C83A01050102102020080889
:1007A00010204010204080020102010804020101D3
:1007B00002040810204080804020100804020180BC
:1007C0000402018040201008040201080402010113
:1007D0000204081020408001020408102040800418
:1007E0000810204080048008100440801020400041
:1007F000002200250028002B002E003100340002CA
:10080000010000050108010B0105050505070508A4
:10081000080808020202020A0A0808040404040183
:1008200001010101010101030303030303030304A5
:100830000707070C0C0C0C0C0C0C0C020202020635
:10084000060606060606060B0B0B0B0B0B0B0B0A1C
:100850000A0A0A0A0A08080707050505040404002D
:10086000661711241FBECFEFD1E2DEBFCDBF00E07F
:100870000CBF13E0A0E0B2E0EAE7F6E300E00BBF54
:1008800002C007900D92AA30B107D9F724E0AAE080
:10089000B3E001C01D92AE36B207E1F714E0C1E348
:1008A000D4E000E006C021970109802FFE010E94DC
:1008B000101BC033D10780E00807A9F70E94391840
:1008C0000C943B1B0C940000AF92BF92CF92DF922E
:1008D000EF92FF920F931F93CF93DF936C017B01F5
:1008E0008B01040F151FEB015E01AE18BF08C01786
:1008F000D10759F06991D601ED91FC910190F081F9
:10090000E02DC6011995892B79F7C501DF91CF91AB
:100910001F910F91FF90EF90DF90CF90BF90AF901D
:100920000895FC01538D448D252F30E0842F90E0F5
:10093000821B930B541710F0CF96089501970895DA
:10094000FC01918D828D981761F0A28DAE0FBF2FA3
:10095000B11D5D968C91928D9F5F9F73928F90E0F9
:1009600008958FEF9FEF0895FC01918D828D981768
:1009700031F0828DE80FF11D858D90E008958FEFA5
:100980009FEF0895FC01918D228D892F90E0805C6E
:100990009F4F821B91098F739927089589E893E0EF
:1009A0000E94C20421E0892B09F420E0822F0895DF
:1009B000FC01A48DA80FB92FB11DA35ABF4F2C91D4
:1009C000848D90E001968F739927848FA689B789CB
:1009D0002C93A089B1898C91837080648C93938DC2
:1009E000848D981306C00288F389E02D80818F7D65
:1009F00080830895EF92FF920F931F93CF93DF931D
:100A0000EC0181E0888F9B8D8C8D98131AC0E8894A
:100A1000F989808185FF15C09FB7F894EE89FF8919
:100A20006083E889F98980818370806480839FBFB7
:100A300081E090E0DF91CF911F910F91FF90EF90B7
:100A40000895F62E0B8D10E00F5F1F4F0F731127C7
:100A5000E02E8C8D8E110CC00FB607FCFACFE88902
:100A6000F989808185FFF5CFCE010E94D804F1CFAE
:100A7000EB8DEC0FFD2FF11DE35AFF4FF0829FB776
:100A8000F8940B8FEA89FB8980818062CFCFCF9366
:100A9000DF93EC01888D8823B9F0AA89BB89E889A6
:100AA000F9898C9185FD03C0808186FD0DC00FB64C
:100AB00007FCF7CF8C9185FFF2CF808185FFEDCFCA
:100AC000CE010E94D804E9CFDF91CF91089580E054
:100AD00090E0892B29F00E94CE0481110E94000031
:100AE00080E090E0892B49F080E090E0892B29F0AC
:100AF0000E94000081110E94000080E090E0892B9C
:100B000049F080E090E0892B29F00E9400008111DB
:100B10000E94000080E090E0892B49F080E090E0A6
:100B2000892B29F00E94000081110C940000089587
:100B30008150823108F05AC0E82FF0E08827EC5548
:100B4000FA4F8F4F0C94101BC405C805B605BC05A1
:100B5000C005F605CB05D105D505DB05DF05E305A9
:100B6000E905ED05F605F105F705FB058091800027
:100B70008F77809380000895809180008F7DF9CFDA
:100B800080918000877FF5CF84B58F7784BD0895ED
:100B900084B58F7DFBCF8091B0008F778093B000BC
:100BA00008958091B0008F7DF9CF809190008F776C
:100BB000809390000895809190008F7DF9CF80916F
:100BC0009000877FF5CF8091A0008F778093A00061
:100BD00008958091A0008F7DF9CF8091A000877F3C
:100BE000F5CF809120018F77809320010895809127
:100BF00020018F7DF9CF80912001877FF5CFCF93A2
:100C0000DF93282F30E0F901E053F94F8491F90187
:100C1000E756F84FD491F901E75FF74FC491CC2321
:100C2000A1F081110E949805EC2FF0E0EE0FFF1F5C
:100C3000EA54F94FA591B491EC91ED2381E090E055
:100C400009F480E0DF91CF91089580E090E0FACF41
:100C50001F93CF93DF93282F30E0F901E053F94F32
:100C60008491F901E756F84FD491F901E75FF74F06
:100C7000C491CC23A9F0162F81110E949805EC2F66
:100C8000F0E0EE0FFF1FE151F84FA591B4918FB73F
:100C9000F894EC91111108C0D095DE23DC938FBF3E
:100CA000DF91CF911F910895DE2BF8CFCF93DF9383
:100CB00090E0FC01E756F84F2491875F974FFC01C5
:100CC00084918823D1F090E0880F991FFC01E456AD
:100CD000F94FA591B491FC01E151F84FC591D49120
:100CE00061110EC09FB7F8948C91E22FE0958E238E
:100CF0008C932881E223E8839FBFDF91CF910895F1
:100D00008FB7F894EC91E22BEC938FBFF6CF3FB7FF
:100D1000F8948091810390918203A0918303B09114
:100D2000840326B5A89B05C02F3F19F00196A11D8D
:100D3000B11D3FBFBA2FA92F982F8827BC01CD0125
:100D4000620F711D811D911D42E0660F771F881F84
:100D5000991F4A95D1F708958F929F92AF92BF92B3
:100D6000CF92DF92EF92FF926B017C010E94870687
:100D70004B015C01C114D104E104F104B9F00E94FB
:100D80008706681979098A099B09683E73408105BD
:100D9000910580F321E0C21AD108E108F10888EE3C
:100DA000880E83E0981EA11CB11CE4CFFF90EF9049
:100DB000DF90CF90BF90AF909F908F90089520913B
:100DC0003103260F3327331F21323105ECF42091F4
:100DD0005503FC0190E080E0243069F082E0089542
:100DE000A09131032191AC014F5E5C4FA40FB52F50
:100DF000B11D2C930196861798F380913103680FEB
:100E00006093310380E0089581E0089508958FEFA5
:100E10009FEF08958FEF9FEF089580910A0390E070
:100E20009195819591090895CF93DF93CB01EA01C4
:100E3000642F0E94DF06CE01DF91CF910895CF93FA
:100E4000DF931F92CDB7DEB7698361E0CE010196D3
:100E50000E94DF0681E090E00F90DF91CF9108952E
:100E6000FC01A5A1B6A18C9192A589238C93A5A183
:100E7000B6A18C9191A5892B8C930895DC01939652
:100E8000ED91FC919497908198968C918923808321
:100E90000895DC019396ED91FC919497908197963B
:100EA0008C91892B80830895DC019196ED91FC91C2
:100EB0009297908196968C91892380830895DC0186
:100EC0009196ED91FC919297908195968C91892BBA
:100ED00080830895CF92DF92EF92FF921F93CF937A
:100EE000DF93EC016A017B018DA9811123C08F2D55
:100EF0009927AA27BB278EBD0DB407FEFDCFC701DA
:100F0000AA27BB278EBD0DB407FEFDCFBB27AF2D93
:100F10009E2D8D2D8EBD0DB407FEFDCFCEBC0DB424
:100F200007FEFDCFDF91CF911F91FF90EF90DF90F3
:100F3000CF9008958130B1F410E2CE01F7FE0FC0DA
:100F40000E945F07CE010E944907CE010E943E0722
:100F5000CC0CDD1CEE1CFF1C115079F7E3CF0E9476
:100F60005407F0CFEF8DF8A18F2D9927AA27BB2723
:100F70008083CE010E943007EF8DF8A1C701AA2718
:100F8000BB278083CE010E943007EF8DF8A1BB27DD
:100F9000AF2D9E2D8D2D8083CE010E943007EF8DC9
:100FA000F8A1C082CE01DF91CF911F91FF90EF9009
:100FB000DF90CF900C943007FF920F931F93CF9345
:100FC000DF93EC018B018DA981110EC01EBD0DB404
:100FD00007FEFDCF0EBD0DB407FEFDCFDF91CF9113
:100FE0001F910F91FF9008958130B1F490E1F92E97
:100FF000CE0117FF0EC00E945F07CE010E94490775
:10100000CE010E943E07000F111FFA94F110F0CF9D
:10101000E5CF0E945407F1CFEF8DF8A11083CE01E8
:101020000E943007EF8DF8A10083CE01DF91CF91B0
:101030001F910F91FF900C9430070F931F93CF9344
:10104000DF93EC01162F8DA9811109C06EBD0DB47F
:1010500007FEFDCFDF91CF911F910F910895813051
:1010600099F408E0CE0117FF0CC00E945F07CE0183
:101070000E944907110FCE010E943E07015091F7CF
:10108000E9CF0E945407F3CFEF8DF8A16083CE0122
:10109000DF91CF911F910F910C943007CF93DF9385
:1010A000EC01ED8DFE8D80819CA989238083CE018A
:1010B0000E941D08ED8DFE8D80819BA9892B808368
:1010C000DF91CF9108958F929F92AF92BF92CF926E
:1010D000DF92EF92FF920F931F93CF93DF93EC0178
:1010E00089AD9AAD680F791F8BAD9CAD480F591F24
:1010F00021503109260F371F4901B12CA12CCB01FA
:10110000B0E0A0E0DC0199278827882A992AAA2A3A
:10111000BB2A680181E0C81AD108C40ED51EF12C83
:10112000E12C70E060E0BA0155274427C42AD52A93
:10113000E62AF72A6AE2CE010E944E08B501A40110
:10114000CE010E946A076BE2CE010E944E08B701F1
:10115000A601CE010E946A076CE2CE01DF91CF9119
:101160001F910F91FF90EF90DF90CF90BF90AF90C5
:101170009F908F900C944E08FC0185A9811104C0AA
:1011800091A182A19CBD8DBD08951F93CF93DF9344
:10119000EC01162FE881F9810284F385E02D199581
:1011A000112371F06DADCE010E944E08E881F981E6
:1011B0000688F789E02DCE01DF91CF911F91199418
:1011C0006EADF1CFAF92BF92CF92DF92EF92FF92CE
:1011D0000F931F93CF93DF93EC0177FD38C0888581
:1011E0009985681779079CF557FD31C08A859B85DD
:1011F0004817590764F569017A015B01E881F981B3
:101200000284F385E02DCE011995E881F98102A4CD
:10121000F3A5E02D01E010E021E030E0A701B501E9
:10122000CE011995B601CE010E94DC07E881F98153
:101230000688F789E02DCE01DF91CF911F910F91A4
:10124000FF90EF90DF90CF90BF90AF901994DF9117
:10125000CF911F910F91FF90EF90DF90CF90BF90B3
:10126000AF9008958F929F92AF92BF92CF92DF92EC
:10127000EF92FF920F931F93CF93DF93EC014901FD
:101280005701E881F98102A4F3A5E02D1995940195
:10129000D8010E94181B6B017C01C114D104E10428
:1012A000F10409F47DC08DA9811115C081E0C81A2F
:1012B000D108E108F1088FEFC816D806E806F8064D
:1012C00009F46EC0BEBC0DB407FEFDCFAEBC0DB4BC
:1012D00007FEFDCFEBCF813099F581E0C81AD10828
:1012E000E108F1088FEFC816D806E806F80609F4F9
:1012F00057C00B2D18E0CE0107FF1CC00E945F07EE
:10130000CE010E944907CE010E943E07000F1150F6
:1013100091F70A2D18E0CE0107FF0FC00E945F076A
:10132000CE010E944907CE010E943E07000F1150D6
:1013300091F7D3CF0E945407E3CF0E945407F0CF18
:10134000BA1016C0CC0CDD1CEE1CFF1CEF8DF8A1F2
:10135000B08281E0C81AD108E108F1088FEFC81601
:10136000D806E806F806E1F0CE010E943007F1CF7A
:1013700081E0C81AD108E108F1088FEFC816D80635
:10138000E806F80669F0EF8DF8A1B082CE010E9460
:101390003007EF8DF8A1A082CE010E943007E8CF80
:1013A000DF91CF911F910F91FF90EF90DF90CF9041
:1013B000BF90AF909F908F9008958F929F92AF9221
:1013C000BF92CF92DF92EF92FF920F931F93CF9332
:1013D000DF935C014B016A01E90177FD52C0DC013A
:1013E00018968D919C91681779070CF04AC0209748
:1013F00009F447C037FF07C0C9010196C80ED91EBE
:10140000D195C195D109F50182859385C816D90674
:10141000C4F5A6014C0F5D1F9A012150310937FD1B
:1014200030C0D7FE03C0EA01D12CC12C28173907E0
:101430001CF0EC01CC19DD09D501ED91FC91028481
:10144000F385E02DC501199578018E0121E030E08A
:10145000A601B401C5010E943209D501ED91FC91AC
:101460000688F789E02DC501DF91CF911F910F917B
:10147000FF90EF90DF90CF90BF90AF909F908F90B4
:101480001994DF91CF911F910F91FF90EF90DF9012
:10149000CF90BF90AF909F908F9008958F929F9222
:1014A000AF92BF92CF92DF92EF92FF920F931F9372
:1014B000CF93DF935C016B014A01E90157FD52C0F4
:1014C000DC011A968D919C91481759070CF04AC07F
:1014D000209709F447C037FF07C0C9010196C80E1D
:1014E000D91ED195C195D109F50180859185C81680
:1014F000D906C4F5A6014C0F5D1F9A012150310990
:1015000037FD30C0D7FE03C0EA01D12CC12C28170B
:1015100039071CF0EC01CC19DD09D501ED91FC91E6
:101520000284F385E02DC5011995780101E010E0F2
:101530009E01A401B601C5010E943209D501ED91B9
:10154000FC910688F789E02DC501DF91CF911F91AD
:101550000F91FF90EF90DF90CF90BF90AF909F9052
:101560008F901994DF91CF911F910F91FF90EF9081
:10157000DF90CF90BF90AF909F908F9008958F9203
:101580009F92AF92BF92CF92DF92EF92FF920F9312
:101590001F93CF93DF934C016B015A01E901209710
:1015A00009F46CC00115110509F468C037FF07C0C4
:1015B000C9010196C80ED91ED195C195D109F40172
:1015C000A085B185CA16DB060CF058C017FF07C00E
:1015D000C8010196A80EB91E119501951109F401D3
:1015E00082859385A816B9060CF048C0F601EC0F69
:1015F000FD1FAF014150510957FD40C0B501600FBB
:10160000711F9B012150310937FD38C0D7FE03C03F
:10161000EF01D12CC12CB7FE03C08B01B12CA12C42
:101620004A175B071CF0ED01CC19DD0928173907B3
:101630001CF08C010A191B09D401ED91FC91028464
:10164000F385E02DC40119959E01A501B601C401E1
:101650000E943209D401ED91FC910688F789E02DB2
:10166000C401DF91CF911F910F91FF90EF90DF9018
:10167000CF90BF90AF909F908F901994DF91CF91B2
:101680001F910F91FF90EF90DF90CF90BF90AF90A0
:101690009F908F900895EF92FF920F931F93CF9397
:1016A000DF9377FD32C0DC011896ED91FC916E1747
:1016B0007F075CF52115310541F137FF07C0F901BE
:1016C00031964E0F5F1F319521953109DC011A9635
:1016D000ED91FC914E175F07C4F4EA01C20FD31FCE
:1016E000DE011197B7FD11C057FF03C09E0150E006
:1016F00040E0AE17BF071CF09F01241B350B78019B
:10170000890121E030E00E943209DF91CF911F91E1
:101710000F91FF90EF900895EF92FF920F931F9318
:10172000CF93DF9357FD31C0DC011A96ED91FC9108
:101730004E175F0754F52115310539F137FF07C002
:10174000F90131966E0F7F1F319521953109DC012A
:101750001896ED91FC916E177F07BCF4EB01C20F58
:10176000D31FDE011197B7FD10C077FF03C09E01A4
:1017700070E060E0AE17BF071CF09F01261B370B1F
:10178000780101E010E00E943209DF91CF911F91B2
:101790000F91FF90EF9008958F929F92AF92BF921A
:1017A000CF92DF92EF92FF920F931F93CF93DF932D
:1017B00047012115310509F44BC00115110509F444
:1017C00047C037FF07C0F90131966E0F7F1F319573
:1017D00021953109DC011896AD90BC906A157B0506
:1017E000BCF517FF07C0F80131964E0F5F1F11952A
:1017F00001951109DC011A96ED91FC914E175F07D6
:101800003CF56B01C20ED31EE6012197D7FD20C027
:101810007A01E00EF11ED7011197B7FD19C077FFCD
:1018200003C0960170E060E057FF03C0870150E0FD
:1018300040E0CA15DB051CF09501261B370BAE17DF
:10184000BF071CF08F01041B150B74010E943209A5
:10185000DF91CF911F910F91FF90EF90DF90CF908C
:10186000BF90AF909F908F900895EF92FF920F934B
:101870001F93CF93DF93EC0177FD22C08885998574
:1018800068177907ECF457FD1BC08A859B854817BC
:101890005907B4F47901E881F98102A4F3A5E02D98
:1018A00001E010E021E030E0CE011995B701CE0152
:1018B000DF91CF911F910F91FF90EF900C94DC0777
:1018C000DF91CF911F910F91FF90EF900895CF93EB
:1018D000DF93EC010E94BC088FA987FD06C0EB8D49
:1018E000FC8D80819AA989238083DF91CF9108950F
:1018F0000895AF92BF92CF92DF92EF92FF920F9333
:101900001F93CF93DF93BC016F5F7F4FFC01149156
:10191000115008F47AC0FB01D4917B01F2E0EF0E84
:10192000F11CFB0131960491C02FCF7787E294E040
:101930000E94BC0880915E0487FD09C0E0914204CA
:10194000F091430480819091590489238083E09130
:101950004404F0914504808190915B048923808345
:101960006D2F87E294E00E941D08E0914404F091FD
:101970004504808190915A04892B8083F701B12C12
:10198000A12CD0E0AC16BD06F4F480915C046F018C
:10199000823081F480915704882361F061917191C4
:1019A0006F0187E294E00E94DC07EFEFAE1ABE0AF7
:1019B000F601E8CF8FEFC81AD80A649187E294E065
:1019C0000E941D08F2CF80915E0487FD09C0E0915E
:1019D0004204F0914304808190915804892B8083C4
:1019E000B7016C0F7D1F07FF93CFEB012196FB0121
:1019F000649170E06F3F710511F464EF71E090E065
:101A000080E00E94AC06BE0183CFDF91CF911F9191
:101A10000F91FF90EF90DF90CF90BF90AF9008951F
:101A20000F931F93CF93DF93EC018B010E94BC08AF
:101A30008FA987FD06C0EB8DFC8D80819AA9892333
:101A40008083ED8DFE8D80819CA98923808366E350
:101A5000CE010E941D08ED8DFE8D80819BA9892BF2
:101A600080838DA9F801823091F06081CE010E94BF
:101A70001D088FA987FD06C0EB8DFC8D808199A97B
:101A8000892B8083DF91CF911F910F91089588A9B1
:101A9000882359F360817181CE010E94DC07E9CF70
:101AA000CF93DF931F92CDB7DEB7FC01198263702D
:101AB000668BDC01AD5BBF4F2C9130E011968C91B1
:101AC00090E0623031F06330C9F0613081F040EC79
:101AD000498332AF21AF94AF83AFBE016F5F7F4FB9
:101AE000CF010E94100D0F90DF91CF91089540EA31
:101AF000498334AF23AF92AF81AFEFCF40E6F8CF49
:101B0000CF93DF931F92CDB7DEB7FC0119826370CC
:101B1000668BDC01AA5BBF4F8C91982F9B7FAF0136
:101B20004C5B5F4F913031F493E0623008F091E00C
:101B3000DA019C939F012D5B3F4F623009F44CC04A
:101B4000633009F45BC0613069F1823021F098ECB8
:101B5000843009F046C090EC99838130D1F480E85C
:101B600090E09387828791878087D9018C9190E05C
:101B700092AF81AFDA018C9190E094AF83AFBE0158
:101B80006F5F7F4FCF010E94100D0F90DF91CF91BB
:101B90000895843051F580EA90E09387828780E54C
:101BA00090E0E1CF823019F098EA843071F590EA44
:101BB00099838130B1F580E890E0918780879387A1
:101BC0008287D9018C9190E094AF83AFDA018C9138
:101BD00090E092AF81AFD3CF823049F08430D9F218
:101BE00098E09983813009F4BACF8630A1F280EA77
:101BF00090E09387828780E890E0B5CF823019F03B
:101C000098E6843011F490E6D3CF9983813099F22D
:101C1000863051F480EA90E09187808780E590E0FB
:101C2000CECF8430B9F3F4CF80EA90E091878087FB
:101C300080E890E0C4CFFC0187A987FD06C0A38D92
:101C4000B48D9C9181A9892B8C9308950895FC01F2
:101C50006370668B8481958126813781613039F08C
:101C6000633029F0918780873387228708953187F1
:101C700020879387828708952F923F924F925F9299
:101C80006F927F928F929F92AF92BF92CF92DF928C
:101C9000EF92FF920F931F93CF93DF93CDB7DEB7F1
:101CA0006A970FB6F894DEBF0FBECDBF9A8F898FAB
:101CB0007A8369834A01D22E18870F833701BC2C9F
:101CC000DC0159962D913C915A972115310509F067
:101CD00015C118968D919C911997681779070CF08A
:101CE000D7C11A968D919C91481759070CF0D0C115
:101CF0004C2C512CB6E0CB9E600D711D11247C87BD
:101D00006B87161617060CF0C3C1EA2DF0E0FA87B0
:101D1000E98793E0EE0FFF1F9A95E1F7F88BEF87C5
:101D2000CF01840F951F181619060CF0B1C1A98DAB
:101D3000BA8D58968C91811104C0BFEABD1508F484
:101D4000D394A98DBA8DED91FC9111970284F385FE
:101D5000E02DCD011995B5E0DB9EC0011124E9818C
:101D6000FA81FC83EB83312C212C9C0124563E4FBD
:101D7000388F2F8B4A2D50E05E8B4D8BEF89F88D7D
:101D8000E20DF31D44919E828D82D12CC12C69817C
:101D90007A81620D731D7A8B698B842F90E09C8B06
:101DA0008B8BE98DFA8DA081B18140FF82C0F1E07B
:101DB000BF126FC0AF126DC01C96ED91FC912F81C8
:101DC0003885A4014C0D5D1D69897A89898D9A8DAC
:101DD0001995EB89FC89F595E7954E2F5FEFC51AAC
:101DE000D50A6D817E818D899E89680F791F7E83DA
:101DF0006D8398E0C916D10481F6AFEF2A1A3A0A2A
:101E0000EB81FC81E40DF51DFC83EB83F5E02F16DF
:101E1000310409F0B3CF2F81388526153705B9F085
:101E2000A98DBA8DED91FC91B1E0BB1257C0AB12F8
:101E300055C069817A816B5F7F4F0088F189E02D01
:101E4000830128E030E0A401898D9A8D1995A98D30
:101E5000BA8DED91FC9111970688F789E02DCD019F
:101E60006A960FB6F894DEBF0FBECDBFDF91CF915B
:101E70001F910F91FF90EF90DF90CF90BF90AF90A8
:101E80009F908F907F906F905F904F903F902F909A
:101E900019941E96ED91FC91EF80F88409851A85BE
:101EA00092014D815E816B817C81898D9A8D19951E
:101EB00090CF2F8138852615370509F48ACF31E078
:101EC000B31207C0A31205C01C96ED91FC919301BB
:101ED00078CF1E96ED91FC917301E0CF6B857C85E8
:101EE000641975090684F785E02D73010F8518893B
:101EF0009201A401898D9A8D1995A9CFF901349683
:101F00009491329745915491D91AB7E0DB9E400DD8
:101F1000511D1124F901259134913C8B2B8BFA0131
:101F200025903490FA013296749031963491398B21
:101F3000329664903196449041E04C1518F04A1561
:101F400008F07FC0662D062C000C770B7C836B831A
:101F5000842D042C000C990B9E838D83A98DBA8D42
:101F6000ED91FC9111970284F385E02DCD01199537
:101F7000512CD12CC12CEA2DF0E0FA87E9872B2DCA
:101F800030E03C872B87A401440D511D47FC5A9536
:101F9000588F4F8B69817A81660D711D67FC7A9528
:101FA0007E876D877989C71608F051CF2C2D30E0D8
:101FB0004D815E81420F531FA985BA854A9FC0019A
:101FC0004B9F900D5A9F900D1124FC01E80DF91DB7
:101FD000F88BEF87852D612C4F89588D420F531F49
:101FE0005E8B4D8B671408F050C044244394480E18
:101FF000877041F4C1010196EB89FC89E20DF31D64
:10200000D4901C01D7FE19C0A98DBA8DED91FC9119
:10201000662D70E0B1E0BB1219C0AB1217C02D8560
:102020003E85620F731F0484F585E02D2F8138856E
:102030004D895E89898D9A8D1995DD0C6394842D67
:10204000D1CF1E821D821C821B8288CF4B815C8176
:10205000640F751FAB85BC856A9FC0016B9F900D97
:102060007A9F900D112469817A81680F791F068407
:10207000F785E02DEF80F88409851A859D014F854D
:102080005889898D9A8D1995D8CF570CC3948ACFCA
:102090006A960FB6F894DEBF0FBECDBFDF91CF9129
:1020A0001F910F91FF90EF90DF90CF90BF90AF9076
:1020B0009F908F907F906F905F904F903F902F9068
:1020C00008958F929F92AF92CF92EF92FF920F93CB
:1020D0001F93CF93DF93EC01262F898D9A8D009764
:1020E00009F051C06A30D1F41D861C868D8948E004
:1020F000849F900111248E859F85820F931F9F8757
:102100008E8781E090E0DF91CF911F910F91FF903A
:10211000EF90CF90AF909F908F9008956D3089F39E
:10212000CC88AD888F898823C1F08C859D8536E069
:10213000C39E800D911D1124488559854817590764
:1021400064F44E855F851D861C8638E0A39EC00121
:102150001124840F951F9F878E87EA88FB88088942
:1021600019894E855F856C857D85CE010E943C0E68
:102170002C898C859D8546E0249F800D911D11241E
:102180009D878C87BECF6A3069F41D861C86FC0152
:102190003896E4912D898E859F85E29F800D911D53
:1021A0001124ADCF6D3009F4ACCFFC0134963491DD
:1021B000631708F4A6CF3296E491E61708F4A1CF8E
:1021C000FC01329685909490462F431B342F47E0B4
:1021D000349F800C911C1124F40132963491319675
:1021E000E4913323A9F1EE2399F1CC88F4013596DB
:1021F000E491AD884F89442301F10E2E000CFF0BB2
:10220000E30FF11DCE9EA001CF9E500D11246C85D1
:102210007D85460F571F68857985641775076CF4AF
:102220004E855F851D861C86FC013896E491AE9E26
:10223000400D511D11245F874E87EA88FB8808896D
:1022400019894E855F856C857D85CE010E943C0E87
:10225000F4013496E4912C898C859D85E29F800D54
:10226000911D11248DCF6F927F928F929F92AF928A
:10227000BF92CF92DF92EF92FF920F931F93CF9373
:10228000DF93EC016B015A0139014801E881F981C2
:102290000284F385E02D1995E881F9810288F3899C
:1022A000E02D87019301A501B601CE011995A50185
:1022B000480D591D41505109E881F9810288F3897F
:1022C000E02D9301B601CE011995E881F9810088CE
:1022D000F189E02D9401A501B601CE011995C60C36
:1022E000D71CB60161507109E881F9810088F18934
:1022F000E02D9401A501CE011995E881F9810688A8
:10230000F789E02DCE01DF91CF911F910F91FF90C2
:10231000EF90DF90CF90BF90AF909F908F907F9085
:102320006F9019946F927F928F929F92AF92BF920B
:10233000CF92DF92EF92FF920F931F93CF93DF9391
:102340005C01EB016A01490138018701DC01ED9173
:10235000FC916217730719F5641675062CF0962D1B
:10236000872D3A01C92ED82E9601261937092F5FDD
:102370003F4F048CF58DE02DA301BE01C5011995D9
:10238000DF91CF911F910F91FF90EF90DF90CF9051
:10239000BF90AF909F908F907F906F90089546155B
:1023A000570591F42617370724F0892D4B01C22FCA
:1023B000D82F9E01281939092F5F3F4F068CF78DC2
:1023C000E02DA601B401DACF0284F385E02D199542
:1023D000D501ED91FC910488F589E02D83019401EC
:1023E000A601BE01C5011995D501ED91FC910688A4
:1023F000F789E02DC501DF91CF911F910F91FF90DB
:10240000EF90DF90CF90BF90AF909F908F907F9094
:102410006F901994EF92FF920F931F93DC011A961D
:102420000D911C911B9718962D913C911997ED9148
:10243000FC9100A0F1A1E02D7B0150E040E070E0B4
:1024400060E019951F910F91FF90EF9008954F92C2
:102450005F926F927F928F929F92AF92BF92CF9234
:10246000DF92EF92FF920F931F93CF93DF936C0154
:102470002B015A0139014801DC01ED91FC910284E4
:10248000F385E02D1995E201640C751CD601ED91E0
:10249000FC91C615D7055CF40088F189E02D870111
:1024A0009401A501BE01C60119952196EFCF0688BA
:1024B000F789E02DC601DF91CF911F910F91FF9019
:1024C000EF90DF90CF90BF90AF909F908F907F90D4
:1024D0006F905F904F9019948F929F92AF92BF929E
:1024E000CF92DF92EF92FF920F931F93CF93DF93E0
:1024F000EC015B014A016901E881F9810284F385FD
:10250000E02D199595012C0D3D1D21503109E881D3
:10251000F9810488F589E02D78018401A401B501D1
:10252000CE011995E881F9810688F789E02DCE0161
:10253000DF91CF911F910F91FF90EF90DF90CF909F
:10254000BF90AF909F908F9019948F929F92AF926F
:10255000BF92CF92DF92EF92FF920F931F93CF9390
:10256000DF93EC015B014A0169017801E881F9819F
:102570000284F385E02D1995C80CD91C8601015001
:102580001109E881F9810488F589E02D9501A401FC
:10259000B501CE011995E881F9810688F789E02D0A
:1025A000CE01DF91CF911F910F91FF90EF90DF90BF
:1025B000CF90BF90AF909F908F901994EF92FF9221
:1025C0000F931F93DC01ED91FC9100A0F1A1E02D90
:1025D00019951F910F91FF90EF9008950F931F93FE
:1025E000DC01ED91FC91068CF78DE02D19951F9182
:1025F0000F9108950F931F93DC01ED91FC91048CD2
:10260000F58DE02D19951F910F910895DC01ED9145
:10261000FC910084F185E02D19942F923F924F9206
:102620005F926F927F928F929F92AF92BF92CF9262
:10263000DF92EF92FF920F931F93CF93DF9300D01F
:1026400000D0CDB7DEB73C016A013E832D83FC820A
:10265000EB825801A41AB50AB7FE03C0B194A19445
:10266000B1088D809E80861A970A97FE03C09194C8
:10267000819491088A149B045CF0902F812F0D8126
:102680001E819D838E839C2D8D2D6B01692F782F4C
:102690000C151D055CF09D818E817E836D83692FF5
:1026A000782F902F812F8601C92ED82E1601201A3F
:1026B000310A2B012D813E81421A530A57FE03C075
:1026C000519441945108710137FE03C03FEFE31A62
:1026D000F30AF594E7948D819E81861797075CF540
:1026E000A1E0B0E0BA83A983C016D1064CF1D301B2
:1026F000ED91FC910484F585E02D2B813C81A801AE
:102700006D817E818A149B041CF04D815E81B8012D
:10271000C3011995E418F508F7FE0AC02D813E8122
:1027200089819A81280F391F3E832D83E20CF31C87
:102730000F5F1F4FD9CF2FEF3FEF3A832983D4CFBD
:1027400026960FB6F894DEBF0FBECDBFDF91CF91B6
:102750001F910F91FF90EF90DF90CF90BF90AF90BF
:102760009F908F907F906F905F904F903F902F90B1
:102770000895089590E080E008950E94361BFB01C3
:1027800001900020E9F73197AF01461B570BDC01A0
:10279000ED91FC910280F381E02D1994CF93DF93AA
:1027A000BC0189E893E00E94BF13EC0162E472E08F
:1027B00089E893E00E94BF138C0F9D1FDF91CF919A
:1027C00008950F931F93CF93DF938C01EB0181E06A
:1027D00080933E046FEF7FEF87E294E00E940A123D
:1027E000809131049091320497FD019695958795DB
:1027F00022E330E030933404209333049093360482
:1028000080933504D0933A04C0933904D0933804AC
:10281000C093370482E080933B0480933C04B8016A
:1028200087E294E0DF91CF911F910F910C94BF1339
:10283000CF92DF92EF92FF920F931F93CF93DF938C
:10284000EC016A017B01C114D104E104F10439F403
:10285000C12C48E4D42E48EEE42EFF24F394FE016C
:10286000FF96C082D182E282F38281E28DAF80E264
:102870008EAF369610818FA987FD07C061E00E9458
:10288000560661E08FA90E94280661E088AD0E948B
:10289000560661E088AD0E9428068DA9811182C08C
:1028A00040E052E16AE770E0C416D506E606F70696
:1028B00040F476956795579547958F5F8630A1F7D9
:1028C00087E0212F2C702065982F9695922B99A345
:1028D000809581708AA3812F90E0B0E0A0E08BA367
:1028E0009CA3ADA3BEA31FB7F89480917B03811175
:1028F00027C0EEE3F8E08491EEECF7E09491E82F46
:10290000F0E0EE0FFF1FE456F94FA591B491EC9162
:10291000E92321F461E085E30E94280661E085E374
:102920000E9456068CB580618CBD8CB580648CBDD0
:1029300061E084E30E94560661E083E30E9456064C
:1029400080917B038F5F80937B031FBF8EA987FDE0
:1029500075C061E00E94560661E08EA90E942806BB
:1029600064E670E080E090E00E94AC0660E08EA932
:102970000E94280664E670E080E090E00E94AC06C9
:1029800061E08EA90E94280668EC70E080E090E08B
:10299000DF91CF911F910F91FF90EF90DF90CF903B
:1029A0000C94AC0609E018E0F12C8130B9F461E038
:1029B0008AA50E94560660E08AA50E94280661E06A
:1029C0008CA50E94560660E08CA50E9428068BA567
:1029D00087FDBCCF60E00E945606B8CFF801849115
:1029E000E82FF0E0EE0FFF1FE151F84F8591949131
:1029F0002F8D38A12817390741F461E08F2D0E94EF
:102A0000560660E08F2D0E942806F3940F5F1F4F3B
:102A1000F6E4FF12E3CF61E08EA50E94560661E066
:102A20008EA50E9428068FA587FD90CF61E00E94A9
:102A3000560661E08FA50E94280688CFDF91CF91CE
:102A40001F910F91FF90EF90DF90CF9008951F930B
:102A5000CF93DF9385ED8093BC0080910D0390911F
:102A60000E03A0910F03B09110030796A11DB11D95
:102A700023E0B695A795979587952A95D1F720914C
:102A8000BC0024FD03C01092550352C040910D03B9
:102A900050910E0360910F0370911003452B462B4C
:102AA000472B69F30097A105B10541F02AE22A9569
:102AB000F1F700C00197A109B109E1CF80910C03A2
:102AC000C1E0C0930B03882399F1D091B800109115
:102AD000BA008091BC008A7B8093BC0060E084E1F6
:102AE0000E94280660E085E10E94280610925503A6
:102AF000C09357031092560361E084E10E942806B8
:102B000061E085E10E9428068091B9008E7F809364
:102B1000B9008091B9008D7F8093B90088E48093DB
:102B2000B80085E48093BC001093BA00D093B8003D
:102B3000DF91CF911F9108951F920F920FB60F92C0
:102B400011240BB60F922F933F934F935F936F9384
:102B50007F938F939F93AF93BF93EF93FF9389E8F6
:102B600093E00E94D804FF91EF91BF91AF919F91A4
:102B70008F917F916F915F914F913F912F910F9026
:102B80000BBE0F900FBE0F901F9018951F920F92C3
:102B90000FB60F9211240BB60F922F938F939F9322
:102BA000EF93FF93E0919903F0919A038081E09174
:102BB0009F03F091A00382FD1DC090818091A2032C
:102BC0008F5F8F732091A303821741F0E091A203DE
:102BD000F0E0E757FC4F958F8093A203FF91EF91B0
:102BE0009F918F912F910F900BBE0F900FBE0F9062
:102BF0001F9018958081F2CF1F920F920FB60F92FF
:102C000011242F933F938F939F93AF93BF93809102
:102C10007D0390917E03A0917F03B091800330915A
:102C20007C0323E0230F2D3758F50196A11DB11D1C
:102C300020937C0380937D0390937E03A0937F0376
:102C4000B09380038091810390918203A0918303CC
:102C5000B09184030196A11DB11D809381039093CF
:102C60008203A0938303B0938403BF91AF919F919C
:102C70008F913F912F910F900FBE0F901F9018953D
:102C800026E8230F0296A11DB11DD2CF1F920F92ED
:102C90000FB60F9211240BB60F922F933F934F93C1
:102CA0005F936F937F938F939F93AF93BF93EF93B4
:102CB000FF938091B900887F803609F44DC008F0F9
:102CC00040C0883209F4A7C028F5803109F49BC0C0
:102CD000C8F4882309F4F7C0883009F494C0FF9140
:102CE000EF91BF91AF919F918F917F916F915F9184
:102CF0004F913F912F910F900BBE0F900FBE0F90F1
:102D00001F901895883109F486C0803241F780936E
:102D1000540314C0803409F49BC040F48033B9F3E9
:102D20008833E9F68093540385ECAEC0803509F40E
:102D300083C0883509F494C0883489F60E94271529
:102D4000CECF883909F48AC038F5883729F050F495
:102D5000883611F0803719F683E08093550310927E
:102D6000530355C0883809F479C0803919F0803888
:102D700009F0B5CF80915303803208F06FC0E09125
:102D8000530381E08E0F809353038091BB00F0E0EA
:102D9000ED5CFC4F80833BC0803B39F0D0F4803A3F
:102DA00009F477C0883A09F09ACF84E080935503FC
:102DB0001092320310923103F0E0E0E01995809117
:102DC000310381110FC081E0809331031092110310
:102DD00009C0803C09F4A8CF883C09F4A5CF883B02
:102DE00009F07DCFE091320381E08E0F80933203B2
:102DF000F0E0EF5EFC4F80818093BB009091320346
:102E00008091310329C080917A038093BB0085ECC7
:102E10008093BC0064CF90917903809178039817D8
:102E200058F5E091790381E08E0F80937903F0E00B
:102E3000E85AFC4F8081E9CFE091790381E08E0F61
:102E4000809379038091BB00F0E0E85AFC4F8083C7
:102E500090917903809178039817C8F285E8D8CFCC
:102E6000E091790381E08E0F809379038091BB001C
:102E7000F0E0E85AFC4F80838091570381115ECFC8
:102E800081E08093560384EA8093BC00109255033E
:102E900026CF85EC8093BC0010925503809153039C
:102EA000803230F4E0915303F0E0ED5CFC4F10828F
:102EB0006091530370E083E393E0F0E0E0E0199564
:102EC000109253030CCF1092540338CFE9E8F3E08B
:102ED0001382128288EE93E0A0E0B0E084839583B1
:102EE000A683B78384E092E09183808385EC90E0B1
:102EF0009587848784EC90E09787868780EC90E0C4
:102F0000918B808B81EC90E0938B828B82EC90E0B4
:102F1000958B848B86EC90E0978B868B118E128E2E
:102F2000138E148EA7E2B4E013961C921E92129791
:102F300020E830E015963C932E93149780EA90E0B9
:102F400017969C938E93169719963C932E931897E9
:102F50001B969C938E931A9756961C9256971D9685
:102F60001C921E921C971F961C921E921E9781E027
:102F700055968C93559754968C9354972FEF3FEF1B
:102F800053963C932E93529751963C932E93509781
:102F900057968C93579758961C9258975A961C920E
:102FA0001E925997D5961C92D5978FE1D6968C9301
:102FB000D69785E3D7968C93D7978EE1D8968C9346
:102FC000D897DA961C921E92D997DC961C921E9284
:102FD000DB97DD961C92DD97DE961C92DE971092B1
:102FE000660410926704109268041092690486E2E5
:102FF00094E090969C938E935F97E7E2F8E0E491DB
:10300000F0E0EE0FFF1FE151F84F859194915E962D
:103010009C938E935D97E7EBF7E08491D3968C9326
:10302000D397EEE3F8E0E491F0E0EE0FFF1FE151FB
:10303000F84F259134915C963C932E935B97EEEC80
:10304000F7E0E491D196EC93D197E095D296EC938A
:10305000D297E82FE095D496EC93D49710926A0417
:1030600010926B0410926C0486E192E08D939C9315
:103070000895CF93DF931F92CDB7DEB7789484B5D0
:10308000826084BD84B5816084BD85B5826085BD64
:1030900085B5816085BD80916E00816080936E00F2
:1030A00010928100809181008260809381008091E4
:1030B0008100816080938100809180008160809395
:1030C00080008091B10084608093B1008091B00055
:1030D00081608093B0008091910082608093910024
:1030E0008091910081608093910080919000816037
:1030F000809390008091A10082608093A1008091D4
:10310000A10081608093A1008091A00081608093E4
:10311000A000809121018260809321018091210192
:103120008160809321018091200181608093200142
:1031300080917A00846080937A0080917A00826026
:1031400080937A0080917A00816080937A008091E8
:103150007A00806880937A001092C100E091990310
:10316000F0919A0312E01083E0919503F091960399
:103170001082E0919703F091980380E18083109290
:10318000A103E0919D03F0919E0386E08083E0918E
:103190009B03F0919C03808180618083E0919B037D
:1031A000F0919C03808188608083E0919B03F09183
:1031B0009C03808180688083E0919B03F0919C0355
:1031C00080818F7D808360E083E20E94560660E00C
:1031D00080E20E94560660E081E20E94560660E0AE
:1031E00082E20E94560640E050E0BA0187E294E095
:1031F0000E9418148EE597E00E94790C81E597E013
:103200000E94790C86E297E00E94790C80EC898319
:10321000BE016F5F7F4F87E294E00E94100D109314
:103220006D0460E087E294E00E94800D6FEF7FEF15
:1032300087E294E00E940A12D12CC12C0091310443
:103240001091320480912F0490913004C816D90651
:10325000CCF401501109BFE1EB2EB8EFFB2E960123
:1032600050E040E070E060E087E294E00E9492115C
:1032700062E370E080E090E00E94AC0686E0C80E59
:10328000D11CDCCFD12CC12C80913104909132041F
:10329000C816D906ECF420912F0430913004215047
:1032A0003109AFE1EA2EA8EFFA2E860150E040E0A6
:1032B00070E060E087E294E00E94921162E370E0C7
:1032C00080E090E00E94AC0686E0C80ED11CDCCF06
:1032D0006FEF7FEF87E294E00E940A12D12CC12C9D
:1032E00060912F04709130040091310410913204E8
:1032F000C616D706CCF40150110961507109FFE1DF
:10330000EF2EF8EFFF2E960150E040E087E294E0C8
:103310000E94921162E370E080E090E00E94AC06AF
:1033200086E0C80ED11CDCCFD12CC12C8091310499
:1033300090913204C816D906ECF460912F04709174
:10334000300461507109EFE1EE2EE8EFFE2E8601A8
:1033500030E020E050E040E087E294E00E949211EB
:1033600062E370E080E090E00E94AC0686E0C80E68
:10337000D11CDCCF6FEF7FEF87E294E00E940A124E
:10338000D12CC12C409131045091320480912F04F2
:1033900090913004C816D906CCF4415051097FE110
:1033A000E72E78EFF72E10E000E0960170E060E085
:1033B00087E294E00E94921162E370E080E090E086
:1033C0000E94AC0686E0C80ED11CDCCFD12CC12CEB
:1033D0004091310450913204C416D506ECF420918A
:1033E0002F043091300421503109415051096FE1CF
:1033F000E62E68EFF62E860170E060E087E294E04A
:103400000E94921162E370E080E090E00E94AC06BE
:1034100086E0C80ED11CDCCF6FEF7FEF87E294E02F
:103420000E940A12D12CC12C60912F04709130049B
:103430004091310450913204C616D706CCF4415065
:103440005109615071099FE1E92E98EFF92E10E0C2
:1034500000E0960187E294E00E94921162E370E03E
:1034600080E090E00E94AC0686E0C80ED11CDCCF64
:10347000D12CC12C4091310450913204C416D50690
:10348000ECF44150510960912F0470913004615067
:1034900071098FE1E82E88EFF82E860130E020E0F8
:1034A00087E294E00E94921162E370E080E090E095
:1034B0000E94AC0686E0C80ED11CDCCF6FEF7FEF18
:1034C00087E294E00E940A1211E083E20E94FF0565
:1034D000892B81F48091880381110CC0109388039B
:1034E00085E492E00E94CE1370E060E087E592E010
:1034F0000E94E11383E20E94FF05892B81F08091F5
:103500008803882361F01092880383E692E00E948A
:10351000CE136FEF7FEF87E294E00E940A1280E201
:103520000E94FF05892B81F48091870381110CC0D3
:103530001093870387E792E00E94CE136FE170E05B
:103540008AE892E00E94E11380E20E94FF05892B45
:1035500081F080918703882361F01092870387E9C7
:1035600092E00E94CE136FEF7FEF87E294E00E941B
:103570000A1281E20E94FF05892B81F48091860363
:1035800081110CC0109386038CEA92E00E94CE1346
:1035900060EE77E08CEB92E00E94E11381E20E9402
:1035A000FF05892B81F080918603882361F01092BA
:1035B000860386EC92E00E94CE136FEF7FEF87E2E6
:1035C00094E00E940A1282E20E94FF05892B81F496
:1035D0008091850381110CC01093850388ED92E0E2
:1035E0000E94CE1360E078EF8AEE92E00E94E11331
:1035F00082E20E94FF05892B81F080918503882358
:1036000061F01092850386EF92E00E94CE136FEF77
:103610007FEF87E294E00E940A120E94670555CF6F
:10362000EE0FFF1F881F8BBF0790F691E02D1994B6
:103630000E94201B332312F48A1B9B0B0C94311B1A
:10364000A29FB001B39FC001A39F700D811D1124E3
:10365000911DB29F700D811D1124911D08950E942E
:10366000201BB7FF0895821B930B089581E090E023
:0A367000F8940C943B1BF894FFCF74
:10367A0000000000FA04640491044705C204A0048F
:10368A00B4040000000061106404BA13B913E2081C
:10369A00670C350CCC0B4B0B8C0B0D131B0E800DD2
:1036AA00C508DD094E0ABF0A0A129211331118140D
:1036BA0063080D0A00427574746F6E204C454654B7
:1036CA0020505245535300427574746F6E204C4516
:1036DA00465400427574746F6E204C45465420520D
:1036EA00454C4541534500427574746F6E205249EA
:1036FA0047485420505245535300427574746F6EB4
:10370A0020524947485400427574746F6E205249DA
:10371A004748542052454C454153450042757474FC
:10372A006F6E2055502050524553530042757474A1
:10373A006F6E20555000427574746F6E205550207C
:10374A0052454C4541534500427574746F6E20448E
:10375A004F574E20505245535300427574746F6E42
:10376A0020444F574E00427574746F6E20444F5771
:0A377A004E2052454C4541534500D6
:00000001FF
