:100000000C9460010C9491010C9491010C94910159
:100010000C9491010C9491010C9491010C94910118
:100020000C9491010C9491010C9491010C94910108
:100030000C9491010C9491010C9491010C949101F8
:100040000C9491010C9491010C9491010C949101E8
:100050000C9491010C9491010C9491010C94321127
:100060000C9491010C94FC100C94D2100C949101FE
:100070000C9491010C9491010C9491010C949101B8
:100080000C9491010C9491010C9491010C949101A8
:100090000C9491010C9491010C9491010C947C119D
:1000A0000C9491010C9491010C9491010C94910188
:1000B0000C9491010C9491010C9491010C94910178
:1000C0000C9491010C9491010C9491010C94910168
:1000D0000C9491010C9491010C9491010C94910158
:1000E0000C9491010C9464050C9478020C944B03CD
:1000F0000C94FE020C943A0D0C94280E0C941C03E4
:100100000C94240E0C94260E0C9445030C942F038F
:100110000C94F3010C9441030C940D050C94220EE5
:100120000C9410030C9493010C9493050C94FE15FD
:100130000C9495010C944F030C9429030C94180310
:100140000C9414030C9433030C941F030C94F307C6
:100150000C94D1010C94E90F0C94C2010C940E057F
:100160000C94F2070C94ED0C0C94A0120C948310D8
:100170000C943D030C94E5010C9494010C9430050F
:100180000C9437030C94B00D0C9425030C941D05AE
:100190000C9437050C94F9020C942B020C94381033
:1001A00000002200250028002B002E003100340022
:1001B00002010000050108010B0105050505070501
:1001C00008080808020202020A0A080804040404D3
:1001D00001010101010101010303030303030303FF
:1001E000040707070C0C0C0C0C0C0C0C020202028E
:1001F00006060606060606060B0B0B0B0B0B0B0B77
:100200000A0A0A0A0A0A0808070705050504040479
:100210000102102020080810204010204080020118
:1002200002010804020101020408102040808040FD
:1002300020100804020180040201804020100804FC
:10024000020108040201010204081020408001029A
:10025000040810204080040810204080048008100A
:1002600004408010204000000A0B02090C0D0E080B
:10027000070304010000000000000000000000006F
:10028000000000000000000000000000000000006E
:10029000000012111000000000000000000000002B
:1002A000000000000000000000000000000000004E
:1002B000000000000000000000000000A012FE1579
:1002C00011241FBECFEFD1E2DEBFCDBF00E00CBFD7
:1002D00012E0A0E0B2E0E0ECF3E300E00BBF02C00C
:1002E00007900D92A83FB107D9F724E0A8EFB2E03C
:1002F00001C01D92A23AB207E1F711E0CFE5D1E0CB
:1003000000E006C021970109802FFE010E9492188B
:10031000CE35D10780E00807A9F70E94E7120C94B8
:10032000CE190C94000008950895AF92BF92CF9219
:10033000DF92EF92FF920F931F93CF93DF936C01A5
:100340007B018B01040F151FEB015E01AE18BF0886
:10035000C017D10759F06991D601ED91FC91019038
:10036000F081E02DC6011995892B79F7C501DF9140
:10037000CF911F910F91FF90EF90DF90CF90BF90A2
:10038000AF900895FC01538D448D252F30E0842FCC
:1003900090E0821B930B541710F0CF9608950197AD
:1003A0000895FC01918D828D981761F0A28DAE0F9A
:1003B000BF2FB11D5D968C91928D9F5F9F73928F21
:1003C00090E008958FEF9FEF0895FC01918D828D4D
:1003D000981731F0828DE80FF11D858D90E008951A
:1003E0008FEF9FEF0895FC01918D228D892F90E072
:1003F000805C9F4F821B91098F73992708958BEB27
:1004000093E00E94F30121E0892B09F420E0822F80
:100410000895FC01A48DA80FB92FB11DA35ABF4F99
:100420002C91848D90E001968F739927848FA689F3
:10043000B7892C93A089B1898C91837080648C9347
:10044000938D848D981306C00288F389E02D8081F6
:100450008F7D80830895EF92FF920F931F93CF9328
:10046000DF93EC0181E0888F9B8D8C8D98131AC0EF
:10047000E889F989808185FF15C09FB7F894EE89D6
:10048000FF896083E889F989808183708064808333
:100490009FBF81E090E0DF91CF911F910F91FF907E
:1004A000EF900895F62E0B8D10E00F5F1F4F0F7326
:1004B0001127E02E8C8D8E110CC00FB607FCFACFE1
:1004C000E889F989808185FFF5CFCE010E94090274
:1004D000F1CFEB8DEC0FFD2FF11DE35AFF4FF082B2
:1004E0009FB7F8940B8FEA89FB8980818062CFCF18
:1004F000CF93DF93EC01888D8823B9F0AA89BB895B
:10050000E889F9898C9185FD03C0808186FD0DC045
:100510000FB607FCF7CF8C9185FFF2CF808185FF66
:10052000EDCFCE010E940902E9CFDF91CF9108956E
:1005300080E090E0892B29F00E94FF0181110E9448
:10054000000080E090E0892B49F080E090E0892B6A
:1005500029F00E94000081110E94000080E090E0DC
:10056000892B49F080E090E0892B29F00E9400005F
:1005700081110E94000080E090E0892B49F080E02A
:1005800090E0892B29F00E94000081110C9400005A
:100590000895282F30E0F901EA59FD4F9491F901AF
:1005A000E05FFD4F449126543E4FF90124912223F0
:1005B00009F435C0992311F191509231F8F4E92FE3
:1005C000F0E08827E951FD4F8F4F0C9492181803E3
:1005D0001C03F90210031403FE021F032503290361
:1005E0002F03330337033D034103FE0245034B034F
:1005F0004F03809180008F7780938000E22FF0E09E
:10060000EE0FFF1FE056FE4FA591B4918FB7F894FF
:10061000EC91611148C040954E234C938FBF0895D3
:10062000809180008F7DE8CF80918000877FE4CF2C
:1006300084B58F7784BDE2CF84B58F7DFBCF809169
:10064000B0008F778093B000D9CF8091B0008F7DBC
:10065000F9CF809190008F7780939000CFCF8091D9
:1006600090008F7DF9CF80919000877FF5CF8091AA
:10067000A0008F778093A000C1CF8091A0008F7DD4
:10068000F9CF8091A000877FF5CF809120018F77EF
:1006900080932001B3CF809120018F7DF9CF80918D
:1006A0002001877FF5CF4E2BB8CF8230910538F0EF
:1006B000880F991F880F991F05970197F1F70895E3
:1006C0003FB7F89480915D0390915E03A0915F0322
:1006D000B091600326B5A89B05C02F3F19F0019685
:1006E000A11DB11D3FBFBA2FA92F982F8827BC018C
:1006F000CD01620F711D811D911D42E0660F771FB4
:10070000881F991F4A95D1F708958F929F92AF92B3
:10071000BF92CF92DF92EF92FF924B015C010E9459
:1007200060036B017C010E9460036C197D098E09D6
:100730009F09683E734081059105A8F321E0821A64
:100740009108A108B10888EEC80E83E0D81EE11C0C
:10075000F11C81149104A104B10429F7FF90EF90DA
:10076000DF90CF90BF90AF909F908F900895209191
:100770003903260F3327331F21323105ECF4209142
:100780009103FC0190E080E0243069F082E008955C
:10079000A09139032191AC01475E5C4FA40FB52FA6
:1007A000B11D2C930196861798F380913903680F39
:1007B0006093390380E0089581E0089510929103D9
:1007C00081E08093900310926B0361E084E10E94CA
:1007D000C90261E085E10E94C902E9EBF0E0808195
:1007E0008E7F808380818D7F808388E48093B800B2
:1007F00085E48093BC000895CF93DF9391E09093BC
:1008000018038823B9F0C091B800D091BA00809144
:10081000BC008A7B8093BC0060E084E10E94C90236
:1008200060E085E10E94C9020E94DE03D093BA0015
:10083000C093B800DF91CF9108958F929F92AF92AD
:10084000BF92CF92DF92EF92FF920F931F93CF93BD
:10085000DF93D091BA03D13208F0D7C0182FC091DE
:10086000B9030E9460036B017C01809191038111A7
:100870006BC082E080939103109390038FEF80937D
:100880008F0310928E03D0938D03A9E9B3E0EDE6B8
:10089000F3E080E0D81391C010926C0380916C0358
:1008A000CC0FC82BC0936C0380916B03813009F08F
:1008B00088C010926B030E9460036B017C018091E1
:1008C0006C038093BB008091930390919403A0915B
:1008D0009503B0919603892B8A2B8B2BA1F00E9454
:1008E000600300919303109194032091950330913C
:1008F00096036C197D098E099F09061717072807AB
:10090000390708F442C08091BC0083FDD8CF85EC44
:100910008093BC000E9460036B017C018091910375
:10092000823009F450C080918F038F3F09F46FC06B
:1009300080918F03803209F46CC080918F038033E3
:1009400009F469C084E026C08091930390919403D8
:10095000A0919503B0919603892B8A2B8B2B09F4D8
:1009600084CF0E9460038090930390909403A090A2
:100970009503B09096036C197D098E099F09861620
:100980009706A806B90608F070CF809192030E94DE
:10099000FC0385E0109298031092BA03109297031B
:1009A000DF91CF911F910F91FF90EF90DF90CF904B
:1009B000BF90AF909F908F9008959D9191938F5F7E
:1009C00069CF85EEA5CF8091930390919403A09178
:1009D0009503B0919603892B8A2B8B2B09F49ECF1C
:1009E0000E9460030091930310919403209195035A
:1009F000309196036C197D098E099F090617170718
:100A00002807390708F08ACFC0CF81E0C3CF80E044
:100A1000C1CF82E0BFCF83E0BDCF0895E0916603F0
:100A200080916503E81730F4F0E0E850FD4F8081D5
:100A300090E008958FEF9FEF089590916603809165
:100A400065032FEF3FEF981748F4E92FF0E0E850E7
:100A5000FD4F208130E09F5F90936603C9010895A8
:100A60008091650390916603891B990B0895CF923D
:100A7000DF92EF92FF920F931F93CF93DF937C014E
:100A8000CB018A0120919703222389F0EB016B01AE
:100A9000C40ED51ECC15DD0569F06991D701ED9125
:100AA000FC910190F081E02DC7011995F3CF642FDF
:100AB0000E94B703C801DF91CF911F910F91FF9062
:100AC000EF90DF90CF900895CF93DF931F92CDB733
:100AD000DEB76983209197032223F9F02091BA03AE
:100AE000203258F021E030E0FC013383228390E093
:100AF00080E00F90DF91CF91089580919803E82FC7
:100B0000F0E0E756FC4F998190838F5F80939803C4
:100B10008093BA0381E090E0ECCF61E0CE010196D2
:100B20000E94B703F7CF90E080E00895FC01838531
:100B30008F3F19F061E00C94C9020895FC01808197
:100B40009181892B39F0A281B3819C9111968C916E
:100B50009CBD8DBD83858F3F19F060E00C94C90268
:100B60000895AF92BF92CF92DF92EF92FF920F93D0
:100B70001F93CF93DF93EC0188819981892B89F0B2
:100B80006EBD0DB407FEFDCFBEB48B2DDF91CF91AE
:100B90001F910F91FF90EF90DF90CF90BF90AF909B
:100BA00008958885998511E0892B09F010E8AA2419
:100BB000A394862F812309F0A12C062F2C813D813F
:100BC0004E815F8160E271EA87E090E00E947018D8
:100BD000F22EB02EE12CC22ED12CFF2019F0C6012E
:100BE0000E9455038A85877F09F042C08D858F3F1B
:100BF00089F0902F912381E009F480E08A1551F06B
:100C0000EF85F8898F89992369F19081892B8083F9
:100C1000AA24A394E989FA898081998D892B8083FC
:100C2000FF2019F0C6010E9455038E858F3F39F0D1
:100C3000EB89FC898081988D892309F0E12AE98973
:100C4000FA899081898D8095892380838E858F3F55
:100C500009F0BE2C88859985892BB9F5110F1111E2
:100C6000BCCF93CF9081809589238083A12CD2CF54
:100C7000E989FA898081998D892B8083FF2019F079
:100C8000C6010E9455038D858F3F49F0EF85F88995
:100C90008F89902F9123A9F09081892B8083E989F6
:100CA000FA899081898D8095892380838E858F3FF5
:100CB00069F2EB89FC898081988D892339F2E12AD8
:100CC000C5CF908180958923E9CF1695C8CF8F92A3
:100CD0009F92AF92BF92CF92DF92EF92FF920F93CB
:100CE0001F93CF93DF937C014B016A01B22EA32E99
:100CF0000E949E05E401C80CD91CCC15DD0569F4E1
:100D0000CB2DDA2D0C0F1D1FC017D10759F06FEF37
:100D1000C7010E94B1058993F7CF6991C7010E946D
:100D2000B105EBCFC7010E94960581E0DF91CF911D
:100D30001F910F91FF90EF90DF90CF90BF90AF90F9
:100D40009F908F9008958F929F92AF92BF92CF9273
:100D5000DF92EF92FF920F931F93CF93DF937C016B
:100D6000B62EA72E6A0149010E949E05E401080DD6
:100D7000191DC017D10761F4CB2DDA2DCC0EDD1E65
:100D8000CC15DD0551F06991C7010E94B105F8CF7E
:100D90006991C7010E94B105ECCFC7010E94960579
:100DA00081E0DF91CF911F910F91FF90EF90DF9045
:100DB000CF90BF90AF909F908F9008951F93CF9347
:100DC000DF93EA01122FDC0111968D919C91DC01D9
:100DD000ED91FC910280F381E02D1995C817D90798
:100DE00029F4812F0E941D0491E0811190E0892F48
:100DF000DF91CF911F910895CF93DF93EC018B8109
:100E00008823A1F0888191E0909397038093B903A0
:100E1000109298031092BA0381E00E941D0491E0A1
:100E2000811190E0892FDF91CF9108951092660390
:100E300010926503109298031092BA030E94DE0389
:100E400083E991E0909362038093610384E991E0E8
:100E5000909364038093630381E08B83CE010E94AF
:100E6000FC06982F8111CECFDDCFAF92BF92CF92EB
:100E7000DF92EF92FF920F931F93CF93DF931F9216
:100E80001F92CDB7DEB7DC01211103C018962C915B
:100E90001897253008F043C01F964D935D936D93CE
:100EA0007C93529790E080E0E22EF12C8E159F0506
:100EB000B4F41A962C911A9721110AC0FD01E80F7B
:100EC000F91F4387452F562F672F77270196EECFBF
:100ED000F701E81BF90BEA0FFB1F4287F3CF6D0107
:100EE0008BE0C80ED11C16969C91169717968C9184
:100EF000179799838A83AD90BC901197A114B10480
:100F000009F441C019960C9110E098012E0D3F1D77
:100F1000D50114968D919C918217930710F480E06F
:100F200016C0F50181819281208131E030939703D1
:100F30002093B903109298031092BA03011511057A
:100F400099F421E0A701B601C5010E94DE060F90C9
:100F50000F90DF91CF911F910F91FF90EF90DF9055
:100F6000CF90BF90AF900895DC01ED91FC9102808D
:100F7000F381E02DA801BE016F5F7F4F199508171F
:100F8000190769F6DECF1296ED91FC911397309711
:100F900031F214962D913C91159719960C9110E011
:100FA0002330310571F48E7F89839A830F5F1F4F41
:100FB0009E012F5F3F4FA701B601CF010E94A306FC
:100FC000C6CF2115310519F49F779983F1CF2230CF
:100FD000310511F49068F9CF2130310549F79F7739
:100FE0009064F3CF08950895FC0101900020E9F783
:100FF0003197AF01481B590BBC018BEB93E00C946C
:1010000095018F929F92AF92BF920F931F93CF93B0
:10101000DF93CDB7DEB7A1970FB6F894DEBF0FBE52
:10102000CDBF19A2423008F44AE08E010F5D1F4F78
:10103000842E912CB12CA12CA50194010E94701832
:10104000E62FB901CA01EA30F4F4E05DD801EE936D
:101050008D01232B242B252B79F790E080E010972E
:1010600019F0CD010E94F407A1960FB6F894DEBFE7
:101070000FBECDBFDF91CF911F910F91BF90AF9069
:101080009F908F900895E95CE1CFCF93DF930E940A
:10109000F407EC018AE592E00E94F4078C0F9D1F93
:1010A000DF91CF9108954F925F926F927F928F92CE
:1010B0009F92AF92BF92CF92DF92EF92FF920F93E7
:1010C0001F93CF936B017C01742EAC019B010E9496
:1010D0006B18882399F08DE592E0CF911F910F91C5
:1010E000FF90EF90DF90CF90BF90AF909F908F9048
:1010F0007F906F905F904F900C94F40746015701DA
:10110000E894B7F82FEF3FEF4FE75FE7C501B40171
:101110000E946B1881110DC02FEF3FEF4FE75FE783
:10112000C501B4010E94A11618161CF481E692E0D4
:10113000D4CF2FEF3FEF4FE75FE4C701B6010E9426
:10114000F91718161CF485E692E0C7CF2FEF3FEF92
:101150004FE75FECC701B6010E94A11687FDF3CFF0
:1011600020E030E0A901C701B6010E94A11610E0FD
:1011700000E087FF0AC06DE28BEB93E00E942B0238
:101180008C01F7FAF094F7F8F094C0E060E070E0BA
:1011900080E09FE37C1641F020E030E040E251E443
:1011A0000E94A616CF5FF6CFA70196010E943516C2
:1011B0002B013C010E9418174B015C014AE00E9480
:1011C00001087C01E00EF11ECC23C1F1C501B40180
:1011D0000E9447179B01AC01C301B2010E94341663
:1011E0004B015C016EE28BEB93E00E942B02E80E58
:1011F000F91EC15018F120E030E040E251E4C50191
:10120000B4010E94FE172B013C010E9418174B01EC
:10121000B12CA12C4AE0C501B4010E940108E80EDE
:10122000F91EC501B4010E9447179B01AC01C3011F
:10123000B2010E9434164B015C01DBCFC701CF9194
:101240001F910F91FF90EF90DF90CF90BF90AF90E4
:101250009F908F907F906F905F904F9008952F9206
:101260003F924F925F926F927F928F929F92AF9236
:10127000BF92CF92DF92EF92FF920F931F93CF9383
:10128000DF9300D01F92CDB7DEB7FC014B01042FD6
:101290009681878199838A8320803180211431044B
:1012A00009F439C1418550E0D10114968D919C918A
:1012B00084179507C8F4B12C8B2D0F900F900F90C9
:1012C0000F90DF91CF911F910F91FF90EF90DF90E2
:1012D000CF90BF90AF909F908F907F906F905F90D6
:1012E0004F903F902F900895F101808191E090936D
:1012F00097038093B903109298031092BA0320E0E9
:10130000BE016F5F7F4FC1010E94DE06B82E8823A9
:1013100091F2802F90E09C838B83D12CC12C01E033
:10132000AB81BC81CA16DB0638F6F1018481958158
:101330007D01EC18FD088E159F0508F47C01D10194
:10134000AC900E9460032B013C01809191038111BC
:1013500072C01E2D113208F010E20093910321E0BB
:101360008B819C818E199F09C816D90608F420E04C
:1013700020939003BFEFB0938F0310928E038FEFF3
:10138000810F80938D0300936C0380916C03AA0CF2
:10139000A82AA0926C0380916B03813009F092C05F
:1013A00010926B030E9460032B013C0180916C033F
:1013B0008093BB008091930390919403A091950337
:1013C000B0919603892B8A2B8B2BA1F00E9460038E
:1013D000209193033091940340919503509196038B
:1013E00064197509860997092617370748075907A9
:1013F00008F442C08091BC0083FDD8CFE5ECE093B7
:10140000BC000E9460032B013C018091910381305C
:1014100009F45CC080918E03811710F410918E0343
:10142000ADE6B3E0E8EFF2E080E0811751F19D9185
:1014300091938F5FFACF8091930390919403A09141
:101440009503B0919603892B8A2B8B2B09F47DCFC2
:101450000E9460032091930330919403409195037F
:10146000509196036419750986099709261737075D
:101470004807590708F069CF809192030E94FC0346
:1014800010E010926603109365031E151F0409F007
:1014900012CF34016C0C7D1C2301C20186199709FF
:1014A0008E159F05A8F5D10111968D919C91DC01B7
:1014B000ED91FC910284F385E02D1995F201819361
:1014C0002F01EBCFF5EEF093BC009BCF80919303FF
:1014D00090919403A0919503B0919603892B8A2B48
:1014E0008B2B09F492CF0E946003209193033091DB
:1014F00094034091950350919603641975098609E8
:101500009709261737074807590708F07ECFB4CF49
:10151000CE0CDF1C05CFA281B381109709F4CBCE8E
:101520002481358110E0418550E02330310571F48C
:10153000816089839A834F5F5F4F9401BE016F5F23
:101540007F4FCD010E946706B82EB6CE211531051A
:1015500019F490689983F1CF2230310511F49F7707
:10156000F9CF2130310549F7906CF4CFCF93DF9359
:10157000EC01BC01655F7F4F48850E942F098823DD
:1015800001F1488550E030E020E060E070E0CB0100
:1015900024173507CCF4982F872F762F6627EA85F6
:1015A000E1110AC0FA01E21BF30BEC0FFD1FE2850B
:1015B0006E2B2F5F3F4FECCFFE01E20FF31FE38551
:1015C000F7CF6FEF7FEFCB01DF91CF9108958F922F
:1015D0009F92AF92BF92CF92DF92EF92FF920F93C2
:1015E0001F93CF93DF93EC014A015B0188819981BE
:1015F0000E94B60A2A8101E010E002C0000F111F0C
:101600002A95E2F701501109012E000C220B330B31
:10161000AB81680179010A2E04C0CC0CDD1CEE1CE4
:10162000FF1C0A94D2F7C094D094E094F094C622A0
:10163000D722E822F922E881F981B901A8014821DD
:1016400059216A217B2104C0440F551F661F771F53
:10165000AA95D2F74C295D296E297F292085CF01D3
:10166000DF91CF911F910F91FF90EF90DF90CF907E
:10167000BF90AF909F908F900C9435070F931F935E
:10168000CF93DF93EC01888199810E94B60AAB0168
:10169000BC012A8181E090E002C0880F991F2A9541
:1016A000E2F70197092E000CAA0BBB0B2B8104C09B
:1016B00076956795579547952A95D2F78C019D01A8
:1016C0000423152326233723C901B801DF91CF91C5
:1016D0001F910F910895AF92BF92CF92DF92EF9238
:1016E000FF920F931F93CF93DF93CDB7DEB7E897A9
:1016F0000FB6F894DEBF0FBECDBF8C01FC01868D06
:10170000978D1BA21CA21DA21EA29D8B8C8B1F8AD3
:101710001E8AFF24F394FD8E8BE390E09B8F8A8FCB
:101720001E8E8EE08C8F4EE0BE01695D7F4FCE0134
:1017300044960E942F098FA198A59827892798275A
:10174000F80195A784A789A59AA59827892798279E
:1017500097A786A78BA59CA598278927982791AB43
:1017600080AB6DA57EA576276727762773AB62AB26
:101770008FA598A998278927982795AB84AB89A925
:101780009AA998278927982797AB86AB8BA99CA9FC
:1017900098278927982791AF80AF072E000C880BD8
:1017A000990B0E94491720E030E04AEA53E40E9476
:1017B000A61628EB3EE142E152E40E943516F801FC
:1017C0006283738384839583868D978D188A198AA3
:1017D0001A8A1B8A9A8389831C821B82FA868CE16F
:1017E00090E098878F831B86F986CE0101965C0175
:1017F0009EAB8DAB82E08FAB83E088AFCE01C59608
:101800000E943E0BC12CD12CE12CE5E4FE2E63306E
:101810007105E1F06230710599F06130710509F4EC
:10182000D6C0C12CD12CF0E8EF2EFFE3FF2E672BA2
:1018300069F4C12CD12C50E8E52E56E4F52E06C0F3
:10184000C12CD12C70E8E72E75E4F72EF80164A5C1
:1018500075A5072E000C880B990B0E944917A7014C
:1018600096010E94A616F801668377838087918788
:1018700066A577A5072E000C880B990B0E944917C7
:10188000A70196010E94A616F801628773878487D4
:10189000958760A971A9072E000C880B990B0E94EF
:1018A0004917A70196010E94A616F8016687778757
:1018B000808B918B868D978D188A198A1A8A1B8A3C
:1018C0009A8389831C821B8281E08A872BE130E026
:1018D00038872F831B868987BEAAADAA82E08FAB8B
:1018E00083E088AFCE01C5960E943E0BC12CD12C5F
:1018F00033E0E32E33E4F32E6115710519F1C12CA9
:10190000D12C23E8E22E22E4F22E61307105D1F0D1
:1019100093E3C92EDC2C93E0E92E92E4F92E623099
:10192000710581F0C12CD12C40E8E42E4FE3F42E58
:101930006330710539F483E3C82EDC2C83E8E82E8C
:1019400081E4F82EF80164A975A9072E000C880B14
:10195000990B0E944917A70196010E94A616F8014B
:10196000628B738B848B958B66A977A9072E000CED
:10197000880B990B0E944917A70196010E94A61691
:10198000F801668B778B808F918F60AD71AD072EDC
:10199000000C880B990B0E944917A70196010E9421
:1019A000A616F801628F738F848F958FE8960FB615
:1019B000F894DEBF0FBECDBFDF91CF911F910F9185
:1019C000FF90EF90DF90CF90BF90AF900895C12C23
:1019D000D12CE12C66E4F62E39CF0F931F93CF93D1
:1019E000DF938C01EB01DC0114968D919C910E9498
:1019F0006B0BD8011496ED91FC918FB7F894409140
:101A00006703509168036091690370916A038FBF07
:101A10009E012C5F3F4F80E2D9011D928A95E9F724
:101A200084E290E0A0E0B0E088839983AA83BB833E
:101A300082A593A5B0E0A0E08C839D83AE83BF8395
:101A40008DE090E0A0E0B0E088879987AA87BB8707
:101A5000488B598B6A8B7B8B82819381A481B58162
:101A60008C8B9D8BAE8BBF8B81E0DF91CF911F91D3
:101A70000F910895CF92DF92EF92FF920F931F93F1
:101A8000CF93DF938C01EB01DC0114968D919C9137
:101A90000E946B0BF801048115818FB7F894C090F8
:101AA0006703D0906803E0906903F0906A038FBFEA
:101AB000FE01349680E2DF011D928A95E9F741E04C
:101AC00050E060E070E0488359836A837B83F801CB
:101AD00086A197A1B0E0A0E08C839D83AE83BF83F5
:101AE000488759876A877B87C88AD98AEA8AFB8AA6
:101AF0002AE038EE4CE151E466817781808591855A
:101B00000E94FE176C8B7D8B8E8B9F8B2AE038EEAC
:101B10004CE151E4D8011A966D917D918D919C9183
:101B20001D970E94FE17688F798F8A8F9B8F2AE0FE
:101B300038EE4CE151E4F80166857785808991891A
:101B40000E94FE176C8F7D8F8E8F9F8F81E0DF91BB
:101B5000CF911F910F91FF90EF90DF90CF9008955C
:101B60000F931F93CF93DF938C01EB01DC0114964D
:101B70008D919C910E946B0BF801048115818FB7A8
:101B8000F8944091670350916803609169037091E4
:101B90006A038FBFFE01349680E2DF011D928A95B1
:101BA000E9F781E090E0A0E0B0E088839983AA8320
:101BB000BB83F80180A591A5B0E0A0E08C839D8354
:101BC000AE83BF8384E090E0A0E0B0E0888799878F
:101BD000AA87BB87488B598B6A8B7B8B25E33AEFAF
:101BE0004EE85CE362897389848995890E94FE17B7
:101BF0006C8B7D8B8E8B9F8B25E33AEF4EE85CE3FD
:101C0000D80156966D917D918D919C9159970E9426
:101C1000FE17688F798F8A8F9B8F25E33AEF4EE806
:101C20005CE3F801628D738D848D958D0E94FE17A3
:101C30006C8F7D8F8E8F9F8F81E0DF91CF911F9171
:101C40000F9108950C9436190C9436190C9436198A
:101C50009F92AF92BF92CF92DF92EF92FF920F933B
:101C60001F93CF93DF93CDB7DEB7AA970FB6F89443
:101C7000DEBF0FBECDBF8C01DC0197965C934E9307
:101C80009697CA01019699969C938E9398974E5F6A
:101C90005F4F9B965C934E939A975E962D913C91E5
:101CA0001BA21CA21DA21EA23D8B2C8B1F8A1E8A6A
:101CB00081E08D8F4BE650E05B8F4A8F1E8E8C8FBC
:101CC000188A198A1A8A1B8A3A8329831C821B82E2
:101CD0008A8728E630E038872F831B8689875E0154
:101CE000B4E1AB0EB11CB8A6AFA289A787E08AA762
:101CF00041E050E060E070E0CE0187960E94E70A84
:101D0000CE0187960E943E0B6130710581059105D9
:101D100039F461E070E080E090E00E948503F0CF4C
:101D200064E670E080E090E00E94850320E047E0F8
:101D300050E060E070E0FE0131966F01CF010E943B
:101D4000350764E670E080E090E00E948503D801EA
:101D50005E968D919C91188A198A1A8A1B8A9A8399
:101D600089831C821B82FF24F394FA8689E190E028
:101D700098878F831B86F98620E040E050E0BA0107
:101D8000C6010E943507F801868D978D188A198A39
:101D90001A8A1B8A9A8389831C821B82FA868AE1AB
:101DA00090E098878F831B86F986DD8ACC8A83E052
:101DB000E82EEE8A1F8A40E050E0BA01C5010E9479
:101DC000E70AD8015E968D919C91188A198A1A8A21
:101DD0001B8A9A8389831C821B82FA868BE190E09E
:101DE00098878F831B86F986DD8ACC8A92E0992EAC
:101DF0009E8AEF8A41E050E060E070E0C5010E94F9
:101E0000E70AF801868D978D188A198A1A8A1B8A23
:101E10009A8389831C821B82FA868CE190E09887E2
:101E20008F831B86F986DD8ACC8A9E8AEF8A40E002
:101E300050E0BA01C5010E94E70AD8015E968D9173
:101E40009C91188A198A1A8A1B8A9A8389831C8210
:101E50001B82FA868BE690E098878F831B86F98633
:101E600020E041E050E060E070E0C6010E943507EC
:101E700064E670E080E090E00E948503F80180A1B4
:101E800091A1009739F0DC01ED91FC910280F38182
:101E9000E02D1995F80182A193A1009739F0DC019A
:101EA000ED91FC910280F381E02D1995F80184A158
:101EB00095A1009739F0DC01ED91FC910280F3814E
:101EC000E02D199586E090E00E949A18FC0186E2C8
:101ED00092E09183808380E596E0938382831583EB
:101EE0000483D8019196FC93EE93909786E090E05E
:101EF0000E949A18FC0188E192E09183808381E539
:101F000096E09383828315830483D8019396FC9390
:101F1000EE93929786E090E00E949A18FC018AE086
:101F200092E09183808382E596E093838283158398
:101F30000483D8019596FC93EE93949781E0AA963A
:101F40000FB6F894DEBF0FBECDBFDF91CF911F91CA
:101F50000F91FF90EF90DF90CF90BF90AF909F9048
:101F6000089585ED8093BC00809193039091940334
:101F7000A0919503B09196030796A11DB11D23E092
:101F8000B695A795979587952A95D1F72091BC008E
:101F900024FD03C010929103089540919303509142
:101FA00094036091950370919603452B462B472B24
:101FB00069F30097A105B10541F02AE22A95F1F7EE
:101FC00000C00197A109B109E1CF809192030C945F
:101FD000FC030F931F93CF93DF938C01EB0188E2F7
:101FE000FB0111928A95E9F74BE050E069E672E057
:101FF000CE010E94BF191B8681E090E0A0E0B0E016
:102000008C879D87AE87BF87F80182819381092ED7
:10201000000CAA0BBB0B888B998BAA8BBB8B8DE01A
:1020200090E0A0E0B0E08C8B9D8BAE8BBF8B1CA2B0
:102030001DA21EA21FA280E090E0A0E2B2EC8C8F55
:102040009D8FAE8FBF8F80E090E0A2EDB2E4888FCD
:10205000998FAA8FBB8F84E09DEAA0E4BBE388A39D
:1020600099A3AAA3BBA3DF91CF911F910F910895CC
:102070000F931F93CF93DF938C01EB0188E2FB0159
:1020800011928A95E9F74BE050E063E772E0CE01E8
:102090000E94BF191B8641E050E060E070E04C8771
:1020A0005D876E877F87F80182819381092E000CFE
:1020B000AA0BBB0B888B998BAA8BBB8B4C8B5D8B34
:1020C0006E8B7F8B1CA21DA21EA21FA28AE098EE1F
:1020D000ACE1B3EC8C8F9D8FAE8FBF8F8AE098EE12
:1020E000ACE1B3E4888F998FAA8FBB8F83E29BED1D
:1020F000A9E7BDE388A399A3AAA3BBA3DF91CF91CE
:102100001F910F9108950F931F93CF93DF938C012D
:10211000EB0188E2FB0111928A95E9F74BE050E070
:102120006DE772E0CE010E94BF191B8681E090E04E
:10213000A0E0B0E08C879D87AE87BF87F8018281E1
:102140009381092E000CAA0BBB0B888B998BAA8B51
:10215000BB8B84E090E0A0E0B0E08C8B9D8BAE8BDD
:10216000BF8B1CA21DA21EA21FA287ED93EAABE0AB
:10217000B2EC8C8F9D8FAE8FBF8F87ED93EAABE073
:10218000B2E4888F998FAA8FBB8F8AE99BEAABE074
:10219000B9E388A399A3AAA3BBA3DF91CF911F9111
:1021A0000F9108951F920F920FB60F9211240BB644
:1021B0000F922F933F934F935F936F937F938F93E0
:1021C0009F93AF93BF93EF93FF938BEB93E00E94AA
:1021D0000902FF91EF91BF91AF919F918F917F91F4
:1021E0006F915F914F913F912F910F900BBE0F9088
:1021F0000FBE0F901F9018951F920F920FB60F925F
:1022000011240BB60F922F938F939F93EF93FF930D
:10221000E091CB03F091CC038081E091D103F09168
:10222000D20382FD1DC090818091D4038F5F8F7394
:102230002091D503821741F0E091D403F0E0E554FA
:10224000FC4F958F8093D403FF91EF919F918F91D5
:102250002F910F900BBE0F900FBE0F901F901895EF
:102260008081F2CF1F920F920FB60F9211242F93FD
:102270003F938F939F93AF93BF9380916703909108
:102280006803A0916903B0916A0330915C0323E075
:10229000230F2D3758F50196A11DB11D20935C0326
:1022A0008093670390936803A0936903B0936A03D4
:1022B00080915D0390915E03A0915F03B0916003F4
:1022C0000196A11DB11D80935D0390935E03A093C1
:1022D0005F03B0936003BF91AF919F918F913F9146
:1022E0002F910F900FBE0F901F90189526E8230F87
:1022F0000296A11DB11DD2CF1F920F920FB60F9261
:1023000011240BB60F922F933F934F935F936F93CC
:102310007F938F939F93AF93BF93EF93FF9380919E
:10232000B900887F803609F44DC008F040C088327B
:1023300009F4A9C028F5803109F49DC0C8F48823A8
:1023400009F4FBC0883009F496C0FF91EF91BF916A
:10235000AF919F918F917F916F915F914F913F913D
:102360002F910F900BBE0F900FBE0F901F901895DE
:10237000883109F488C0803241F780938F0314C0FC
:10238000803409F49DC040F48033B9F38833E9F612
:1023900080938F0385ECB0C0803509F485C0883503
:1023A00009F496C0883489F60E94B10FCECF8839DF
:1023B00009F48CC038F5883729F050F4883611F0CC
:1023C000803719F683E08093910310925B0357C026
:1023D000883809F47BC0803919F0803809F0B5CF0E
:1023E00080915B03803208F071C0E0915B0381E073
:1023F0008E0F80935B038091BB00F0E0E55CFC4FA7
:1024000080833DC0803B39F0E0F4803A09F479C024
:10241000883A09F09ACF84E08093910310923A03AE
:1024200010923903E0916103F09162031995809154
:10243000390381110FC081E0809339031092190391
:1024400009C0803C09F4A6CF883C09F4A3CF883B9F
:1024500009F07BCFE0913A0381E08E0F80933A033D
:10246000F0E0E75EFC4F80818093BB0090913A03DF
:102470008091390329C080916C038093BB0085EC67
:102480008093BC0062CF90918E0380918D0398174A
:1024900058F5E0918E0381E08E0F80938E03F0E07B
:1024A000E359FC4F8081E9CFE0918E0381E08E0FEC
:1024B00080938E038091BB00F0E0E359FC4F808352
:1024C00090918E0380918D039817C8F285E8D8CF3C
:1024D000E0918E0381E08E0F80938E038091BB008C
:1024E000F0E0E359FC4F80838091900381115CCF31
:1024F00081E080936B0384EA8093BC001092910387
:1025000024CF85EC8093BC001092910380915B03F3
:10251000803230F4E0915B03F0E0E55CFC4F108228
:1025200060915B0370E0E0916303F09164038BE3DF
:1025300093E0199510925B0308CF10928F0334CF6C
:10254000EBEBF3E01382128288EE93E0A0E0B0E0C0
:1025500084839583A683B78324E332E03183208389
:1025600025EC30E03587248724EC30E03787268758
:1025700020EC30E0318B208B21EC30E0338B228B50
:1025800022EC30E0358B248B26EC30E0378B268B29
:10259000118E128E138E148EE8E5F4E013821282EF
:1025A00084839583A683B78386E492E091838083B6
:1025B000E4E6F4E088E592E091838083178E168E3E
:1025C00011A210A213A212A215A214A20895CF93D1
:1025D000DF93CDB7DEB7C057D1090FB6F894DEBF91
:1025E0000FBECDBF789484B5826084BD84B5816010
:1025F00084BD85B5826085BD85B5816085BD8091CE
:102600006E00816080936E00109281008091810045
:10261000826080938100809181008160809381003D
:10262000809180008160809380008091B1008460FF
:102630008093B1008091B00081608093B000809160
:1026400091008260809391008091910081608093DD
:102650009100809190008160809390008091A10012
:1026600082608093A1008091A10081608093A1008D
:102670008091A00081608093A00080912101826000
:1026800080932101809121018160809321018091BB
:10269000200181608093200180917A008460809382
:1026A0007A0080917A00826080937A0080917A002B
:1026B000816080937A0080917A00806880937A00AC
:1026C0001092C100E091CB03F091CC0382E08083B3
:1026D000E091C703F091C8031082E091C903F09123
:1026E000CA0380E180831092D303E091CF03F0917D
:1026F000D00386E08083E091CD03F091CE0380810A
:1027000080618083E091CD03F091CE038081886069
:102710008083E091CD03F091CE0380818068808337
:10272000E091CD03F091CE0380818F7D80838091F5
:10273000820490918304009711F00E94361986E07C
:1027400090E00E949A18FC0188E6808388E594E076
:1027500092838183138280E290E095838483F09357
:102760008304E093820405E033E9C32E31E0D32EE5
:1027700044E9A42E41E0B42E11E0E0908204F090F0
:1027800083041092660310926503109298031092CE
:10279000BA030E94DE03D0926203C0926103B0923A
:1027A0006403A0926303D70113961C93C7010E9490
:1027B000FC0681110DC06AE070E080E090E00E94AC
:1027C00085030150D1F687E892E00E944508FFCFCB
:1027D0008091820490918304188A198A1A8A1B8A2C
:1027E0009A8389831C821B821A8785E790E09887E9
:1027F0008F831B861987DE0111967D01CD010E9412
:10280000B60A6836710581059105E9F640E050E0A9
:10281000BA0184E694E00E94280E8823A1F28BE995
:1028200092E00E9445088091820490918304188A66
:10283000198A1A8A1B8A9A8389831C821B821A87A7
:102840008CE190E098878F831B861987FEA2EDA20A
:1028500082E0D82EDFA203E008A742E050E060E06B
:1028600070E0CE0185960E94E70A809182049091E3
:102870008304188A198A1A8A1B8A9A8389831C827C
:102880001B821A878BE190E098878F831B861987BC
:10289000FEA2EDA2DFA208A741E050E060E070E0F8
:1028A000CE0185960E94E70A80918204909183046C
:1028B000188A198A1A8A1B8A9A8389831C821B8226
:1028C0001A878AE190E098878F831B861987FEA27A
:1028D000EDA20FA318A644E050E060E070E0CE0146
:1028E00085960E94E70A64EF71E080E090E00E9424
:1028F00085031E01BDE02B0E311C18E194E2492E28
:10290000512C612C712CE9E4F0E0EC0FFD1F3C969A
:10291000E196FFAFEEAFE197812C912C54018394A7
:10292000CE01C196AF969FAF8EAFAF978FB7F89499
:10293000C0906703D0906803E0906903F0906A0349
:102940008FBF84E694E00E946B0BD101E12F1D92B2
:10295000EA95E9F749825A826B827C8280918E04E3
:1029600090918F04B0E0A0E08D839E83AF83B88701
:102970008DE090E0A0E0B0E089879A87AB87BC87C4
:10298000C98ADA8AEB8AFC8A80916604909167048E
:10299000A0916804B09169048D8B9E8BAF8BB88F2A
:1029A000E196AEADBFADE197E12F1D92EA95E9F753
:1029B0002D968CAE9DAEAEAEBFAE2D9780918A04A3
:1029C00090918B04B0E0A0E061968CAF9DAFAEAF6C
:1029D000BFAF619765968CAE9DAEAEAEBFAE65974C
:1029E0006D96CCAEDDAEEEAEFFAE6D972AE038EE62
:1029F0004CE151E460916A0470916B0480916C0425
:102A000090916D040E94FE17A1966CAF7DAF8EAFC2
:102A10009FAFA1972AE038EE4CE151E460916E043B
:102A200070916F0480917004909171040E94FE1760
:102A3000A5966CAF7DAF8EAF9FAFA5972AE038EE1D
:102A40004CE151E4609172047091730480917404BC
:102A5000909175040E94FE17A9966CAF7DAF8EAF62
:102A60009FAFA997AF96AEADBFADAF97E12F1D92C7
:102A7000EA95E9F78DA29EA2AFA2B8A680918C0438
:102A800090918D04B0E0A0E089A79AA7ABA7BCA75E
:102A900084E090E0A0E0B0E08DA79EA7AFA7B8AB20
:102AA000CDAADEAAEFAAF8AE25E33AEF4EE85CE342
:102AB0006091760470917704809178049091790404
:102AC0000E94FE1769AF7AAF8BAF9CAF25E33AEF58
:102AD0004EE85CE360917A0470917B0480917C0401
:102AE00090917D040E94FE1721966CAF7DAF8EAF52
:102AF0009FAF219725E33AEF4EE85CE360917E04B7
:102B000070917F0480918004909181040E94FE174F
:102B100025966CAF7DAF8EAF9FAF25978BEA92E085
:102B20000E94F407A1966CAD7DAD8EAD9FADA197CF
:102B300042E00E9453088CEB92E00E94F407A596B5
:102B40006CAD7DAD8EAD9FADA59742E00E94530860
:102B500082EC92E00E94F407A9966CAD7DAD8EAD3B
:102B60009FADA99742E00E94530888EC92E00E9432
:102B700045088FEC92E00E94F40769AD7AAD8BAD09
:102B80009CAD42E00E9453088CEB92E00E94F40757
:102B900021966CAD7DAD8EAD9FAD219742E00E9438
:102BA000530882EC92E00E94F40725966CAD7DAD4F
:102BB0008EAD9FAD259742E00E9453088CED92E0C8
:102BC0000E94450883EE92E00E94F4076D897E8999
:102BD0008F89988D42E00E94530881EF92E00E9415
:102BE00045088CE592E00E94450864EF71E080E0C2
:102BF00090E00E9485030E94980298CE88E592E0BA
:102C0000909365048093640480918404909185047A
:102C1000009739F0DC01ED91FC910280F381E02D09
:102C200019958091860490918704009739F0DC0112
:102C3000ED91FC910280F381E02D1995809188043B
:102C400090918904009739F0DC01ED91FC910280AC
:102C5000F381E02D1995809182049091830400976F
:102C600011F00C94361908955058BB27AA270E94DA
:102C70004C160C94BF170E94B11738F00E94B81779
:102C800020F039F49F3F19F426F40C94AE170EF49B
:102C9000E095E7FB0C94A817E92F0E94D01758F392
:102CA000BA17620773078407950720F079F4A6F531
:102CB0000C94F2170EF4E0950B2EBA2FA02D0B01F9
:102CC000B90190010C01CA01A0011124FF27591B71
:102CD00099F0593F50F4503E68F11A16F040A22F77
:102CE000232F342F4427585FF3CF469537952795E8
:102CF000A795F0405395C9F77EF41F16BA0B620BE7
:102D0000730B840BBAF09150A1F0FF0FBB1F661F2D
:102D1000771F881FC2F70EC0BA0F621F731F841F70
:102D200048F4879577956795B795F7959E3F08F096
:102D3000B0CF9395880F08F09927EE0F9795879558
:102D400008950E94841708F481E008950E94BA163D
:102D50000C94BF170E94B81758F00E94B11740F0AA
:102D600029F45F3F29F00C94A81751110C94F31724
:102D70000C94AE170E94D01768F39923B1F3552332
:102D800091F3951B550BBB27AA276217730784077E
:102D900038F09F5F5F4F220F331F441FAA1FA9F314
:102DA00035D00E2E3AF0E0E832D091505040E69502
:102DB000001CCAF72BD0FE2F29D0660F771F881F63
:102DC000BB1F261737074807AB07B0E809F0BB0B56
:102DD000802DBF01FF2793585F4F3AF09E3F51056A
:102DE00078F00C94A8170C94F3175F3FE4F3983E27
:102DF000D4F3869577956795B795F7959F5FC9F753
:102E0000880F911D9695879597F90895E1E0660FD3
:102E1000771F881FBB1F621773078407BA0720F04C
:102E2000621B730B840BBA0BEE1F88F7E0950895B5
:102E30000E94D81788F09F5798F0B92F9927B7515B
:102E4000B0F0E1F0660F771F881F991F1AF0BA954E
:102E5000C9F714C0B13091F00E94F217B1E00895A3
:102E60000C94F217672F782F8827B85F39F0B93F95
:102E7000CCF3869577956795B395D9F73EF4909501
:102E80008095709561957F4F8F4F9F4F0895E8947F
:102E900009C097FB3EF490958095709561957F4FA2
:102EA0008F4F9F4F9923A9F0F92F96E9BB27939550
:102EB000F695879577956795B795F111F8CFFAF460
:102EC000BB0F11F460FF1BC06F5F7F4F8F4F9F4F91
:102ED00016C0882311F096E911C0772321F09EE8EF
:102EE000872F762F05C0662371F096E8862F70E055
:102EF00060E02AF09A95660F771F881FDAF7880F2F
:102F00009695879597F90895990F0008550FAA0B84
:102F1000E0E8FEEF16161706E807F907C0F01216EC
:102F20001306E407F50798F0621B730B840B950BEF
:102F300039F40A2661F0232B242B252B21F4089544
:102F40000A2609F4A140A6958FEF811D811D0895E1
:102F500097F99F6780E870E060E008959FEF80EC4C
:102F6000089500240A9416161706180609060895EF
:102F700000240A9412161306140605060895092E55
:102F80000394000C11F4882352F0BB0F40F4BF2BC4
:102F900011F460FF04C06F5F7F4F8F4F9F4F089504
:102FA00057FD9058440F551F59F05F3F71F04795FA
:102FB000880F97FB991F61F09F3F79F087950895DF
:102FC000121613061406551FF2CF4695F1DF08C0FE
:102FD000161617061806991FF1CF8695710561051B
:102FE00008940895E894BB2766277727CB0197F9C3
:102FF00008950E94841708F48FEF08950E94111815
:103000000C94BF170E94B11738F00E94B81720F037
:10301000952311F00C94A8170C94AE1711240C945E
:10302000F3170E94D01770F3959FC1F3950F50E0EE
:10303000551F629FF001729FBB27F00DB11D639F6A
:10304000AA27F00DB11DAA1F649F6627B00DA11D10
:10305000661F829F2227B00DA11D621F739FB00DB6
:10306000A11D621F839FA00D611D221F749F332726
:10307000A00D611D231F849F600D211D822F762FBF
:103080006A2F11249F5750409AF0F1F088234AF09C
:10309000EE0FFF1FBB1F661F771F881F9150504008
:1030A000A9F79E3F510580F00C94A8170C94F317D4
:1030B0005F3FE4F3983ED4F3869577956795B7958F
:1030C000F795E7959F5FC1F7FE2B880F911D9695A9
:1030D000879597F908950E948417880B990B089596
:1030E000A1E21A2EAA1BBB1BFD010DC0AA1FBB1F0C
:1030F000EE1FFF1FA217B307E407F50720F0A21B7E
:10310000B30BE40BF50B661F771F881F991F1A94EA
:1031100069F760957095809590959B01AC01BD0114
:10312000CF010895EE0FFF1F881F8BBF0790F69108
:10313000E02D19940F931F93CF93DF938230910565
:1031400010F482E090E0E091A004F091A10430E05E
:1031500020E0B0E0A0E0309799F42115310509F4A2
:103160004AC0281B390B24303105D8F58A819B8150
:103170006115710589F1FB0193838283FE0111C002
:10318000408151810281138148175907E0F04817A7
:10319000590799F4109761F012960C9312971396B1
:1031A0001C933296CF01DF91CF911F910F9108951B
:1031B0000093A0041093A104F4CF2115310551F020
:1031C0004217530738F0A901DB019A01BD01DF0165
:1031D000F801C1CFEF01F9CF9093A1048093A0042F
:1031E000CDCFFE01E20FF31F81939193225031095D
:1031F00039832883D7CF20919E0430919F04232BBD
:1032000041F4209102023091030230939F042093F5
:103210009E0420910002309101022115310541F4F4
:103220002DB73EB74091040250910502241B350B87
:10323000E0919E04F0919F04E217F307A0F42E1B87
:103240003F0B2817390778F0AC014E5F5F4F24170A
:10325000350748F04E0F5F1F50939F0440939E0424
:10326000819391939FCFF0E0E0E09CCFCF93DF93E9
:103270000097E9F0FC01329713821282A091A0041A
:10328000B091A104ED0130E020E01097A1F420817D
:103290003181820F931F20919E0430919F04281743
:1032A000390709F061C0F0939F04E0939E04DF9119
:1032B000CF910895EA01CE17DF07E8F54A815B81D7
:1032C0009E0141155105B1F7E901FB83EA8349915C
:1032D0005991C40FD51FEC17FD0761F480819181CE
:1032E0000296840F951FE9019983888382819381D7
:1032F0009B838A83F0E0E0E012968D919C91139776
:103300000097B9F52D913C911197CD010296820F4E
:10331000931F20919E0430919F042817390739F696
:10332000309751F51092A1041092A004B0939F041D
:10333000A0939E04BCCFD383C28340815181840F6C
:10334000951FC817D90761F44E5F5F4F8881998137
:10335000480F591F518340838A819B8193838283C5
:103360002115310509F0B0CFF093A104E093A0043A
:103370009ECFFD01DC01C0CF13821282D7CFFB01AB
:10338000DC014150504048F001900D920020C9F7F7
:1033900001C01D9241505040E0F7089511E0CFE583
:1033A000D1E000E006C0802FFE010E949218219615
:1033B000011DC036D10780E00807A9F7F894FFCFB8
:1033C0000000A204800000000000F207220EF307B4
:1033D000B00D831000000000F207240EF3073A0D31
:1033E000381000000000F207260EF307ED0CE90F7D
:1033F000000000002B029501C2017802F301D10107
:10340000E501000000006405370593050D05300552
:103410001D050E0500000000280E0D0A006E616EED
:1034200000696E66006F7666004D50553630353057
:103430005F54004D5055363035305F41004D50558A
:10344000363035305F47004D505536303530204EE0
:103450006F7420466F756E64210A004D50553630EA
:10346000353020466F756E64210A00416363656CD8
:1034700065726174696F6E20583A20002C20593AA9
:1034800020002C205A3A2000206D2F735E3200520B
:103490006F746174696F6E20583A20002072616405
:1034A0002F730054656D70657261747572653A2092
:0834B000002064656743000081
:00000001FF
