:100000000C9458000C9480000C9480000C94800098
:100010000C9480000C9480000C9480000C94800060
:100020000C9417040C9480000C9480000C948000B5
:100030000C9480000C9480000C9480000C94800040
:100040000C94CD030C9480000C949B030C947503CA
:100050000C9480000C9480000C9480000C94800020
:100060000C9480000C948000000000002500280003
:100070002B0000000008000201000003040700003C
:10008000000000000000040404040404040402024C
:100090000202020203030303030301020408102007
:1000A0004080010204081020010204081020D50439
:1000B00011241FBECFEFD8E0DEBFCDBF23E0AAE5FD
:1000C000B1E001C01D92A532B207E1F711E0A0E056
:1000D000B1E0ECE1FEE002C005900D92AA35B10757
:1000E000D9F710E0C8E5D0E004C02197FE010E94D6
:1000F0000607C735D107C9F70E9412050C940C07F3
:100100000C940000AF92BF92CF92DF92EF92FF92D9
:100110000F931F93CF93DF936C017B018B01040F2F
:10012000151FEB015E01AE18BF08C017D10759F0CB
:100130006991D601ED91FC910190F081E02DC6010D
:100140000995892B79F7C501DF91CF911F910F9107
:10015000FF90EF90DF90CF90BF90AF900895FC019B
:10016000538D448D252F30E0842F90E0821B930B1C
:10017000541710F0CF96089501970895FC01918DC2
:10018000828D981761F0A28DAE0FBF2FB11D5D96C5
:100190008C91928D9F5F9F73928F90E008958FEF67
:1001A0009FEF0895FC01918D828D981731F0828D1B
:1001B000E80FF11D858D90E008958FEF9FEF089572
:1001C000FC01918D228D892F90E0805C9F4F821BD6
:1001D00091098F739927089588E691E00E94E000C5
:1001E00021E0892B09F420E0822F089580E090E03F
:1001F000892B29F00E94EC0081110C9400000895D5
:10020000FC01A48DA80FB92FB11DA35ABF4F2C918B
:10021000848D90E001968F739927848FA689B78982
:100220002C93A089B1898C91837080648C93938D79
:10023000848D981306C00288F389E02D80818F7D1C
:1002400080830895EF92FF920F931F93CF93DF93D4
:10025000EC0181E0888F9B8D8C8D98131AC0E88902
:10026000F989808185FF15C09FB7F894EE89FF89D1
:100270006083E889F98980818370806480839FBF6F
:1002800081E090E0DF91CF911F910F91FF90EF906F
:100290000895F62E0B8D10E00F5F1F4F0F7311277F
:1002A000E02E8C8D8E110CC00FB607FCFACFE889BA
:1002B000F989808185FFF5CFCE010E940001F1CF41
:1002C000EB8DEC0FFD2FF11DE35AFF4FF0829FB72E
:1002D000F8940B8FEA89FB8980818062CFCFCF931E
:1002E000DF93EC01888D8823B9F0AA89BB89E8895E
:1002F000F9898C9185FD03C0808186FD0DC00FB604
:1003000007FCF7CF8C9185FFF2CF808185FFEDCF81
:10031000CE010E940001E9CFDF91CF91089590E0D6
:10032000FC01EE58FF4F2491FC01E656FF4F34913B
:10033000FC01EA57FF4FE491EE23C9F0222339F084
:10034000233001F1A8F4213019F1223029F1F0E035
:10035000EE0FFF1FE859FF4FA591B4918FB7F894A6
:10036000EC91611126C030953E233C938FBF0895D8
:100370002730A9F02830C9F0243049F78091800057
:100380008F7D03C0809180008F7780938000DFCFC6
:1003900084B58F7784BDDBCF84B58F7DFBCF809113
:1003A000B0008F778093B000D2CF8091B0008F7D66
:1003B000F9CF3E2BDACF3FB7F89480915B01909153
:1003C0005C01A0915D01B0915E0126B5A89B05C0BE
:1003D0002F3F19F00196A11DB11D3FBFBA2FA92FC4
:1003E000982F8827BC01CD01620F711D811D911DC1
:1003F00042E0660F771F881F991F4A95D1F708952D
:100400008F929F92AF92BF92CF92DF92EF92FF9224
:100410006B017C010E94DB014B015C01C114D10422
:10042000E104F104B9F00E94DB01681979098A0935
:100430009B09683E73408105910580F321E0C21A53
:10044000D108E108F10888EE880E83E0981EA11C0F
:10045000B11CE4CFFF90EF90DF90CF90BF90AF90B2
:100460009F908F9008958F929F92AF92BF92CF925C
:10047000DF92EF92FF924B015C010E94DB016B0166
:100480007C0124E0C21AD108E108F1080E94DB01D6
:100490006C197D098E099F09681579058A059B05E8
:1004A000A8F3FF90EF90DF90CF90BF90AF909F9018
:1004B0008F9008958091F002882319F060E00C94E9
:1004C0008F012D980895882349F08091F0028823A8
:1004D00019F061E00C948F012D9A08950C945A0242
:1004E0004F925F926F927F928F929F92AF92BF9244
:1004F000CF92DF92EF92FF92CF93DF93CDB7DEB72B
:100500002C970FB6F894DEBF0FBECDBF7C010E94C2
:10051000DB0169837A838B839C834B015C0120E040
:10052000B0E0A0E0A701BD01455251096109710980
:100530004D835E836F837887A701BD0147505109C2
:100540006109710949875A876B877C87F8945B9AA0
:1005500080916601909167018230910538F0880F93
:10056000991F880F991F05970197F1F75B98789469
:10057000211107C08091F102823019F481E00E94BC
:1005800063028091640190916501880E991EA11CFF
:10059000B11CF8940E94DB012B013C016B016981C5
:1005A0007A81C61AD70AF12CE12C8D819E81AF8108
:1005B000B885C816D906EA06FB0634F08091F10228
:1005C000823011F40E945A0249855A856B857C85D8
:1005D000C416D506E606F706B4F078942C960FB646
:1005E000F894DEBF0FBECDBFDF91CF91FF90EF90AB
:1005F000DF90CF90BF90AF909F908F907F906F9043
:100600005F904F90089521E0481459046A047B04D8
:1006100008F4C0CF9BCFE4E6F1E08AE190E091835B
:10062000808388E090E093838283539A80E093E212
:100630000E94700260EC78E080E090E00E9433025B
:1006400080E392E00C947002FC0101900020E9F735
:100650003197AF01481B590BBC0188E691E00C941F
:1006600082008F929F92AF92BF920F931F93CF936E
:10067000DF93CDB7DEB7A1970FB6F894DEBF0FBEFC
:10068000CDBF19A2423008F44AE08E010F5D1F4F22
:10069000842E912CB12CA12CA50194010E94D0068E
:1006A000E62FB901CA01EA30F4F4E05DD801EE9317
:1006B0008D01232B242B252B79F790E080E01097D8
:1006C00019F0CD010E942403A1960FB6F894DEBF65
:1006D0000FBECDBFDF91CF911F910F91BF90AF9013
:1006E0009F908F900895E95CE1CF1F920F920FB613
:1006F0000F9211242F933F934F935F936F937F93A8
:100700008F939F93AF93BF93EF93FF9388E691E00E
:100710000E940001FF91EF91BF91AF919F918F9146
:100720007F916F915F914F913F912F910F900FBEED
:100730000F901F9018951F920F920FB60F921124D1
:100740002F938F939F93EF93FF93E0917801F09114
:1007500079018081E0917E01F0917F0182FD1BC0D3
:100760009081809181018F5F8F7320918201821728
:1007700041F0E0918101F0E0E859FE4F958F8093C0
:100780008101FF91EF919F918F912F910F900FBE5B
:100790000F901F9018958081F4CF1F920F920FB683
:1007A0000F9211242F933F938F939F93AF93BF93F7
:1007B00080915F0190916001A0916101B09162010F
:1007C00030915A0123E0230F2D3758F50196A11DD2
:1007D000B11D20935A0180935F0190936001A09313
:1007E0006101B093620180915B0190915C01A091E5
:1007F0005D01B0915E010196A11DB11D80935B0169
:1008000090935C01A0935D01B0935E01BF91AF91A5
:100810009F918F913F912F910F900FBE0F901F903E
:10082000189526E8230F0296A11DB11DD2CF1F9265
:100830000F920FB60F9211242F933F934F935F9314
:100840006F937F938F939F93AF93BF93CF93EF93C8
:10085000FF93E0910702F0910802C08180910902A4
:10086000C82380910A0290910B02019649F0809171
:100870000A0290910B02019690930B0280930A0258
:100880008091050281111DC0C1116EC080910A02C4
:1008900090910B02813A910578F010920E028091AE
:1008A0000A0290910B02909311028093100281E052
:1008B00080930F028093050210920B0210920A029D
:1008C00053C0809105028130A9F4CC2309F44CC0B7
:1008D000E0910F028E0F80930F0280910A02909197
:1008E0000B02F0E0EE0FFF1FEB5FFD4F9487838755
:1008F00082E0E0CF80910502823009F04FC0C11143
:1009000022C0E0910F0281E0E03768F080930E0290
:1009100083E080930502E0910C02F0910D02309784
:1009200059F20995C9CF8E0F80930F0280910A0268
:1009300090910B02F0E0EE0FFF1FEB5FFD4F9487ED
:10094000838781E0B7CF80910A0290910B02813AB0
:10095000910550F083E080930502E0910C02F09144
:100960000D02309709F009958091F102813021F450
:10097000C11180E00E946302FF91EF91CF91BF917E
:10098000AF919F918F917F916F915F914F913F9127
:100990002F910F900FBE0F901F9018958091050218
:1009A000833011F7C111E0CF87CFE8E6F1E0138281
:1009B000128288EE93E0A0E0B0E084839583A68362
:1009C000B78389E191E09183808385EC90E09587FE
:1009D000848784EC90E09787868780EC90E0918B09
:1009E000808B81EC90E0938B828B82EC90E0958BF6
:1009F000848B86EC90E0978B868B118E128E138EF3
:100A0000148EE5E0F2E0F0931903E09318031182ED
:100A100081E0848389E290E09383828350981092EE
:100A2000F0020895CF93DF93CDB7DEB72E970FB6C0
:100A3000F894DEBF0FBECDBF789484B5826084BDCC
:100A400084B5816084BD85B5826085BD85B58160D2
:100A500085BD80916E00816080936E001092810050
:100A6000809181008260809381008091810081600B
:100A700080938100809180008160809380008091CC
:100A8000B10084608093B1008091B0008160809358
:100A9000B00080917A00846080937A0080917A001F
:100AA000826080937A0080917A00816080937A00DE
:100AB00080917A00806880937A001092C100E09162
:100AC0007801F091790182E08083E0917401F091E6
:100AD00075011082E0917601F09177018FEC8083AF
:100AE00010928001E0917C01F0917D0186E080838D
:100AF000E0917A01F0917B01808180618083E091B7
:100B00007A01F0917B01808188608083E0917A0195
:100B1000F0917B01808180688083E0917A01F0917F
:100B20007B0180818F7D80831092F0028091F102A1
:100B300082608093F102259A8E7F8093F10287E292
:100B400091E00E94240340E160E070E0CB010E944C
:100B500031038AE391E00E9424036091140170E064
:100B600090E080E040E10E94310389E491E00E943E
:100B700024036091630170E090E080E04AE00E940D
:100B8000310386E591E00E942403209163012D87C3
:100B90003091140139833095388727FF28C0E091C0
:100BA0001201F0911301309709F109958091140118
:100BB0008F5E80931401809163018F5F853008F010
:100BC000ECC08093630168EE73E080E090E00E94E7
:100BD0000002A0E0B0E0AB2B09F4B1CF0E94EC0022
:100BE000882309F4ACCF0E940000A9CF1D86609134
:100BF0000201862F869590E088519C4F70E00E94FC
:100C0000F20670936501609364014EE1469FC00156
:100C1000479F900D1124C29664E670E00E94F20690
:100C20007093670160936601539A5D855F5F5E878D
:100C30008FB7F89420915F0130916001409161017C
:100C4000509162012C833D834E835F838FBF3E852D
:100C50004D854317A8F1E0911201F09113013097EF
:100C600079F109955E8551505E87552309F49ECF31
:100C70008FB7F89400915F0110916001209161019C
:100C8000309162018FBF8C819D81AE81BF81081B35
:100C9000190B2A0B3B0B8091100190911101B0E0D0
:100CA000A0E0081719072A073B0708F0C1CFBC01CD
:100CB000CD01601B710B820B930B0E940002B8CF19
:100CC00080910301909104010E94700260910501DE
:100CD0007091060190E080E00E94330210910F01B4
:100CE00080910D0190910E0120900B0130900C012C
:100CF0004090090150900A01A0910701B0910801AC
:100D0000BB83AA83C12CDD24DA94E980F88400E255
:100D1000812C912CA12C20E8B22E9C0150E040E0C7
:100D200029873A874B875C87712C612C17FF12C08B
:100D3000D701C60188219921AA21BB21892B8A2BA1
:100D40008B2B51F4C1010E94700269857A858B85D5
:100D50009C8508C0C0FEF6CF8A819B810E947002EC
:100D6000C301B2010E94330217FF12C0B694A794C8
:100D7000979487940150D1F615FD74CF4A815B8119
:100D80002416350609F06ECFC1010E9470026ACFA9
:100D9000F694E794D794C794EDCF1092630113CFE4
:100DA000A1E21A2EAA1BBB1BFD010DC0AA1FBB1F6F
:100DB000EE1FFF1FA217B307E407F50720F0A21BE1
:100DC000B30BE40BF50B661F771F881F991F1A944E
:100DD00069F760957095809590959B01AC01BD0178
:100DE000CF010895AA1BBB1B51E107C0AA1FBB1F5F
:100DF000A617B70710F0A61BB70B881F991F5A95A7
:100E0000A9F780959095BC01CD010895EE0FFF1FC5
:0C0E10000590F491E02D0994F894FFCFB8
:100E1C0008002600238011300290063002300200B8
:100E2C006E000B03340000000022018200AF006F43
:100E3C0001E000BE00D20053656E643A2061646428
:100E4C0072657373203D203078002C20636F6D6DBC
:100E5C00616E64203D203078002C207265706561D5
:0A0E6C007473203D20000D0A000001
:00000001FF
