:100000000C945D000C9485000C9485000C94850084
:100010000C9485000C9485000C9485000C9485004C
:100020000C949D050C9485000C9485000C9485001F
:100030000C9485000C9485000C9485000C9485002C
:100040000C9453050C9485000C9421050C94FB042E
:100050000C9485000C9485000C9485000C9485000C
:100060000C9485000C9485000000000024002700FB
:100070002A0000000000250028002B0000000008D6
:10008000000201000003040700000000000000005F
:10009000040404040404040402020202020203032E
:1000A0000303030301020408102040800102040836
:1000B00010200102040810209D0611241FBECFEF5E
:1000C000D8E0DEBFCDBF24E0A8E5B2E001C01D92BC
:1000D000A932B207E1F712E0A0E0B1E0ECE0F0E213
:1000E00002C005900D92A835B107D9F710E0CDE513
:1000F000D0E004C02197FE010E94FE0FCC35D1074D
:10010000C9F70E94DC060C9404100C940000E091E6
:100110001C04F0911D04238534852817390728F421
:100120008091180481608093180408950F931F93A1
:10013000CF93DF93409166028091190410E0481735
:1001400008F068C0142F117000916502011153C0AE
:10015000E0911C04F0911D04842F90E0880F991FFA
:10016000E80FF91F0384F485E02D2CEE3FEF1123F7
:1001700011F024E130E0C0916302D09164022C0FB1
:100180003D1FC90163E470E00E94EA0FE617F7071C
:1001900060F0C90168E270E00E94EA0F6F5F7F4F74
:1001A00081E090E06E177F0710F52C0F3D1FC9010D
:1001B00063E470E00E94EA0FE617F70750F0C90108
:1001C00068E270E00E94EA0F6F5F7F4F6E177F0753
:1001D00060F42C0F3D1FC90163E470E00E94EA0F38
:1001E000E617F707E8F41FEF15C082E090E0909360
:1001F0006202809361020F5F009365028091610249
:10020000909162020817190628F0109265024F5F5C
:1002100040936602812FDF91CF911F910F91089536
:10022000C90168E270E00E94EA0F6F5F7F4F6E17AE
:100230007F07C8F283E090E0DACFAF92BF92CF920F
:10024000DF92EF92FF920F931F93CF93DF936C0196
:100250007B018B01040F151FEB015E01AE18BF0877
:10026000C017D10759F06991D601ED91FC91019029
:10027000F081E02DC6010995892B79F7C501DF9141
:10028000CF911F910F91FF90EF90DF90CF90BF9093
:10029000AF900895FC01538D448D252F30E0842FBD
:1002A00090E0821B930B541710F0CF96089501979E
:1002B0000895FC01918D828D981761F0A28DAE0F8B
:1002C000BF2FB11D5D968C91928D9F5F9F73928F12
:1002D00090E008958FEF9FEF0895FC01918D828D3E
:1002E000981731F0828DE80FF11D858D90E008950B
:1002F0008FEF9FEF0895FC01918D228D892F90E063
:10030000805C9F4F821B91098F739927089587E620
:1003100092E00E947B0121E0892B09F420E0822FEA
:10032000089580E090E0892B29F00E9487018111D7
:100330000C9400000895FC01A48DA80FB92FB11DE5
:10034000A35ABF4F2C91848D90E001968F7399270B
:10035000848FA689B7892C93A089B1898C918370E9
:1003600080648C93938D848D981306C00288F389E2
:10037000E02D80818F7D80830895EF92FF920F930F
:100380001F93CF93DF93EC0181E0888F9B8D8C8D41
:1003900098131AC0E889F989808185FF15C09FB735
:1003A000F894EE89FF896083E889F98980818370F8
:1003B000806480839FBF81E090E0DF91CF911F91A7
:1003C0000F91FF90EF900895F62E0B8D10E00F5FC8
:1003D0001F4F0F731127E02E8C8D8E110CC00FB69E
:1003E00007FCFACFE889F989808185FFF5CFCE0136
:1003F0000E949B01F1CFEB8DEC0FFD2FF11DE35A15
:10040000FF4FF0829FB7F8940B8FEA89FB898081B8
:100410008062CFCFCF93DF93EC01888D8823B9F032
:10042000AA89BB89E889F9898C9185FD03C08081FF
:1004300086FD0DC00FB607FCF7CF8C9185FFF2CF7C
:10044000808185FFEDCFCE010E949B01E9CFDF9136
:10045000CF91089590E0FC01E458FF4F2491FC01F6
:10046000EC55FF4F3491FC01E057FF4FE491EE2330
:10047000C9F0222339F0233001F1A8F4213019F119
:10048000223029F1F0E0EE0FFF1FEE58FF4FA5914B
:10049000B4918FB7F894EC91611126C030953E234A
:1004A0003C938FBF08952730A9F02830C9F024303D
:1004B00049F7809180008F7D03C0809180008F7705
:1004C00080938000DFCF84B58F7784BDDBCF84B588
:1004D0008F7DFBCF8091B0008F778093B000D2CF1B
:1004E0008091B0008F7DF9CF3E2BDACF3FB7F894E3
:1004F00080915D0290915E02A0915F02B0916002D6
:1005000026B5A89B05C02F3F19F00196A11DB11D6E
:100510003FBFBA2FA92F982F8827BC01CD01620FAA
:10052000711D811D911D42E0660F771F881F991F65
:100530004A95D1F70895FC019B0124513109C90165
:1005400063E470E00E94EA0FE617F70758F0C9016C
:1005500068E270E00E94EA0F6F5F7F4F81E06E17E4
:100560007F0708F480E008952F923F924F925F92A8
:100570006F927F928F929F92AF92BF92CF92DF92B3
:10058000EF92FF920F931F93CF93DF9300D000D091
:1005900000D0CDB7DEB7382E6D835A013C832B8354
:1005A00048012E2C9A012C5E3F4FC90163E470E094
:1005B0000E94EA0F8B01C90168E270E00E94EA0F15
:1005C0009B012F5F3F4F3A8329835D81452F50E088
:1005D000440F551F455F5F4F80911C0490911D048F
:1005E000480F591F5E834D83412C512C3201439497
:1005F000C12CD12C76013320B9F18B819C81A816B6
:10060000B906E1F4B401ED81FE81828193810E94FB
:100610009B02222011F1CC0CDD1CEE1CFF1C882358
:1006200011F06894C0F8440C551C661C771C3A9471
:100630008D819E8104969E838D83DDCFED81FE8129
:10064000208131812017310730F081E049815A81C2
:1006500042175307F0F680E0DCCF882321F3C4284B
:10066000D528E628F728DFCFC092FE03D092FF03FB
:10067000E0920004F092010481E026960FB6F8940F
:10068000DEBF0FBECDBFDF91CF911F910F91FF90C5
:10069000EF90DF90CF90BF90AF909F908F907F9022
:1006A0006F905F904F903F902F900895EF920F932F
:1006B0001F93FC01862F642FEE24E39497859111FC
:1006C00001C0E12C01851285238534854781508541
:1006D0000E94B4021F910F91EF9008950F931F9302
:1006E000CF93DF93EC01E0911C04F0911D0405858C
:1006F00016852B813C812C5E3F4FC90163E470E07D
:100700000E94EA0F06171707A0F0C90168E270E01F
:100710000E94EA0F6F5F7F4F6017710750F06D8185
:100720007E8187859089DF91CF911F910F910C94E5
:100730009B0280E0DF91CF911F910F9108958091EE
:10074000EF03882319F060E00C942A022D98089595
:10075000882349F08091EF03882319F061E00C941D
:100760002A022D9A08950C949F034F925F926F92E4
:100770007F928F929F92AF92BF92CF92DF92EF9231
:10078000FF92CF93DF93CDB7DEB72D970FB6F894D6
:10079000DEBF0FBECDBF7C010E94760269837A83E3
:1007A0008B839C834B015C011D86B0E0A0E0970128
:1007B000AD0125523109410951092D833E834F83F3
:1007C00058879701AD0127503109410951092987FF
:1007D0003A874B875C87F89461E08091F1030E942F
:1007E0002A028091F4039091F5038230910538F04C
:1007F000880F991F880F991F05970197F1F760E0FF
:100800008091F1030E942A0278943D85311107C03E
:100810008091F003823019F481E00E94A803809156
:10082000F2039091F303880E991EA11CB11CF89459
:100830000E9476022B013C016B0149815A81C41A46
:10084000D50AF12CE12C8D819E81AF81B885C81627
:10085000D906EA06FB0634F08091F003823011F4E9
:100860000E949F0329853A854B855C85C216D30675
:10087000E406F506B4F078942D960FB6F894DEBF32
:100880000FBECDBFDF91CF91FF90EF90DF90CF9063
:10089000BF90AF909F908F907F906F905F904F90A0
:1008A000089531E03D87481459046A047B0408F434
:1008B000BFCF91CFCF92DF92EF92FF928AE190E08B
:1008C0009093F3038093F20385E090E09093F50317
:1008D0008093F4038091F10390E0FC01EC55FF4F0D
:1008E000249180579F4FFC018491882399F090E0D8
:1008F000880F991FFC01E859FF4FA591B491FC01A5
:10090000EE58FF4F859194918FB7F894EC91E22BBC
:10091000EC938FBF80E093E20E94B5030E947602C1
:100920006B017C01F4E0CF1AD108E108F1080E94C4
:1009300076026C197D098E099F09603C784081051B
:100940009105A8F380E392E0FF90EF90DF90CF90C5
:100950000C94B503FC0101900020E9F73197AF0139
:10096000481B590BBC0187E692E00C941D018F9245
:100970009F92AF92BF920F931F93CF93DF93CDB708
:10098000DEB7A1970FB6F894DEBF0FBECDBF19A298
:10099000423008F44AE08E010F5D1F4F842E912CE7
:1009A000B12CA12CA50194010E94AE0FE62FB90134
:1009B000CA01EA30F4F4E05DD801EE938D01232BF7
:1009C000242B252B79F790E080E0109719F0CD01CA
:1009D0000E94AA04A1960FB6F894DEBF0FBECDBF49
:1009E000DF91CF911F910F91BF90AF909F908F900B
:1009F0000895E95CE1CF1F920F920FB60F92112478
:100A00002F933F934F935F936F937F938F939F9316
:100A1000AF93BF93EF93FF9387E692E00E949B0111
:100A2000FF91EF91BF91AF919F918F917F916F91C6
:100A30005F914F913F912F910F900FBE0F901F909C
:100A400018951F920F920FB60F9211242F938F9328
:100A50009F93EF93FF93E0917702F091780280816A
:100A6000E0917D02F0917E0282FD1BC09081809119
:100A700080028F5F8F7320918102821741F0E09195
:100A80008002F0E0E959FD4F958F80938002FF913D
:100A9000EF919F918F912F910F900FBE0F901F900C
:100AA00018958081F4CF1F920F920FB60F921124E8
:100AB0002F933F938F939F93AF93BF93809159024E
:100AC00090915A02A0915B02B0915C023091580261
:100AD00023E0230F2D3758F50196A11DB11D20935A
:100AE00058028093590290935A02A0935B02B093EC
:100AF0005C0280915D0290915E02A0915F02B091D4
:100B000060020196A11DB11D80935D0290935E026B
:100B1000A0935F02B0936002BF91AF919F918F91BC
:100B20003F912F910F900FBE0F901F90189526E8C0
:100B3000230F0296A11DB11DD2CF1F920F920FB6A7
:100B40000F9211242F933F934F935F936F937F9353
:100B50008F939F93AF93BF93CF93EF93FF93E091C6
:100B60000603F0910703C08180910803C823809198
:100B7000090390910A03019649F08091090390912D
:100B80000A03019690930A0380930903809104035A
:100B900081111DC0C1116EC08091090390910A039B
:100BA000813A910578F010920D038091090390919C
:100BB0000A039093100380930F0381E080930E0348
:100BC0008093040310920A031092090353C080918A
:100BD00004038130A9F4CC2309F44CC0E0910E0346
:100BE0008E0F80930E038091090390910A03F0E029
:100BF000EE0FFF1FEC5FFC4F9487838782E0E0CF0E
:100C000080910403823009F04FC0C11122C0E091ED
:100C10000E0381E0E03768F080930D0383E080935A
:100C20000403E0910B03F0910C03309759F20995FE
:100C3000C9CF8E0F80930E038091090390910A0310
:100C4000F0E0EE0FFF1FEC5FFC4F9487838781E09D
:100C5000B7CF8091090390910A03813A910550F032
:100C600083E080930403E0910B03F0910C03309731
:100C700009F009958091F003813021F4C11180E0E1
:100C80000E94A803FF91EF91CF91BF91AF919F91E7
:100C90008F917F916F915F914F913F912F910F9025
:100CA0000FBE0F901F90189580910403833011F7A9
:100CB000C111E0CF87CFEF92FF920F931F93CF9395
:100CC000DF93EC01F62F8A01790190E080E030E0BB
:100CD000E0E0DE01AE0FB11D2C91222341F0320F76
:100CE0002E9F800D911D11241C92FE1315C03323DD
:100CF00099F0532F5695850F911D632F70E00E9438
:100D0000EA0FDE01A60FB11D3C93D8013C913111D1
:100D10000EC06C9390E080E0EF5FFE17D0F681E0AC
:100D2000DF91CF911F910F91FF90EF900895D70120
:100D30003C91332371F380E0F3CFE7E6F2E01382D6
:100D4000128288EE93E0A0E0B0E084839583A683CE
:100D5000B78384EF91E09183808385EC90E0958761
:100D6000848784EC90E09787868780EC90E0918B75
:100D7000808B81EC90E0938B828B82EC90E0958B62
:100D8000848B86EC90E0978B868B118E128E138E5F
:100D9000148EE4E0F3E0F0931D04E0931C04118250
:100DA00081E0848389E290E093838283509810925B
:100DB000EF031092F1030895CF93DF93CDB7DEB721
:100DC000E7970FB6F894DEBF0FBECDBF789484B519
:100DD000826084BD84B5816084BD85B5826085BD37
:100DE00085B5816085BD80916E00816080936E00C5
:100DF00010928100809181008260809381008091B7
:100E00008100816080938100809180008160809367
:100E100080008091B10084608093B1008091B00027
:100E200081608093B00080917A00846080937A0022
:100E300080917A00826080937A0080917A0081604C
:100E400080937A0080917A00806880937A00109273
:100E5000C100E0917702F091780282E08083E09116
:100E60007302F09174021082E0917502F0917602A3
:100E70009FEC908310927F02E0917B02F0917C02C4
:100E800096E09083E0917902F0917A0290819061EE
:100E90009083E0917902F0917A029081986090833A
:100EA000E0917902F0917A02908190689083E091CC
:100EB0007902F0917A0290819F7D9083809305035F
:100EC00094E09093080329E230E0309307032093E5
:100ED000060352981092EF038093B0008093B10004
:100EE00084E68093B3008093B4001092B2008091A6
:100EF0000403833011F41092040384E080937000A3
:100F00009E012F5F3F4F390180910403833009F028
:100F100010C280910D03882309F460C080E480939F
:100F20001804E0911C04F0911D048385948590932E
:100F30001B0480931A042285209319041092F7034E
:100F40001092F6031092FB031092FA031092F90329
:100F50001092F8031092FE031092FF031092000407
:100F60001092010410921704109216048091180434
:100F700086FDCDC1822F8F7B843009F0BEC0858570
:100F80009685865891098C35910508F0B6C08785FD
:100F90009089243009F049C08197489708F0ADC086
:100FA000818992890897089708F0A7C081E080930B
:100FB000180480912004909121049093F903809368
:100FC000F80380912404909125049093FB0380936F
:100FD000FA0380911E0490911F0459C310921804C3
:100FE0008091F6039091F70390931F0480931E0461
:100FF0008091FA039091FB03B0E0A0E08093240479
:1010000090932504A0932604B09327048091F803BD
:101010009091F903B0E0A0E0809320049093210424
:10102000A0932204B09323047CCF825491098F971C
:1010300008F063C043E060E28CED91E00E9456034B
:10104000882309F45AC02091FE039091FF03609118
:10105000000480910104462F50E05093FB0340931D
:10106000FA03422F592F4E3E37E8530719F523E074
:1010700030E03093F7032093F60390E09093F90368
:101080008093F80380E290E0909317048093160415
:101090008AE795E00E9487008091180480FF30C1A4
:1010A00029E030E03093F7032093F60380628093C9
:1010B000180426C19095291310C030E03093F9032D
:1010C0002093F803982F909569130CC088E090E066
:1010D0009093F7038093F603D5CF5093F903409391
:1010E000F803F0CF2AE030E03093F7032093F603C3
:1010F0006093FA038093FB03C5CF80911904843673
:1011000009F08FC088EC91E00E946E03882309F4F7
:1011100088C043E060E188EC91E00E945603882398
:1011200009F47FC0F090FE030F2D1091FF03BBE088
:10113000CB2ED12C023080E21807F9F0AEE0CA2E97
:10114000D12C0A3A9AE51907C1F0FDE0CF2ED12C37
:101150000435E2E31E0789F0EFE0CE2ED12C0330F8
:10116000F1E01F0751F080E1C82ED12C03322BECA7
:10117000120719F07CE0C72ED12C43E260E288EC24
:1011800091E00E945603882309F44BC0F126809118
:10119000FE039091FF03A0910004B09101049C0113
:1011A00064E0369527956A95E1F73093F90320932B
:1011B000F8032A2F30E03093FB032093FA03382FF3
:1011C0003A2739272F2D22952F702F252F70482F42
:1011D0004F70241719F024E020931804ECE0CE1689
:1011E000D10449F42091180420612093180410932D
:1011F000FD030093FC033B1729F0809118048460E1
:101200008093180480E390E0909317048093160471
:10121000D092F703C092F6038AE397E00E9487001A
:101220006FC080911904803209F097C041E06FE0EF
:1012300084EB91E00E945603882309F48EC0E0916C
:101240001C04F0911D04E75BFF4F8081918104979E
:10125000059708F082C08091FE039091FF03A09152
:101260000004B09101049C012F7133273093F903DE
:101270002093F80355E0B695A795979587955A95CD
:10128000D1F7292F2370AC0155275093FB034093CE
:10129000FA0340911A0450911B044536544008F05B
:1012A00055C0309128043F5F30932804323018F045
:1012B00031E03093180490FF14C030911804432F8C
:1012C0004260409318044091240450912504809575
:1012D000841719F03660309318044093FA03509342
:1012E000FB0321502230B0F586E190E09093F703A4
:1012F0008093F6038FE090E0909317048093160498
:101300008091F6039091F703892B09F0DBC582E009
:1013100092E00E94AA048DE392E00E94AA048091C8
:101320000403833011F4109204038DE392E00E94D1
:10133000AA0480E090E0892B09F4E6CD0E948701A1
:10134000882309F4E1CD0E940000DECD109228042C
:10135000223051F284E090E0C9CF80EA91E00E940F
:101360006E03882309F448C0809119048A3129F05A
:101370008A3219F0803209F03FC090E0BC01615020
:10138000710977FDBC017595679543E080EA91E0AE
:101390000E945603882381F18091FE039091FF0300
:1013A000A0910004B09101049C012F773327309362
:1013B000FB032093FA0337E0B695A7959795879599
:1013C0003A95D1F79093F9038093F803209119048B
:1013D00030E0C901019797FDC901959587959093D4
:1013E00017048093160487E190E09093F7038093AD
:1013F000F60380EE91E012CF81E08093660229E748
:1014000033E03093640220936302109265020E94DD
:101410009600813009F060C0812C912C540110E0BD
:1014200090911904809166028917E0F40E94960059
:10143000082F0E94960001110BC0813009F04CC0AA
:10144000880C991CAA1CBB1C689480F81F5FE8CF0D
:10145000013009F041C081113FC0880C991CAA1CC1
:10146000BB1CF4CF812F90E0909317048093160457
:101470008092FE039092FF03A0920004B0920104B8
:10148000882D8F7390E09093FB038093FA0394016F
:10149000B6E036952795BA95E1F72F71332730934B
:1014A000F9032093F803940122273071232B31F4A0
:1014B000805C9F4F9093FB038093FA0380E893FC3A
:1014C00088E88093180481E190E09093F70380937B
:1014D000F6038FEC99E0A2CEE0911C04F0911D047C
:1014E0008585968588974D9708F042C087859089B5
:1014F0000C970B97E8F583E0809366028CEB91E004
:101500009093640280936302109265020E94960099
:10151000813071F50E94960081112AC0812C912C96
:10152000540110E09091190480916602891708F027
:101530007CC00E949600F82E1330B1F00E949600F5
:10154000082F133021F40E949600081311C031E0D7
:10155000F31261C001110CC0880C991CAA1CBB1CA1
:10156000689480F81F5FDECF0E949600F81631F372
:10157000209119042C3311F02430B9F4E0911C04AB
:10158000F0911D04858596858638910570F0833E1F
:10159000910508F494C08E58910968EB7BE007E050
:1015A00010E08236910508F48EC0809119048232D1
:1015B00009F4EDC0843209F01EC184E191E00E947B
:1015C0006E03882309F417C143E060E184E191E0F0
:1015D0000E945603882309F40EC18091FE03909166
:1015E000FF03A0910004B0910104492F5A2F6B2FE3
:1015F00077275093FB034093FA0399279093F903BD
:101600008093F80380E190E0909317048093160490
:1016100085E090E03CC0F110ABCF013009F0A8CFDD
:10162000880C991CAA1CBB1C9DCF812F90E0909325
:101630001704809316048092FE039092FF03A092F9
:101640000004B0920104282D30E0892D143220F5D9
:1016500080E8809318043093FB032093FA03892DCC
:1016600090E09093F9038093F803A0FE03C088E80C
:1016700080931804153128F08091180480618093BC
:10168000180483E79AE00E94870082E190E090933B
:10169000F7038093F60334CE90E89093180497FEF6
:1016A00003C098E8909318043093FB032093FA0347
:1016B0008F7790E09093F9038093F803E2CF68E688
:1016C00070E106E010E087859089243061F44D9741
:1016D000469708F06ACF818992890797089708F0A2
:1016E00064CF81E864CC0E949B02882309F45DCF1B
:1016F00043E06CE180E091E00E945603882309F406
:1017000054CF80E8809318044091FE035091FF036A
:101710006091000470910104DB01CA0124E0B695D8
:10172000A795979587952A95D1F79C019093FB03F0
:101730008093FA03DB01CA01E4E1B695A79597957A
:101740008795EA95D1F79093F9038093F80384E0A5
:1017500090E0E0E0F22FFF70EF0FF4E03695279570
:10176000FA95E1F70197B1F74E274F705527662795
:101770007727452B462B472B19F084E880931804D4
:101780001093F7030093F6038CE190E0B5CD8091C0
:101790001A0490911B048C3E9C4508F0B1CDE09159
:1017A0001C04F0911D04858596850897079708F01D
:1017B000A7CDE35BFF4F808191810897079708F0E1
:1017C0009FCD81E0809318048091200490912104A2
:1017D0009093F9038093F803809124049091250459
:1017E0009093FB038093FA0325E030E03093F703F6
:1017F0002093F60385CD10911904812F8F7D8434B9
:1018000019F0163009F081C088E291E00E946E0361
:10181000882309F47AC01630B1F481E28093180469
:1018200080912004909121049093F9038093F80310
:1018300080912404909125049093FB038093FA03F4
:1018400084E190E024CF43E060E288E291E00E94EE
:101850005603882309F459C08091FF0310910004B6
:10186000009101042091FE032093F8038093F90373
:1018700090911904943659F543E460E188E291E0CF
:101880000E945603882309F440C08091FE03909182
:10189000FF030095101731F09095891719F094E027
:1018A00090931804982F812F9093FB038093FA0351
:1018B00080E390E0909317048093160485E190E014
:1018C0009093F7038093F6038EEB9AE0A7CC902FCA
:1018D0009095191314C0212F30E03093FB0320930F
:1018E000FA0390E09093F9038093F80380E290E08C
:1018F000909317048093160483E190E0E1CFC80130
:101900009093FA038093FB03F1CF80911904843202
:1019100079F58CE391E00E946E03882349F143E05E
:1019200060E18CE391E00E945603882309F1109155
:10193000FE038091FF038095181719F084E08093CF
:1019400018048DE692E00E948700812F90E090932A
:10195000FB038093FA031092F9031092F80380E1DD
:1019600090E090931704809316048DE190E08FCE61
:10197000809119048434D1F480E591E00E946E03D3
:101980008823A1F043E060E280E591E00E945603E5
:10199000882361F080E88093180480E290E09093BF
:1019A0001704809316048CE190E071CE84E691E0F8
:1019B0000E946E03882309F45DC0E0911C04F0913D
:1019C0001D048285843209F055C043E060E184E65D
:1019D00091E00E945603882309F44CC0E0911C0456
:1019E000F0911D04EF5AFF4F808191810297049777
:1019F00008F040C080E8809318049091FE03809125
:101A0000FF03292F382F482F42954F708F70A4E085
:101A100036952795AA95E1F72F70392F3F709FE0F3
:101A2000942798279227391719F094E8909318046F
:101A300060911A0470911B04683F714128F49091E1
:101A400018049260909318044093F8031092F903DD
:101A5000E0E18E9FC0011124822B9093FB038093C1
:101A6000FA0380E190E090931704809316048AE1D2
:101A700090E00DCE88E791E00E946E0390911904EA
:101A8000882381F1943271F543E060E188E791E0C9
:101A90000E945603882331F1E0911C04F0911D044B
:101AA000EF5AFF4F8081918108970797D8F4809172
:101AB000FE039091FF0398279F3FA1F490E090933D
:101AC000FB038093FA0380E190E0909317048093E6
:101AD000160489E190E09093F7038093F60388ED74
:101AE00094E09CCB80911904803709F057C041E005
:101AF00068E08CE891E00E945603882309F44EC008
:101B00008091FE039091FF03A0910004B091010425
:101B1000892B8A2B8B2B09F041C041E16FE18CE8C6
:101B200091E00E9456038823C9F18090FE039090B3
:101B3000FF03A0900004B09001044FE461E18CE841
:101B400091E00E945603882349F19091FF03809110
:101B500000048927982789279093FB038093FA0331
:101B60008092FE039092FF03A0920004B0920104C1
:101B70009092F9038092F803B092FD03A092FC03C7
:101B80008BE190E09093F7038093F60388E390E075
:101B9000909317048093160480E889CA2091190451
:101BA000243108F428C182E3F30111928A95E9F700
:101BB00040911C0450911D0473E060E02250330BEF
:101BC000872F90E082179307BCF4880F991FFA01C2
:101BD000E80FF91F838594858233910508F00BC1C6
:101BE000F301E80FF91FA081AF5FA0836817190602
:101BF00008F4682F7E5FE4CF1EAA1DAA9E012B5C0D
:101C00003F4FAE014A5C5F4FC3010E945B068823D1
:101C100009F4F1C082E3F30111928A95E9F720916A
:101C200019042250330B40911C0450911D0474E0A0
:101C300060E0872F90E082179307BCF4880F991F0C
:101C4000FA01E80FF91F838594858233910508F026
:101C5000D2C0F301E80FF91FA081AF5FA08368171E
:101C6000190608F4682F7E5FE4CF1CAA1BAA9E0108
:101C70002D5C3F4FAE014C5C5F4FC3010E945B0681
:101C8000882309F4B8C0809119048695FF24FA943A
:101C9000F80ECBA88DA8CC2029F0811003C03EEF10
:101CA000F32EF80E2F2D30E03093170420931604F6
:101CB000C901019797FD4F9625E0959587952A953F
:101CC000E1F78FAB811003C0CC2009F494C04CA87D
:101CD00082E3489E20011124AEA8A89E5001112441
:101CE000889E40011124C89E6001112483E0282EA3
:101CF000312C8F2DF0E2FF1508F480E29DA9992385
:101D000009F465C021E030E03093F7032093F60337
:101D1000E12C82019501A401622D0E94B402882366
:101D200009F469C024E0329EF0011124E25FFB4F08
:101D30008091FE039091FF03A0910004B0910104F3
:101D400080839183A283B38330E4230E80EEF80E68
:101D500033949FA9931568F680ED97E00E94870061
:101D6000E0911C04F0911D044585568582E3849F13
:101D70009001859F300D11243093030420930204B9
:101D800047855089849F9001859F300D11243093A1
:101D9000050420930404B0920B04A0920A0450920C
:101DA0000D0440920C0481149104E1F09092070418
:101DB000809206045092090440920804C114D10490
:101DC00009F49ECAD0920D04C0920C0499CAE2E0B4
:101DD000F0E0F093F703E093F603E12C8601950120
:101DE000A5019ACFB0920704A0920604D0920904EC
:101DF000C092080485CA80911904863008F480CA0C
:101E0000A0901C04B0901D0411E025EC3DE94CE1CC
:101E100051E8C82ED12C0AE0812F90E0BC016E5F02
:101E20007F4F6C157D05DCF5660F771FF501E60F1A
:101E3000F71F63857485880F991FF501E80FF91F57
:101E400083859485069FD001079FB00D1124FC0166
:101E5000EE0FFF1FEE0FFF1FEE0FFF1FAE17BF07A6
:101E6000D0F0089FF001099FF00D1124CB0163E031
:101E7000880F991F6A95E1F7E817F90770F4E2E017
:101E800063E971E080E091E00E949E0F9B01AC014C
:101E90002E271F5FC1CFE0E0F3CFE1E0F1CF209329
:101EA000FE033093FF03409300045093010480E24B
:101EB00090E090931704809316041092F703109209
:101EC000F6031ECA80910403833011F410920403B8
:101ED00080E492E00E94AA046091F8037091F903F3
:101EE00090E080E040E10E94B7048DE392E00E9420
:101EF000AA0489E492E00E94AA046091FA03709116
:101F0000FB0390E080E040E10E94B7048DE392E0A3
:101F10000E94AA0482E592E00E94AA046091FE0356
:101F20007091FF03809100049091010440E10E94B0
:101F3000B7048DE392E00E94AA04F7C9DB018F93F6
:101F40009F930E94D00FBF91AF91A29F800D911DD2
:101F5000A39F900DB29F900D11240895A1E21A2E17
:101F6000AA1BBB1BFD010DC0AA1FBB1FEE1FFF1F3D
:101F7000A217B307E407F50720F0A21BB30BE40B8D
:101F8000F50B661F771F881F991F1A9469F76095D4
:101F90007095809590959B01AC01BD01CF0108958E
:101FA0000E94DB0FA59F900DB49F900DA49F800D04
:101FB000911D11240895A29FB001B39FC001A39F5A
:101FC000700D811D1124911DB29F700D811D112472
:101FD000911D0895AA1BBB1B51E107C0AA1FBB1F7F
:101FE000A617B70710F0A61BB70B881F991F5A95A5
:101FF000A9F780959095BC01CD010895EE0FFF1FC4
:0C2000000590F491E02D0994F894FFCFB6
:10200C0006002628236810F4012C06F40126028011
:10201C006E005A04050026E02070100E022A060EEF
:10202C00020E0200410000001300268011801130C6
:10203C0002900630023002006E0000001D002638AF
:10204C00081C040E022A060E020E020032000000CA
:10205C001C0026220B220BEE026608EE02EE02801A
:10206C006E0000001A00269E0002049E0029029EAB
:10207C00000701006E000000190026F603BC0508DD
:10208C0002BC050802D401004B0000001B00261FF7
:10209C00015D033E023E021F015D03806E000000E5
:1020AC0017002860095802B0045802580258020060
:1020BC002D00000004002604010C0304011C07047D
:1020CC00010C03006E0000000C0025800DC006B052
:1020DC00011005B001B001008200000008002600CC
:1020EC002380113002900630023002006E005A0438
:1020FC0000000000BD011D014A010A027B015901CB
:10210C006D015265636569766564206E6F697365F0
:10211C00206F7220616E20756E6B6E6F776E20284B
:10212C006F72206E6F742079657420656E61626CBD
:10213C006564292070726F746F636F6C000D0A00F8
:10214C00416464726573732000436F6D6D616E64DE
:08215C00200052617720000011
:00000001FF
